{
  "_format": "hh-sol-artifact-1",
  "contractName": "SimpleSwap",
  "sourceName": "contracts/SimpleSwap.sol",
  "abi": [
    {
      "inputs": [
        {
          "internalType": "address",
          "name": "_tokenA",
          "type": "address"
        },
        {
          "internalType": "address",
          "name": "_tokenB",
          "type": "address"
        }
      ],
      "stateMutability": "nonpayable",
      "type": "constructor"
    },
    {
      "inputs": [],
      "name": "ReentrancyGuardReentrantCall",
      "type": "error"
    },
    {
      "anonymous": false,
      "inputs": [
        {
          "indexed": true,
          "internalType": "address",
          "name": "provider",
          "type": "address"
        },
        {
          "indexed": false,
          "internalType": "uint256",
          "name": "amountA",
          "type": "uint256"
        },
        {
          "indexed": false,
          "internalType": "uint256",
          "name": "amountB",
          "type": "uint256"
        },
        {
          "indexed": false,
          "internalType": "uint256",
          "name": "liquidityMinted",
          "type": "uint256"
        },
        {
          "indexed": false,
          "internalType": "uint256",
          "name": "timestamp",
          "type": "uint256"
        }
      ],
      "name": "LiquidityAdded",
      "type": "event"
    },
    {
      "anonymous": false,
      "inputs": [
        {
          "indexed": true,
          "internalType": "address",
          "name": "provider",
          "type": "address"
        },
        {
          "indexed": false,
          "internalType": "uint256",
          "name": "amountA",
          "type": "uint256"
        },
        {
          "indexed": false,
          "internalType": "uint256",
          "name": "amountB",
          "type": "uint256"
        },
        {
          "indexed": false,
          "internalType": "uint256",
          "name": "timestamp",
          "type": "uint256"
        }
      ],
      "name": "LiquidityRemoved",
      "type": "event"
    },
    {
      "anonymous": false,
      "inputs": [
        {
          "indexed": true,
          "internalType": "address",
          "name": "swapper",
          "type": "address"
        },
        {
          "indexed": true,
          "internalType": "address",
          "name": "tokenIn",
          "type": "address"
        },
        {
          "indexed": true,
          "internalType": "address",
          "name": "tokenOut",
          "type": "address"
        },
        {
          "indexed": false,
          "internalType": "uint256",
          "name": "timestamp",
          "type": "uint256"
        }
      ],
      "name": "TokensSwapped",
      "type": "event"
    },
    {
      "inputs": [
        {
          "internalType": "address",
          "name": "_tokenA",
          "type": "address"
        },
        {
          "internalType": "address",
          "name": "_tokenB",
          "type": "address"
        },
        {
          "internalType": "uint256",
          "name": "amountADesired",
          "type": "uint256"
        },
        {
          "internalType": "uint256",
          "name": "amountBDesired",
          "type": "uint256"
        },
        {
          "internalType": "uint256",
          "name": "amountAMin",
          "type": "uint256"
        },
        {
          "internalType": "uint256",
          "name": "amountBMin",
          "type": "uint256"
        },
        {
          "internalType": "address",
          "name": "to",
          "type": "address"
        },
        {
          "internalType": "uint256",
          "name": "deadline",
          "type": "uint256"
        }
      ],
      "name": "addLiquidity",
      "outputs": [
        {
          "internalType": "uint256",
          "name": "actualAmountA",
          "type": "uint256"
        },
        {
          "internalType": "uint256",
          "name": "actualAmountB",
          "type": "uint256"
        },
        {
          "internalType": "uint256",
          "name": "liquidity",
          "type": "uint256"
        }
      ],
      "stateMutability": "nonpayable",
      "type": "function"
    },
    {
      "inputs": [
        {
          "internalType": "uint256",
          "name": "amountIn",
          "type": "uint256"
        },
        {
          "internalType": "uint256",
          "name": "reserveIn",
          "type": "uint256"
        },
        {
          "internalType": "uint256",
          "name": "reserveOut",
          "type": "uint256"
        }
      ],
      "name": "getAmountOut",
      "outputs": [
        {
          "internalType": "uint256",
          "name": "amountOut",
          "type": "uint256"
        }
      ],
      "stateMutability": "pure",
      "type": "function"
    },
    {
      "inputs": [
        {
          "internalType": "address",
          "name": "_tokenA",
          "type": "address"
        },
        {
          "internalType": "address",
          "name": "_tokenB",
          "type": "address"
        }
      ],
      "name": "getPrice",
      "outputs": [
        {
          "internalType": "uint256",
          "name": "price",
          "type": "uint256"
        }
      ],
      "stateMutability": "view",
      "type": "function"
    },
    {
      "inputs": [
        {
          "internalType": "address",
          "name": "",
          "type": "address"
        }
      ],
      "name": "liquidityProvided",
      "outputs": [
        {
          "internalType": "uint256",
          "name": "",
          "type": "uint256"
        }
      ],
      "stateMutability": "view",
      "type": "function"
    },
    {
      "inputs": [
        {
          "internalType": "address",
          "name": "_tokenA",
          "type": "address"
        },
        {
          "internalType": "address",
          "name": "_tokenB",
          "type": "address"
        },
        {
          "internalType": "uint256",
          "name": "liquidityToBurn",
          "type": "uint256"
        },
        {
          "internalType": "uint256",
          "name": "amountAMin",
          "type": "uint256"
        },
        {
          "internalType": "uint256",
          "name": "amountBMin",
          "type": "uint256"
        },
        {
          "internalType": "address",
          "name": "to",
          "type": "address"
        },
        {
          "internalType": "uint256",
          "name": "deadline",
          "type": "uint256"
        }
      ],
      "name": "removeLiquidity",
      "outputs": [
        {
          "internalType": "uint256",
          "name": "amountAWithdrawn",
          "type": "uint256"
        },
        {
          "internalType": "uint256",
          "name": "amountBWithdrawn",
          "type": "uint256"
        }
      ],
      "stateMutability": "nonpayable",
      "type": "function"
    },
    {
      "inputs": [],
      "name": "reserve0",
      "outputs": [
        {
          "internalType": "uint256",
          "name": "",
          "type": "uint256"
        }
      ],
      "stateMutability": "view",
      "type": "function"
    },
    {
      "inputs": [],
      "name": "reserve1",
      "outputs": [
        {
          "internalType": "uint256",
          "name": "",
          "type": "uint256"
        }
      ],
      "stateMutability": "view",
      "type": "function"
    },
    {
      "inputs": [
        {
          "internalType": "uint256",
          "name": "amountIn",
          "type": "uint256"
        },
        {
          "internalType": "uint256",
          "name": "amountOutMin",
          "type": "uint256"
        },
        {
          "internalType": "address[]",
          "name": "path",
          "type": "address[]"
        },
        {
          "internalType": "address",
          "name": "to",
          "type": "address"
        },
        {
          "internalType": "uint256",
          "name": "deadline",
          "type": "uint256"
        }
      ],
      "name": "swapExactTokensForTokens",
      "outputs": [
        {
          "internalType": "uint256[]",
          "name": "amounts",
          "type": "uint256[]"
        }
      ],
      "stateMutability": "nonpayable",
      "type": "function"
    },
    {
      "inputs": [],
      "name": "token0",
      "outputs": [
        {
          "internalType": "address",
          "name": "",
          "type": "address"
        }
      ],
      "stateMutability": "view",
      "type": "function"
    },
    {
      "inputs": [],
      "name": "token1",
      "outputs": [
        {
          "internalType": "address",
          "name": "",
          "type": "address"
        }
      ],
      "stateMutability": "view",
      "type": "function"
    },
    {
      "inputs": [],
      "name": "totalLiquidity",
      "outputs": [
        {
          "internalType": "uint256",
          "name": "",
          "type": "uint256"
        }
      ],
      "stateMutability": "view",
      "type": "function"
    }
  ],
  "bytecode": "0x60806040523480156200001157600080fd5b50604051620048a7380380620048a78339818101604052810190620000379190620004ed565b60016000819055506200005b677d03937f0b2f5d9460c01b6200048060201b60201c565b62000077670225612842f87e5560c01b6200048060201b60201c565b6200009367f82ba95219f4dd2060c01b6200048060201b60201c565b620000af673c81bd530f06ab0260c01b6200048060201b60201c565b600073ffffffffffffffffffffffffffffffffffffffff168273ffffffffffffffffffffffffffffffffffffffff16141580156200011a5750600073ffffffffffffffffffffffffffffffffffffffff168173ffffffffffffffffffffffffffffffffffffffff1614155b6200015c576040517f08c379a0000000000000000000000000000000000000000000000000000000008152600401620001539062000595565b60405180910390fd5b6200017867cc21452bbf111ca460c01b6200048060201b60201c565b6200019467e192406f40c998ed60c01b6200048060201b60201c565b620001b067642058b5ad39737660c01b6200048060201b60201c565b620001cc67dfb303e5092e7abd60c01b6200048060201b60201c565b8073ffffffffffffffffffffffffffffffffffffffff168273ffffffffffffffffffffffffffffffffffffffff16036200023d576040517f08c379a0000000000000000000000000000000000000000000000000000000008152600401620002349062000607565b60405180910390fd5b62000259675704f9fd283824a360c01b6200048060201b60201c565b620002756753e566ebc2b2bb2660c01b6200048060201b60201c565b6200029066ad1b84a5a4a22060c01b6200048060201b60201c565b8073ffffffffffffffffffffffffffffffffffffffff168273ffffffffffffffffffffffffffffffffffffffff161015620003a157620002e167a240784bd06a779e60c01b6200048060201b60201c565b620002fd67e9ad74229a77043b60c01b6200048060201b60201c565b81600160006101000a81548173ffffffffffffffffffffffffffffffffffffffff021916908373ffffffffffffffffffffffffffffffffffffffff1602179055506200035a67c9ad82d200931a5660c01b6200048060201b60201c565b80600260006101000a81548173ffffffffffffffffffffffffffffffffffffffff021916908373ffffffffffffffffffffffffffffffffffffffff16021790555062000478565b620003bd67577dd69b2f7a4a4460c01b6200048060201b60201c565b620003d9678a905b4eb7363eaa60c01b6200048060201b60201c565b80600160006101000a81548173ffffffffffffffffffffffffffffffffffffffff021916908373ffffffffffffffffffffffffffffffffffffffff160217905550620004366739efdb2e69953e7360c01b6200048060201b60201c565b81600260006101000a81548173ffffffffffffffffffffffffffffffffffffffff021916908373ffffffffffffffffffffffffffffffffffffffff1602179055505b505062000629565b50565b600080fd5b600073ffffffffffffffffffffffffffffffffffffffff82169050919050565b6000620004b58262000488565b9050919050565b620004c781620004a8565b8114620004d357600080fd5b50565b600081519050620004e781620004bc565b92915050565b6000806040838503121562000507576200050662000483565b5b60006200051785828601620004d6565b92505060206200052a85828601620004d6565b9150509250929050565b600082825260208201905092915050565b7f496e76616c696420746f6b656e20616464726573730000000000000000000000600082015250565b60006200057d60158362000534565b91506200058a8262000545565b602082019050919050565b60006020820190508181036000830152620005b0816200056e565b9050919050565b7f546f6b656e73206d75737420626520646966666572656e740000000000000000600082015250565b6000620005ef60188362000534565b9150620005fc82620005b7565b602082019050919050565b600060208201905081810360008301526200062281620005e0565b9050919050565b61426e80620006396000396000f3fe608060405234801561001057600080fd5b50600436106100a95760003560e01c80635a76f25e116100715780635a76f25e1461016857806365119f7214610186578063ac41865a146101b6578063baa2abde146101e6578063d21220a714610217578063e8e3370014610235576100a9565b8063054d50d4146100ae5780630dfe1681146100de57806315770f92146100fc57806338ed17391461011a578063443cb4bc1461014a575b600080fd5b6100c860048036038101906100c391906133bd565b610267565b6040516100d5919061341f565b60405180910390f35b6100e66103ed565b6040516100f3919061347b565b60405180910390f35b610104610413565b604051610111919061341f565b60405180910390f35b610134600480360381019061012f9190613527565b610419565b604051610141919061367f565b60405180910390f35b6101526110cc565b60405161015f919061341f565b60405180910390f35b6101706110d2565b60405161017d919061341f565b60405180910390f35b6101a0600480360381019061019b91906136a1565b6110d8565b6040516101ad919061341f565b60405180910390f35b6101d060048036038101906101cb91906136ce565b6110f0565b6040516101dd919061341f565b60405180910390f35b61020060048036038101906101fb919061370e565b611696565b60405161020e9291906137b0565b60405180910390f35b61021f6122dd565b60405161022c919061347b565b60405180910390f35b61024f600480360381019061024a91906137d9565b612303565b60405161025e9392919061388f565b60405180910390f35b600061027d6795b12941618f916a60c01b61313e565b61029167522654161a8849e760c01b61313e565b6102a567bcd7b12d562779c260c01b61313e565b60006103e86103e5866102b891906138f5565b6102c29190613966565b90506102d867dc041b774e71a82260c01b61313e565b6102ec67a84d9f00bd53291260c01b61313e565b600083826102fa91906138f5565b90506103106795086eaaa6d8c5a160c01b61313e565b61032467df0f3598a0b27f4b60c01b61313e565b600082866103329190613997565b905061034867e526c36d0aafda3460c01b61313e565b61035c6782c53d8b4d8eed9d60c01b61313e565b600081036103985761037867f4dd9768a025780260c01b61313e565b61038c67dcc35c919cfa910160c01b61313e565b600093505050506103e6565b6103ac67fa93c6f9da9bfa5660c01b61313e565b6103c067fe118c07d6fbaebb60c01b61313e565b6103d467059bc803201a1c6e60c01b61313e565b80826103e09190613966565b93505050505b9392505050565b600160009054906101000a900473ffffffffffffffffffffffffffffffffffffffff1681565b60055481565b606061042f673afe2856b2c7ee7c60c01b61313e565b610437613141565b61044b673ba56fb9773ac41c60c01b61313e565b61045f672ec246413f29e04260c01b61313e565b8161047467e283b568588d440460c01b61313e565b6104886776cf1b3fbec898c760c01b61313e565b61049c670e4d2c66caa7580c60c01b61313e565b6104b067d5c3866c28c80d8860c01b61313e565b804211156104f3576040517f08c379a00000000000000000000000000000000000000000000000000000000081526004016104ea90613a28565b60405180910390fd5b61050767cdd570e15fcebf7460c01b61313e565b61051b67c4ca57030108dad160c01b61313e565b61052f67c595dd4a9fbf185b60c01b61313e565b61054367de8ad8691336fb3260c01b61313e565b61055767b8e664b02a3c7bfa60c01b61313e565b61056b67b62ffe9643e590fc60c01b61313e565b60006040518060a00160405280600160009054906101000a900473ffffffffffffffffffffffffffffffffffffffff1673ffffffffffffffffffffffffffffffffffffffff168152602001600260009054906101000a900473ffffffffffffffffffffffffffffffffffffffff1673ffffffffffffffffffffffffffffffffffffffff16815260200160035481526020016004548152602001600554815250905061062067f4148257126a9c7e60c01b61313e565b610634678e7259f456abc9a260c01b61313e565b61064867a5c81f24a42734e260c01b61313e565b6002878790501461068e576040517f08c379a000000000000000000000000000000000000000000000000000000000815260040161068590613a94565b60405180910390fd5b6106a26718dc63a6777f552060c01b61313e565b6106b667e030cabd9450e8a360c01b61313e565b6106ca676b43c58c253ae75960c01b61313e565b6106de6767d4dacd9ea453f960c01b61313e565b600073ffffffffffffffffffffffffffffffffffffffff168573ffffffffffffffffffffffffffffffffffffffff160361074d576040517f08c379a000000000000000000000000000000000000000000000000000000000815260040161074490613b00565b60405180910390fd5b610761670d54daaf82e0a19c60c01b61313e565b61077567a49be89c884d501c60c01b61313e565b6107896722375f296d2b140c60c01b61313e565b61079d677ba98ad4edefe33160c01b61313e565b600089116107e0576040517f08c379a00000000000000000000000000000000000000000000000000000000081526004016107d790613b6c565b60405180910390fd5b6107f467334a78a50bc3a2de60c01b61313e565b61080867a00b5a303e6779c760c01b61313e565b61081c678fbaa3b3dc1b8a9c60c01b61313e565b60008787600081811061083257610831613b8c565b5b905060200201602081019061084791906136a1565b905061085d678433967253b4394160c01b61313e565b6108716772cade0c073a287d60c01b61313e565b60008888600181811061088757610886613b8c565b5b905060200201602081019061089c91906136a1565b90506108b26777399bd725a48ce960c01b61313e565b6108c6678c46d701fe48a32660c01b61313e565b6108da67ca844cf6015019e160c01b61313e565b826000015173ffffffffffffffffffffffffffffffffffffffff168273ffffffffffffffffffffffffffffffffffffffff161480156109485750826020015173ffffffffffffffffffffffffffffffffffffffff168173ffffffffffffffffffffffffffffffffffffffff16145b801561096457506109636729005315557d246060c01b613187565b5b806109f55750826020015173ffffffffffffffffffffffffffffffffffffffff168273ffffffffffffffffffffffffffffffffffffffff161480156109d85750826000015173ffffffffffffffffffffffffffffffffffffffff168173ffffffffffffffffffffffffffffffffffffffff16145b80156109f457506109f3673831fbb186ed94e160c01b613187565b5b5b610a34576040517f08c379a0000000000000000000000000000000000000000000000000000000008152600401610a2b90613c07565b60405180910390fd5b610a48676f0f0112be73429460c01b61313e565b610a5c674b2b6248043d8b2260c01b61313e565b610a70677ccddece99bb0aa560c01b61313e565b8173ffffffffffffffffffffffffffffffffffffffff166323b872dd33308e6040518463ffffffff1660e01b8152600401610aad93929190613c27565b6020604051808303816000875af1158015610acc573d6000803e3d6000fd5b505050506040513d601f19601f82011682018060405250810190610af09190613c96565b50610b05676ee6aa65ee99bd7260c01b61313e565b610b19673ccb938a354aa0e460c01b61313e565b6000836000015173ffffffffffffffffffffffffffffffffffffffff168373ffffffffffffffffffffffffffffffffffffffff16149050610b64676a17b3c96a36ca9160c01b61313e565b610b78678c98d620b19f7d9360c01b61313e565b60008180610b965750610b9567f10ec88f3db6526d60c01b613192565b5b8015610bb25750610bb167ba276b7660d1ade460c01b613187565b5b610bc0578460600151610bc6565b84604001515b9050610bdc676decffd7d47b160060c01b61313e565b610bf067bff0c93a47fb7d3d60c01b61313e565b60008280610c0e5750610c0d6795897f4ad73c5bd760c01b613192565b5b8015610c2a5750610c2967e4b7377ad58860a260c01b613187565b5b610c38578560400151610c3e565b85606001515b9050610c5467b1f609d159fa0b1e60c01b61313e565b610c6867721fc7ff0708496560c01b61313e565b610c7c67ad4fdc27e5bec3b160c01b61313e565b600082118015610c8c5750600081115b610ccb576040517f08c379a0000000000000000000000000000000000000000000000000000000008152600401610cc290613d0f565b60405180910390fd5b610cdf67586a5ba48ea123fe60c01b61313e565b610cf367e7cf746190f4f27460c01b61313e565b610d07673976a56bb1bfc73a60c01b61313e565b6000610d148f8484610267565b9050610d2a676cd1c4d9fc4094e060c01b61313e565b610d3e67fe550fdc6536a0e160c01b61313e565b610d52678e53a4b896a8b2cd60c01b61313e565b8d811015610d95576040517f08c379a0000000000000000000000000000000000000000000000000000000008152600401610d8c90613d7b565b60405180910390fd5b610da967a9669a89dcc7fcc360c01b61313e565b610dbd67db9193619ce016f760c01b61313e565b610dd167c5b383047eebf21f60c01b61313e565b8315610e3c57610deb67e45ee3acfb1201a560c01b61313e565b610dff67f3d5bf254d4df1b260c01b61313e565b8e83610e0b9190613997565b600381905550610e25670bb658bfc9edabee60c01b61313e565b8082610e319190613d9b565b600481905550610e9d565b610e5067ab68649daef484f560c01b61313e565b610e6467dea62fadeb5a081460c01b61313e565b8e83610e709190613997565b600481905550610e8a673413028180c3991e60c01b61313e565b8082610e969190613d9b565b6003819055505b610eb16750c49667865ba16e60c01b61313e565b610ec567797c1fcd810969f760c01b61313e565b8473ffffffffffffffffffffffffffffffffffffffff1663a9059cbb8c836040518363ffffffff1660e01b8152600401610f00929190613dcf565b6020604051808303816000875af1158015610f1f573d6000803e3d6000fd5b505050506040513d601f19601f82011682018060405250810190610f439190613c96565b50610f5867f76c75eff281e6fc60c01b61313e565b610f6c670dffa406ab0516aa60c01b61313e565b8473ffffffffffffffffffffffffffffffffffffffff168673ffffffffffffffffffffffffffffffffffffffff163373ffffffffffffffffffffffffffffffffffffffff167f8d305eb0dd4191c0e7e56004355dbcb1312a9d8c9b2f8ec942a31c9c3e443e9d42604051610fe0919061341f565b60405180910390a4610ffc67f495f5de9123617060c01b61313e565b600267ffffffffffffffff81111561101757611016613df8565b5b6040519080825280602002602001820160405280156110455781602001602082028036833780820191505090505b50985061105c674e895bd640311b8960c01b61313e565b8e8960008151811061107157611070613b8c565b5b60200260200101818152505061109167a849cbf9fb8e692e60c01b61313e565b80896001815181106110a6576110a5613b8c565b5b60200260200101818152505050505050505050506110c2613199565b9695505050505050565b60035481565b60045481565b60066020528060005260406000206000915090505481565b600061110667fced321876328c7c60c01b61313e565b61111a676be1d019458592fe60c01b61313e565b61112e678eccca758e7b8e9160c01b61313e565b611142672730e011cffa37cd60c01b61313e565b600073ffffffffffffffffffffffffffffffffffffffff168373ffffffffffffffffffffffffffffffffffffffff16141580156111ac5750600073ffffffffffffffffffffffffffffffffffffffff168273ffffffffffffffffffffffffffffffffffffffff1614155b6111eb576040517f08c379a00000000000000000000000000000000000000000000000000000000081526004016111e290613e73565b60405180910390fd5b6111ff67c4c8c92ab21ea54960c01b61313e565b6112136792b2bde78c012e6e60c01b61313e565b61122767ea2836d36c0319e660c01b61313e565b61123b67872831a9af6e774260c01b61313e565b600160009054906101000a900473ffffffffffffffffffffffffffffffffffffffff1673ffffffffffffffffffffffffffffffffffffffff168373ffffffffffffffffffffffffffffffffffffffff161480156112e55750600260009054906101000a900473ffffffffffffffffffffffffffffffffffffffff1673ffffffffffffffffffffffffffffffffffffffff168273ffffffffffffffffffffffffffffffffffffffff16145b80156113015750611300677aff136fbfc8cf9d60c01b613187565b5b806113ce5750600260009054906101000a900473ffffffffffffffffffffffffffffffffffffffff1673ffffffffffffffffffffffffffffffffffffffff168373ffffffffffffffffffffffffffffffffffffffff161480156113b15750600160009054906101000a900473ffffffffffffffffffffffffffffffffffffffff1673ffffffffffffffffffffffffffffffffffffffff168273ffffffffffffffffffffffffffffffffffffffff16145b80156113cd57506113cc67ff4f69e636d0112460c01b613187565b5b5b61140d576040517f08c379a000000000000000000000000000000000000000000000000000000000815260040161140490613c07565b60405180910390fd5b611421671cd58b3d78e1887360c01b61313e565b61143567bf3b5613f7009d0c60c01b61313e565b61144967069166b24063ea6b60c01b61313e565b600060035414801561146b575061146a675994e10c186d75d660c01b613187565b5b80611494575060006004541480156114935750611492679f0375e5aba2d3c760c01b613187565b5b5b156114ca576114ad67b34bea9972a7761e60c01b61313e565b6114c1671807a82bc68fc12860c01b61313e565b60009050611690565b6114de677a80c4ab30b8b0a360c01b61313e565b6114f2677dc6a8e2fe9c8fe460c01b61313e565b611506671421bb1f35646ad060c01b61313e565b6000600160009054906101000a900473ffffffffffffffffffffffffffffffffffffffff1673ffffffffffffffffffffffffffffffffffffffff168473ffffffffffffffffffffffffffffffffffffffff1614905061156f6773026caeb0154eb060c01b61313e565b611583677171c157c9fad8f360c01b61313e565b600081806115a157506115a067679a514106b2f70c60c01b613192565b5b80156115bd57506115bc675d4874f5e504d27960c01b613187565b5b6115c9576004546115cd565b6003545b90506115e367ec8fb3cccb99e08660c01b61313e565b6115f7678db7b1a17ba90cb860c01b61313e565b600082806116155750611614675b6496759dd97dc260c01b613192565b5b8015611631575061163067ff013118787da19460c01b613187565b5b61163d57600354611641565b6004545b9050611657677214042bd5d3e65060c01b61313e565b61166b67b9a6c0dec00c80b260c01b61313e565b81670de0b6b3a76400008261168091906138f5565b61168a9190613966565b93505050505b92915050565b6000806116ad671d4564180f465bf460c01b61313e565b6116b5613141565b6116c967fc39d81eb31ffaf560c01b61313e565b6116dd67e185d87d6866fd6e60c01b61313e565b826116f267e283b568588d440460c01b61313e565b6117066776cf1b3fbec898c760c01b61313e565b61171a670e4d2c66caa7580c60c01b61313e565b61172e67d5c3866c28c80d8860c01b61313e565b80421115611771576040517f08c379a000000000000000000000000000000000000000000000000000000000815260040161176890613a28565b60405180910390fd5b61178567cdd570e15fcebf7460c01b61313e565b61179967c4ca57030108dad160c01b61313e565b6117ad6750c2e62cb242be3860c01b61313e565b6117c1675f75a666b7968c5760c01b61313e565b6117d567f133dcc1b9e60f2360c01b61313e565b6117e96776a84f830ef73a9960c01b61313e565b60006040518060a00160405280600160009054906101000a900473ffffffffffffffffffffffffffffffffffffffff1673ffffffffffffffffffffffffffffffffffffffff168152602001600260009054906101000a900473ffffffffffffffffffffffffffffffffffffffff1673ffffffffffffffffffffffffffffffffffffffff16815260200160035481526020016004548152602001600554815250905061189e67bb10bb71adc8719560c01b61313e565b6118b267f5f45fb07dd1a24660c01b61313e565b6118c667f70d7bdddc77092360c01b61313e565b806000015173ffffffffffffffffffffffffffffffffffffffff168b73ffffffffffffffffffffffffffffffffffffffff161480156119345750806020015173ffffffffffffffffffffffffffffffffffffffff168a73ffffffffffffffffffffffffffffffffffffffff16145b8015611950575061194f672d0aa1f4b60f707e60c01b613187565b5b806119e15750806020015173ffffffffffffffffffffffffffffffffffffffff168b73ffffffffffffffffffffffffffffffffffffffff161480156119c45750806000015173ffffffffffffffffffffffffffffffffffffffff168a73ffffffffffffffffffffffffffffffffffffffff16145b80156119e057506119df6786a53e7af3bfce2c60c01b613187565b5b5b611a20576040517f08c379a0000000000000000000000000000000000000000000000000000000008152600401611a1790613c07565b60405180910390fd5b611a3467099b68f2750e2fa860c01b61313e565b611a4867a972498fb5fdd0c360c01b61313e565b611a5c67cee5f3651e1e1bc560c01b61313e565b611a706788f1db1ef6b22c9960c01b61313e565b600073ffffffffffffffffffffffffffffffffffffffff168673ffffffffffffffffffffffffffffffffffffffff1603611adf576040517f08c379a0000000000000000000000000000000000000000000000000000000008152600401611ad690613b00565b60405180910390fd5b611af367e5e39a89e2b2ce5460c01b61313e565b611b076734f8a27ba33d647860c01b61313e565b611b1b677c81f92fd69651f960c01b61313e565b611b2f67022e5ace88bfd5ab60c01b61313e565b60008911611b72576040517f08c379a0000000000000000000000000000000000000000000000000000000008152600401611b6990613edf565b60405180910390fd5b611b86671d2f99367d4507aa60c01b61313e565b611b9a67ad33773d4a9df5f860c01b61313e565b611bad667c74f4a8767a7860c01b61313e565b6000816000015173ffffffffffffffffffffffffffffffffffffffff168c73ffffffffffffffffffffffffffffffffffffffff16149050611bf867a76fbd57d09c017d60c01b61313e565b611c0c67664d086f9c8750c060c01b61313e565b60008180611c2a5750611c29676869e28900119c2860c01b613192565b5b8015611c465750611c4567da7bbb6a414c12af60c01b613187565b5b611c54578260600151611c5a565b82604001515b9050611c706778be5cf52b320c1160c01b61313e565b611c8467e469f8f4c33c596a60c01b61313e565b60008280611ca25750611ca1674f2bb6ad324f908260c01b613192565b5b8015611cbe5750611cbd679fac2426aa89c91a60c01b613187565b5b611ccc578360400151611cd2565b83606001515b9050611ce86784a28e4f44eb270560c01b61313e565b611cfc672f649be3c9edff1160c01b61313e565b6000600660003373ffffffffffffffffffffffffffffffffffffffff1673ffffffffffffffffffffffffffffffffffffffff168152602001908152602001600020549050611d54678447d0e90652abbe60c01b61313e565b611d6867653807e7b14614eb60c01b61313e565b611d7c67804b69df6265ae1760c01b61313e565b8c811015611dbf576040517f08c379a0000000000000000000000000000000000000000000000000000000008152600401611db690613f4b565b60405180910390fd5b611dd367b45593f2e78b335b60c01b61313e565b611de7672113815f4394ea7f60c01b61313e565b8460800151838e611df891906138f5565b611e029190613966565b9750611e18672e54aefafd0fed3760c01b61313e565b8460800151828e611e2991906138f5565b611e339190613966565b9650611e4967d9ae356c89a03f1e60c01b61313e565b611e5d6771cd5634e242cc6c60c01b61313e565b611e71675362be929d77ea6260c01b61313e565b8b881015611eb4576040517f08c379a0000000000000000000000000000000000000000000000000000000008152600401611eab90613fb7565b60405180910390fd5b611ec867e539ec2b43bcad5c60c01b61313e565b611edc67174690bf2a6906cc60c01b61313e565b611ef0671af41c9639f04e4b60c01b61313e565b611f0467263cc5ba8bca8d2b60c01b61313e565b8a871015611f47576040517f08c379a0000000000000000000000000000000000000000000000000000000008152600401611f3e90614023565b60405180910390fd5b611f5b6796ba9bc2bbabe65360c01b61313e565b611f6f67af2981cde235babf60c01b61313e565b8c60056000828254611f819190613d9b565b92505081905550611f9c6723a399a42175752760c01b61313e565b8c81611fa89190613d9b565b600660003373ffffffffffffffffffffffffffffffffffffffff1673ffffffffffffffffffffffffffffffffffffffff16815260200190815260200160002081905550611fff673ee0b3af069b2e2560c01b61313e565b612013677639132d649da87960c01b61313e565b831561208c5761202d677c716d1d1fcdae0d60c01b61313e565b61204167b57b45013a9eda9360c01b61313e565b87600360008282546120539190613d9b565b9250508190555061206e675cd2173fbf6de92c60c01b61313e565b86600460008282546120809190613d9b565b925050819055506120fb565b6120a06772030f6c0a51989060c01b61313e565b6120b467fa6acd02da7a906760c01b61313e565b86600360008282546120c69190613d9b565b925050819055506120e167cdfd0d0a49a620a160c01b61313e565b87600460008282546120f39190613d9b565b925050819055505b61210f67fbb010cc8f46d98e60c01b61313e565b61212367c84b6751e9d681ff60c01b61313e565b8e73ffffffffffffffffffffffffffffffffffffffff1663a9059cbb8b8a6040518363ffffffff1660e01b815260040161215e929190613dcf565b6020604051808303816000875af115801561217d573d6000803e3d6000fd5b505050506040513d601f19601f820116820180604052508101906121a19190613c96565b506121b6678cebff49ed26b3da60c01b61313e565b6121ca677ac199779ebe852860c01b61313e565b8d73ffffffffffffffffffffffffffffffffffffffff1663a9059cbb8b896040518363ffffffff1660e01b8152600401612205929190613dcf565b6020604051808303816000875af1158015612224573d6000803e3d6000fd5b505050506040513d601f19601f820116820180604052508101906122489190613c96565b5061225d67adc9267637a51fc660c01b61313e565b6122716787f37191982a3b5e60c01b61313e565b3373ffffffffffffffffffffffffffffffffffffffff167f1dc8bb69df2b8e91fbdcbfcf93d951b3f0000f085a95fe3f7946d6161439245d8989426040516122bb9392919061388f565b60405180910390a25050505050506122d1613199565b97509795505050505050565b600260009054906101000a900473ffffffffffffffffffffffffffffffffffffffff1681565b600080600061231c6750a4a134d2e230a960c01b61313e565b612324613141565b6123386707362a9c9d06162360c01b61313e565b61234c672bf30a00ea75853460c01b61313e565b8361236167e283b568588d440460c01b61313e565b6123756776cf1b3fbec898c760c01b61313e565b612389670e4d2c66caa7580c60c01b61313e565b61239d67d5c3866c28c80d8860c01b61313e565b804211156123e0576040517f08c379a00000000000000000000000000000000000000000000000000000000081526004016123d790613a28565b60405180910390fd5b6123f467cdd570e15fcebf7460c01b61313e565b61240867c4ca57030108dad160c01b61313e565b61241c6783fa9f35879c259560c01b61313e565b612430676c6b43bb9bb77a7060c01b61313e565b612444670dbf0cde99141c2760c01b61313e565b612458671f811ef4edfc506960c01b61313e565b60006040518060a00160405280600160009054906101000a900473ffffffffffffffffffffffffffffffffffffffff1673ffffffffffffffffffffffffffffffffffffffff168152602001600260009054906101000a900473ffffffffffffffffffffffffffffffffffffffff1673ffffffffffffffffffffffffffffffffffffffff16815260200160035481526020016004548152602001600554815250905061250d67c138260182b6bb9460c01b61313e565b612521671641729e4174eca760c01b61313e565b61253567a414debd75e6360a60c01b61313e565b806000015173ffffffffffffffffffffffffffffffffffffffff168d73ffffffffffffffffffffffffffffffffffffffff161480156125a35750806020015173ffffffffffffffffffffffffffffffffffffffff168c73ffffffffffffffffffffffffffffffffffffffff16145b80156125bf57506125be673dde8bb33fa239d060c01b613187565b5b806126505750806020015173ffffffffffffffffffffffffffffffffffffffff168d73ffffffffffffffffffffffffffffffffffffffff161480156126335750806000015173ffffffffffffffffffffffffffffffffffffffff168c73ffffffffffffffffffffffffffffffffffffffff16145b801561264f575061264e6762e9fada601b3e5a60c01b613187565b5b5b61268f576040517f08c379a000000000000000000000000000000000000000000000000000000000815260040161268690613c07565b60405180910390fd5b6126a36762e90195a60fa7ae60c01b61313e565b6126b767479010c8739b7c4960c01b61313e565b6126cb67b9c003368a5d21b060c01b61313e565b6126df670a093aa9487ac7f060c01b61313e565b600073ffffffffffffffffffffffffffffffffffffffff168773ffffffffffffffffffffffffffffffffffffffff160361274e576040517f08c379a000000000000000000000000000000000000000000000000000000000815260040161274590613b00565b60405180910390fd5b61276267c4eac41e53d489bb60c01b61313e565b61277667e01577330d886fc460c01b61313e565b61278a6762cb5a909d8245e760c01b61313e565b61279e67511355647c3cac8b60c01b61313e565b60008b1180156127ae575060008a115b6127ed576040517f08c379a00000000000000000000000000000000000000000000000000000000081526004016127e49061408f565b60405180910390fd5b61280167083824463b1254ce60c01b61313e565b612815677b570a0b963cbb7660c01b61313e565b612829671a844d1e8ce21c4960c01b61313e565b6000816000015173ffffffffffffffffffffffffffffffffffffffff168e73ffffffffffffffffffffffffffffffffffffffff1614905061287467560b019d502458de60c01b61313e565b6128886718d0c85d88559c9960c01b61313e565b600081806128a657506128a567d9f3ba4c6d988ba560c01b613192565b5b80156128c257506128c1672c06761a4885d77d60c01b613187565b5b6128d05782606001516128d6565b82604001515b90506128ec6788d4b124b06ae14060c01b61313e565b612900673bae294c456ac81260c01b61313e565b6000828061291e575061291d671e82d34c43faaf0b60c01b613192565b5b801561293a5750612939677c9e60539774936260c01b613187565b5b61294857836040015161294e565b83606001515b905061296467c84804a51d7f029b60c01b61313e565b8d975061297b67abe3b4f94ba2e87560c01b61313e565b8c965061299267e9857450e24cf77760c01b61313e565b6129a667836da5433fe7828c60c01b61313e565b6000846080015103612a88576129c6672f877112ed71303360c01b61313e565b6129da671f322ad5672faeb060c01b61313e565b6129ee87896129e991906138f5565b6131a3565b9550612a046716c30165588c333460c01b61313e565b612a1867451baeed32a3b46d60c01b61313e565b612a2c6794f627ddac7bec8b60c01b61313e565b60008611612a6f576040517f08c379a0000000000000000000000000000000000000000000000000000000008152600401612a66906140fb565b60405180910390fd5b612a83678084c5a7d4df9db560c01b61313e565b612dae565b612a9c67325fc950cb21889e60c01b61313e565b612ab06708e1270d158abb6660c01b61313e565b612ac467a828336309f5d38860c01b61313e565b60008189612ad291906138f5565b9050612ae867970796b3cb1319e860c01b61313e565b612afc67e2fb5992e42b29a660c01b61313e565b60008389612b0a91906138f5565b9050612b2067eb895d13fe8eb65660c01b61313e565b612b346705759fe767d0763160c01b61313e565b612b4867cbe43de3532869f660c01b61313e565b808214612b8a576040517f08c379a0000000000000000000000000000000000000000000000000000000008152600401612b8190614167565b60405180910390fd5b612b9e67253c8868e8ec9af260c01b61313e565b612bb267768a6fdbd68d8f1f60c01b61313e565b612bc667e3978c580e9a924060c01b61313e565b612bda6717a27d438c46ae0360c01b61313e565b8d8a1015612c1d576040517f08c379a0000000000000000000000000000000000000000000000000000000008152600401612c1490613fb7565b60405180910390fd5b612c31671659b1eb22d6292a60c01b61313e565b612c45677664107a515c724460c01b61313e565b612c5967858cb21f9f2aeaf760c01b61313e565b612c6d674d9eba963b007d9560c01b61313e565b8c891015612cb0576040517f08c379a0000000000000000000000000000000000000000000000000000000008152600401612ca790614023565b60405180910390fd5b612cc467fe1f19a2c7fb2a5760c01b61313e565b612cd86743cbe1b10785d0dd60c01b61313e565b612d168487608001518c612cec91906138f5565b612cf69190613966565b8488608001518c612d0791906138f5565b612d119190613966565b613340565b9750612d2c67e0b12b92a5e57ce360c01b61313e565b612d40678e4cc82e289d0ee760c01b61313e565b612d5467a8df01f6761b08f660c01b61313e565b60008811612d97576040517f08c379a0000000000000000000000000000000000000000000000000000000008152600401612d8e906141d3565b60405180910390fd5b612dab67f783c82e5fc10fac60c01b61313e565b50505b612dc267fd8b36883f04dcc760c01b61313e565b612dd667ecd6644b4dd722a660c01b61313e565b8f73ffffffffffffffffffffffffffffffffffffffff166323b872dd33308b6040518463ffffffff1660e01b8152600401612e1393929190613c27565b6020604051808303816000875af1158015612e32573d6000803e3d6000fd5b505050506040513d601f19601f82011682018060405250810190612e569190613c96565b50612e6b671b034afb09c9544760c01b61313e565b612e7f670b6d8cebdf397cfb60c01b61313e565b8e73ffffffffffffffffffffffffffffffffffffffff166323b872dd33308a6040518463ffffffff1660e01b8152600401612ebc93929190613c27565b6020604051808303816000875af1158015612edb573d6000803e3d6000fd5b505050506040513d601f19601f82011682018060405250810190612eff9190613c96565b50612f14672790a38629dbd2d060c01b61313e565b612f2867563e105d0ce11e3d60c01b61313e565b8215612fa157612f42677086d313ebbd1fc060c01b61313e565b612f5667272b942b8e725aed60c01b61313e565b8760036000828254612f689190613997565b92505081905550612f8367462f4396ef6d1aea60c01b61313e565b8660046000828254612f959190613997565b92505081905550613010565b612fb567980c9225539bf76e60c01b61313e565b612fc9674b5f9cb0ddf1543660c01b61313e565b8660036000828254612fdb9190613997565b92505081905550612ff667079131c276680e2d60c01b61313e565b87600460008282546130089190613997565b925050819055505b6130246740b13a833f50a95660c01b61313e565b85600560008282546130369190613997565b92505081905550613051675ba7fb1e0c4ea83460c01b61313e565b85600660008c73ffffffffffffffffffffffffffffffffffffffff1673ffffffffffffffffffffffffffffffffffffffff16815260200190815260200160002060008282546130a09190613997565b925050819055506130bb677e0a388cda3966e660c01b61313e565b6130cf67e6cb3225b2c3c55a60c01b61313e565b3373ffffffffffffffffffffffffffffffffffffffff167f08d7621a09a86934f387f650007fa17f2413759ca5f2ae0681161b371583a5f58989894260405161311b94939291906141f3565b60405180910390a25050505050613130613199565b985098509895505050505050565b50565b60026000540361317d576040517f3ee5aeb500000000000000000000000000000000000000000000000000000000815260040160405180910390fd5b6002600081905550565b600060019050919050565b6000919050565b6001600081905550565b6000600182116131b55781905061333b565b600082905060006001905070010000000000000000000000000000000082106131e757608082901c9150604081901b90505b68010000000000000000821061320657604082901c9150602081901b90505b640100000000821061322157602082901c9150601081901b90505b62010000821061323a57601082901c9150600881901b90505b610100821061325257600882901c9150600481901b90505b6010821061326957600482901c9150600281901b90505b6004821061327957600181901b90505b600181600302901c9050600181858161329557613294613937565b5b048201901c905060018185816132ae576132ad613937565b5b048201901c905060018185816132c7576132c6613937565b5b048201901c905060018185816132e0576132df613937565b5b048201901c905060018185816132f9576132f8613937565b5b048201901c9050600181858161331257613311613937565b5b048201901c905061333481858161332c5761332b613937565b5b048211613357565b8103925050505b919050565b600061334f8284108484613363565b905092915050565b60008115159050919050565b600061336e84613357565b82841802821890509392505050565b600080fd5b600080fd5b6000819050919050565b61339a81613387565b81146133a557600080fd5b50565b6000813590506133b781613391565b92915050565b6000806000606084860312156133d6576133d561337d565b5b60006133e4868287016133a8565b93505060206133f5868287016133a8565b9250506040613406868287016133a8565b9150509250925092565b61341981613387565b82525050565b60006020820190506134346000830184613410565b92915050565b600073ffffffffffffffffffffffffffffffffffffffff82169050919050565b60006134658261343a565b9050919050565b6134758161345a565b82525050565b6000602082019050613490600083018461346c565b92915050565b600080fd5b600080fd5b600080fd5b60008083601f8401126134bb576134ba613496565b5b8235905067ffffffffffffffff8111156134d8576134d761349b565b5b6020830191508360208202830111156134f4576134f36134a0565b5b9250929050565b6135048161345a565b811461350f57600080fd5b50565b600081359050613521816134fb565b92915050565b60008060008060008060a087890312156135445761354361337d565b5b600061355289828a016133a8565b965050602061356389828a016133a8565b955050604087013567ffffffffffffffff81111561358457613583613382565b5b61359089828a016134a5565b945094505060606135a389828a01613512565b92505060806135b489828a016133a8565b9150509295509295509295565b600081519050919050565b600082825260208201905092915050565b6000819050602082019050919050565b6135f681613387565b82525050565b600061360883836135ed565b60208301905092915050565b6000602082019050919050565b600061362c826135c1565b61363681856135cc565b9350613641836135dd565b8060005b8381101561367257815161365988826135fc565b975061366483613614565b925050600181019050613645565b5085935050505092915050565b600060208201905081810360008301526136998184613621565b905092915050565b6000602082840312156136b7576136b661337d565b5b60006136c584828501613512565b91505092915050565b600080604083850312156136e5576136e461337d565b5b60006136f385828601613512565b925050602061370485828601613512565b9150509250929050565b600080600080600080600060e0888a03121561372d5761372c61337d565b5b600061373b8a828b01613512565b975050602061374c8a828b01613512565b965050604061375d8a828b016133a8565b955050606061376e8a828b016133a8565b945050608061377f8a828b016133a8565b93505060a06137908a828b01613512565b92505060c06137a18a828b016133a8565b91505092959891949750929550565b60006040820190506137c56000830185613410565b6137d26020830184613410565b9392505050565b600080600080600080600080610100898b0312156137fa576137f961337d565b5b60006138088b828c01613512565b98505060206138198b828c01613512565b975050604061382a8b828c016133a8565b965050606061383b8b828c016133a8565b955050608061384c8b828c016133a8565b94505060a061385d8b828c016133a8565b93505060c061386e8b828c01613512565b92505060e061387f8b828c016133a8565b9150509295985092959890939650565b60006060820190506138a46000830186613410565b6138b16020830185613410565b6138be6040830184613410565b949350505050565b7f4e487b7100000000000000000000000000000000000000000000000000000000600052601160045260246000fd5b600061390082613387565b915061390b83613387565b925082820261391981613387565b915082820484148315176139305761392f6138c6565b5b5092915050565b7f4e487b7100000000000000000000000000000000000000000000000000000000600052601260045260246000fd5b600061397182613387565b915061397c83613387565b92508261398c5761398b613937565b5b828204905092915050565b60006139a282613387565b91506139ad83613387565b92508282019050808211156139c5576139c46138c6565b5b92915050565b600082825260208201905092915050565b7f5472616e73616374696f6e206578706972656400000000000000000000000000600082015250565b6000613a126013836139cb565b9150613a1d826139dc565b602082019050919050565b60006020820190508181036000830152613a4181613a05565b9050919050565b7f4f6e6c79203120686f7020616c6c6f7765640000000000000000000000000000600082015250565b6000613a7e6012836139cb565b9150613a8982613a48565b602082019050919050565b60006020820190508181036000830152613aad81613a71565b9050919050565b7f496e76616c69642027746f272061646472657373000000000000000000000000600082015250565b6000613aea6014836139cb565b9150613af582613ab4565b602082019050919050565b60006020820190508181036000830152613b1981613add565b9050919050565b7f496e707574206d757374206265203e2030000000000000000000000000000000600082015250565b6000613b566011836139cb565b9150613b6182613b20565b602082019050919050565b60006020820190508181036000830152613b8581613b49565b9050919050565b7f4e487b7100000000000000000000000000000000000000000000000000000000600052603260045260246000fd5b7f496e76616c696420746f6b656e00000000000000000000000000000000000000600082015250565b6000613bf1600d836139cb565b9150613bfc82613bbb565b602082019050919050565b60006020820190508181036000830152613c2081613be4565b9050919050565b6000606082019050613c3c600083018661346c565b613c49602083018561346c565b613c566040830184613410565b949350505050565b60008115159050919050565b613c7381613c5e565b8114613c7e57600080fd5b50565b600081519050613c9081613c6a565b92915050565b600060208284031215613cac57613cab61337d565b5b6000613cba84828501613c81565b91505092915050565b7f496e73756666696369656e742072657365727665730000000000000000000000600082015250565b6000613cf96015836139cb565b9150613d0482613cc3565b602082019050919050565b60006020820190508181036000830152613d2881613cec565b9050919050565b7f45786365737369766520736c6970706167650000000000000000000000000000600082015250565b6000613d656012836139cb565b9150613d7082613d2f565b602082019050919050565b60006020820190508181036000830152613d9481613d58565b9050919050565b6000613da682613387565b9150613db183613387565b9250828203905081811115613dc957613dc86138c6565b5b92915050565b6000604082019050613de4600083018561346c565b613df16020830184613410565b9392505050565b7f4e487b7100000000000000000000000000000000000000000000000000000000600052604160045260246000fd5b7f496e76616c696420746f6b656e73000000000000000000000000000000000000600082015250565b6000613e5d600e836139cb565b9150613e6882613e27565b602082019050919050565b60006020820190508181036000830152613e8c81613e50565b9050919050565b7f5a65726f206c6971756964697479206275726e00000000000000000000000000600082015250565b6000613ec96013836139cb565b9150613ed482613e93565b602082019050919050565b60006020820190508181036000830152613ef881613ebc565b9050919050565b7f496e73756666696369656e74206c697175696469747900000000000000000000600082015250565b6000613f356016836139cb565b9150613f4082613eff565b602082019050919050565b60006020820190508181036000830152613f6481613f28565b9050919050565b7f536c697070616765204120746f6f206869676800000000000000000000000000600082015250565b6000613fa16013836139cb565b9150613fac82613f6b565b602082019050919050565b60006020820190508181036000830152613fd081613f94565b9050919050565b7f536c697070616765204220746f6f206869676800000000000000000000000000600082015250565b600061400d6013836139cb565b915061401882613fd7565b602082019050919050565b6000602082019050818103600083015261403c81614000565b9050919050565b7f5a65726f206c6971756964697479000000000000000000000000000000000000600082015250565b6000614079600e836139cb565b915061408482614043565b602082019050919050565b600060208201905081810360008301526140a88161406c565b9050919050565b7f4c6971756964697479206d757374206265203e20300000000000000000000000600082015250565b60006140e56015836139cb565b91506140f0826140af565b602082019050919050565b60006020820190508181036000830152614114816140d8565b9050919050565b7f496e76616c69642070726f706f7274696f6e7300000000000000000000000000600082015250565b60006141516013836139cb565b915061415c8261411b565b602082019050919050565b6000602082019050818103600083015261418081614144565b9050919050565b7f5a65726f206c6971756964697479206e6f7420616c6c6f776564000000000000600082015250565b60006141bd601a836139cb565b91506141c882614187565b602082019050919050565b600060208201905081810360008301526141ec816141b0565b9050919050565b60006080820190506142086000830187613410565b6142156020830186613410565b6142226040830185613410565b61422f6060830184613410565b9594505050505056fea2646970667358221220a2e9ed933ed509075d6a53de871140d1af703e30ff9efe63b7cc7fbfc73f263964736f6c63430008140033",
  "linkReferences": {},
  "deployedLinkReferences": {}
}