{"contracts/SimpleSwap.sol":{"SimpleSwap":{"abi":[{"inputs":[{"internalType":"address","name":"_tokenA","type":"address"},{"internalType":"address","name":"_tokenB","type":"address"}],"stateMutability":"nonpayable","type":"constructor"},{"inputs":[],"name":"ReentrancyGuardReentrantCall","type":"error"},{"anonymous":false,"inputs":[{"indexed":true,"internalType":"address","name":"provider","type":"address"},{"indexed":false,"internalType":"uint256","name":"amountA","type":"uint256"},{"indexed":false,"internalType":"uint256","name":"amountB","type":"uint256"},{"indexed":false,"internalType":"uint256","name":"liquidityMinted","type":"uint256"},{"indexed":false,"internalType":"uint256","name":"timestamp","type":"uint256"}],"name":"LiquidityAdded","type":"event"},{"anonymous":false,"inputs":[{"indexed":true,"internalType":"address","name":"provider","type":"address"},{"indexed":false,"internalType":"uint256","name":"amountA","type":"uint256"},{"indexed":false,"internalType":"uint256","name":"amountB","type":"uint256"},{"indexed":false,"internalType":"uint256","name":"timestamp","type":"uint256"}],"name":"LiquidityRemoved","type":"event"},{"anonymous":false,"inputs":[{"indexed":true,"internalType":"address","name":"swapper","type":"address"},{"indexed":true,"internalType":"address","name":"tokenIn","type":"address"},{"indexed":true,"internalType":"address","name":"tokenOut","type":"address"},{"indexed":false,"internalType":"uint256","name":"timestamp","type":"uint256"}],"name":"TokensSwapped","type":"event"},{"inputs":[{"internalType":"address","name":"_tokenA","type":"address"},{"internalType":"address","name":"_tokenB","type":"address"},{"internalType":"uint256","name":"amountADesired","type":"uint256"},{"internalType":"uint256","name":"amountBDesired","type":"uint256"},{"internalType":"uint256","name":"amountAMin","type":"uint256"},{"internalType":"uint256","name":"amountBMin","type":"uint256"},{"internalType":"address","name":"to","type":"address"},{"internalType":"uint256","name":"deadline","type":"uint256"}],"name":"addLiquidity","outputs":[{"internalType":"uint256","name":"actualAmountA","type":"uint256"},{"internalType":"uint256","name":"actualAmountB","type":"uint256"},{"internalType":"uint256","name":"liquidity","type":"uint256"}],"stateMutability":"nonpayable","type":"function"},{"inputs":[{"internalType":"uint256","name":"amountIn","type":"uint256"},{"internalType":"uint256","name":"reserveIn","type":"uint256"},{"internalType":"uint256","name":"reserveOut","type":"uint256"}],"name":"getAmountOut","outputs":[{"internalType":"uint256","name":"amountOut","type":"uint256"}],"stateMutability":"pure","type":"function"},{"inputs":[{"internalType":"address","name":"_tokenA","type":"address"},{"internalType":"address","name":"_tokenB","type":"address"}],"name":"getPrice","outputs":[{"internalType":"uint256","name":"price","type":"uint256"}],"stateMutability":"view","type":"function"},{"inputs":[{"internalType":"address","name":"","type":"address"}],"name":"liquidityProvided","outputs":[{"internalType":"uint256","name":"","type":"uint256"}],"stateMutability":"view","type":"function"},{"inputs":[{"internalType":"address","name":"_tokenA","type":"address"},{"internalType":"address","name":"_tokenB","type":"address"},{"internalType":"uint256","name":"liquidityToBurn","type":"uint256"},{"internalType":"uint256","name":"amountAMin","type":"uint256"},{"internalType":"uint256","name":"amountBMin","type":"uint256"},{"internalType":"address","name":"to","type":"address"},{"internalType":"uint256","name":"deadline","type":"uint256"}],"name":"removeLiquidity","outputs":[{"internalType":"uint256","name":"amountAWithdrawn","type":"uint256"},{"internalType":"uint256","name":"amountBWithdrawn","type":"uint256"}],"stateMutability":"nonpayable","type":"function"},{"inputs":[],"name":"reserve0","outputs":[{"internalType":"uint256","name":"","type":"uint256"}],"stateMutability":"view","type":"function"},{"inputs":[],"name":"reserve1","outputs":[{"internalType":"uint256","name":"","type":"uint256"}],"stateMutability":"view","type":"function"},{"inputs":[{"internalType":"uint256","name":"amountIn","type":"uint256"},{"internalType":"uint256","name":"amountOutMin","type":"uint256"},{"internalType":"address[]","name":"path","type":"address[]"},{"internalType":"address","name":"to","type":"address"},{"internalType":"uint256","name":"deadline","type":"uint256"}],"name":"swapExactTokensForTokens","outputs":[{"internalType":"uint256[]","name":"amounts","type":"uint256[]"}],"stateMutability":"nonpayable","type":"function"},{"inputs":[],"name":"token0","outputs":[{"internalType":"address","name":"","type":"address"}],"stateMutability":"view","type":"function"},{"inputs":[],"name":"token1","outputs":[{"internalType":"address","name":"","type":"address"}],"stateMutability":"view","type":"function"},{"inputs":[],"name":"totalLiquidity","outputs":[{"internalType":"uint256","name":"","type":"uint256"}],"stateMutability":"view","type":"function"}],"evm":{"bytecode":{"linkReferences":{},"object":"60806040523480156200001157600080fd5b50604051620048a7380380620048a78339818101604052810190620000379190620004ed565b60016000819055506200005b677d03937f0b2f5d9460c01b6200048060201b60201c565b62000077670225612842f87e5560c01b6200048060201b60201c565b6200009367f82ba95219f4dd2060c01b6200048060201b60201c565b620000af673c81bd530f06ab0260c01b6200048060201b60201c565b600073ffffffffffffffffffffffffffffffffffffffff168273ffffffffffffffffffffffffffffffffffffffff16141580156200011a5750600073ffffffffffffffffffffffffffffffffffffffff168173ffffffffffffffffffffffffffffffffffffffff1614155b6200015c576040517f08c379a0000000000000000000000000000000000000000000000000000000008152600401620001539062000595565b60405180910390fd5b6200017867cc21452bbf111ca460c01b6200048060201b60201c565b6200019467e192406f40c998ed60c01b6200048060201b60201c565b620001b067642058b5ad39737660c01b6200048060201b60201c565b620001cc67dfb303e5092e7abd60c01b6200048060201b60201c565b8073ffffffffffffffffffffffffffffffffffffffff168273ffffffffffffffffffffffffffffffffffffffff16036200023d576040517f08c379a0000000000000000000000000000000000000000000000000000000008152600401620002349062000607565b60405180910390fd5b62000259675704f9fd283824a360c01b6200048060201b60201c565b620002756753e566ebc2b2bb2660c01b6200048060201b60201c565b6200029066ad1b84a5a4a22060c01b6200048060201b60201c565b8073ffffffffffffffffffffffffffffffffffffffff168273ffffffffffffffffffffffffffffffffffffffff161015620003a157620002e167a240784bd06a779e60c01b6200048060201b60201c565b620002fd67e9ad74229a77043b60c01b6200048060201b60201c565b81600160006101000a81548173ffffffffffffffffffffffffffffffffffffffff021916908373ffffffffffffffffffffffffffffffffffffffff1602179055506200035a67c9ad82d200931a5660c01b6200048060201b60201c565b80600260006101000a81548173ffffffffffffffffffffffffffffffffffffffff021916908373ffffffffffffffffffffffffffffffffffffffff16021790555062000478565b620003bd67577dd69b2f7a4a4460c01b6200048060201b60201c565b620003d9678a905b4eb7363eaa60c01b6200048060201b60201c565b80600160006101000a81548173ffffffffffffffffffffffffffffffffffffffff021916908373ffffffffffffffffffffffffffffffffffffffff160217905550620004366739efdb2e69953e7360c01b6200048060201b60201c565b81600260006101000a81548173ffffffffffffffffffffffffffffffffffffffff021916908373ffffffffffffffffffffffffffffffffffffffff1602179055505b505062000629565b50565b600080fd5b600073ffffffffffffffffffffffffffffffffffffffff82169050919050565b6000620004b58262000488565b9050919050565b620004c781620004a8565b8114620004d357600080fd5b50565b600081519050620004e781620004bc565b92915050565b6000806040838503121562000507576200050662000483565b5b60006200051785828601620004d6565b92505060206200052a85828601620004d6565b9150509250929050565b600082825260208201905092915050565b7f496e76616c696420746f6b656e20616464726573730000000000000000000000600082015250565b60006200057d60158362000534565b91506200058a8262000545565b602082019050919050565b60006020820190508181036000830152620005b0816200056e565b9050919050565b7f546f6b656e73206d75737420626520646966666572656e740000000000000000600082015250565b6000620005ef60188362000534565b9150620005fc82620005b7565b602082019050919050565b600060208201905081810360008301526200062281620005e0565b9050919050565b61426e80620006396000396000f3fe608060405234801561001057600080fd5b50600436106100a95760003560e01c80635a76f25e116100715780635a76f25e1461016857806365119f7214610186578063ac41865a146101b6578063baa2abde146101e6578063d21220a714610217578063e8e3370014610235576100a9565b8063054d50d4146100ae5780630dfe1681146100de57806315770f92146100fc57806338ed17391461011a578063443cb4bc1461014a575b600080fd5b6100c860048036038101906100c391906133bd565b610267565b6040516100d5919061341f565b60405180910390f35b6100e66103ed565b6040516100f3919061347b565b60405180910390f35b610104610413565b604051610111919061341f565b60405180910390f35b610134600480360381019061012f9190613527565b610419565b604051610141919061367f565b60405180910390f35b6101526110cc565b60405161015f919061341f565b60405180910390f35b6101706110d2565b60405161017d919061341f565b60405180910390f35b6101a0600480360381019061019b91906136a1565b6110d8565b6040516101ad919061341f565b60405180910390f35b6101d060048036038101906101cb91906136ce565b6110f0565b6040516101dd919061341f565b60405180910390f35b61020060048036038101906101fb919061370e565b611696565b60405161020e9291906137b0565b60405180910390f35b61021f6122dd565b60405161022c919061347b565b60405180910390f35b61024f600480360381019061024a91906137d9565b612303565b60405161025e9392919061388f565b60405180910390f35b600061027d6795b12941618f916a60c01b61313e565b61029167522654161a8849e760c01b61313e565b6102a567bcd7b12d562779c260c01b61313e565b60006103e86103e5866102b891906138f5565b6102c29190613966565b90506102d867dc041b774e71a82260c01b61313e565b6102ec67a84d9f00bd53291260c01b61313e565b600083826102fa91906138f5565b90506103106795086eaaa6d8c5a160c01b61313e565b61032467df0f3598a0b27f4b60c01b61313e565b600082866103329190613997565b905061034867e526c36d0aafda3460c01b61313e565b61035c6782c53d8b4d8eed9d60c01b61313e565b600081036103985761037867f4dd9768a025780260c01b61313e565b61038c67dcc35c919cfa910160c01b61313e565b600093505050506103e6565b6103ac67fa93c6f9da9bfa5660c01b61313e565b6103c067fe118c07d6fbaebb60c01b61313e565b6103d467059bc803201a1c6e60c01b61313e565b80826103e09190613966565b93505050505b9392505050565b600160009054906101000a900473ffffffffffffffffffffffffffffffffffffffff1681565b60055481565b606061042f673afe2856b2c7ee7c60c01b61313e565b610437613141565b61044b673ba56fb9773ac41c60c01b61313e565b61045f672ec246413f29e04260c01b61313e565b8161047467e283b568588d440460c01b61313e565b6104886776cf1b3fbec898c760c01b61313e565b61049c670e4d2c66caa7580c60c01b61313e565b6104b067d5c3866c28c80d8860c01b61313e565b804211156104f3576040517f08c379a00000000000000000000000000000000000000000000000000000000081526004016104ea90613a28565b60405180910390fd5b61050767cdd570e15fcebf7460c01b61313e565b61051b67c4ca57030108dad160c01b61313e565b61052f67c595dd4a9fbf185b60c01b61313e565b61054367de8ad8691336fb3260c01b61313e565b61055767b8e664b02a3c7bfa60c01b61313e565b61056b67b62ffe9643e590fc60c01b61313e565b60006040518060a00160405280600160009054906101000a900473ffffffffffffffffffffffffffffffffffffffff1673ffffffffffffffffffffffffffffffffffffffff168152602001600260009054906101000a900473ffffffffffffffffffffffffffffffffffffffff1673ffffffffffffffffffffffffffffffffffffffff16815260200160035481526020016004548152602001600554815250905061062067f4148257126a9c7e60c01b61313e565b610634678e7259f456abc9a260c01b61313e565b61064867a5c81f24a42734e260c01b61313e565b6002878790501461068e576040517f08c379a000000000000000000000000000000000000000000000000000000000815260040161068590613a94565b60405180910390fd5b6106a26718dc63a6777f552060c01b61313e565b6106b667e030cabd9450e8a360c01b61313e565b6106ca676b43c58c253ae75960c01b61313e565b6106de6767d4dacd9ea453f960c01b61313e565b600073ffffffffffffffffffffffffffffffffffffffff168573ffffffffffffffffffffffffffffffffffffffff160361074d576040517f08c379a000000000000000000000000000000000000000000000000000000000815260040161074490613b00565b60405180910390fd5b610761670d54daaf82e0a19c60c01b61313e565b61077567a49be89c884d501c60c01b61313e565b6107896722375f296d2b140c60c01b61313e565b61079d677ba98ad4edefe33160c01b61313e565b600089116107e0576040517f08c379a00000000000000000000000000000000000000000000000000000000081526004016107d790613b6c565b60405180910390fd5b6107f467334a78a50bc3a2de60c01b61313e565b61080867a00b5a303e6779c760c01b61313e565b61081c678fbaa3b3dc1b8a9c60c01b61313e565b60008787600081811061083257610831613b8c565b5b905060200201602081019061084791906136a1565b905061085d678433967253b4394160c01b61313e565b6108716772cade0c073a287d60c01b61313e565b60008888600181811061088757610886613b8c565b5b905060200201602081019061089c91906136a1565b90506108b26777399bd725a48ce960c01b61313e565b6108c6678c46d701fe48a32660c01b61313e565b6108da67ca844cf6015019e160c01b61313e565b826000015173ffffffffffffffffffffffffffffffffffffffff168273ffffffffffffffffffffffffffffffffffffffff161480156109485750826020015173ffffffffffffffffffffffffffffffffffffffff168173ffffffffffffffffffffffffffffffffffffffff16145b801561096457506109636729005315557d246060c01b613187565b5b806109f55750826020015173ffffffffffffffffffffffffffffffffffffffff168273ffffffffffffffffffffffffffffffffffffffff161480156109d85750826000015173ffffffffffffffffffffffffffffffffffffffff168173ffffffffffffffffffffffffffffffffffffffff16145b80156109f457506109f3673831fbb186ed94e160c01b613187565b5b5b610a34576040517f08c379a0000000000000000000000000000000000000000000000000000000008152600401610a2b90613c07565b60405180910390fd5b610a48676f0f0112be73429460c01b61313e565b610a5c674b2b6248043d8b2260c01b61313e565b610a70677ccddece99bb0aa560c01b61313e565b8173ffffffffffffffffffffffffffffffffffffffff166323b872dd33308e6040518463ffffffff1660e01b8152600401610aad93929190613c27565b6020604051808303816000875af1158015610acc573d6000803e3d6000fd5b505050506040513d601f19601f82011682018060405250810190610af09190613c96565b50610b05676ee6aa65ee99bd7260c01b61313e565b610b19673ccb938a354aa0e460c01b61313e565b6000836000015173ffffffffffffffffffffffffffffffffffffffff168373ffffffffffffffffffffffffffffffffffffffff16149050610b64676a17b3c96a36ca9160c01b61313e565b610b78678c98d620b19f7d9360c01b61313e565b60008180610b965750610b9567f10ec88f3db6526d60c01b613192565b5b8015610bb25750610bb167ba276b7660d1ade460c01b613187565b5b610bc0578460600151610bc6565b84604001515b9050610bdc676decffd7d47b160060c01b61313e565b610bf067bff0c93a47fb7d3d60c01b61313e565b60008280610c0e5750610c0d6795897f4ad73c5bd760c01b613192565b5b8015610c2a5750610c2967e4b7377ad58860a260c01b613187565b5b610c38578560400151610c3e565b85606001515b9050610c5467b1f609d159fa0b1e60c01b61313e565b610c6867721fc7ff0708496560c01b61313e565b610c7c67ad4fdc27e5bec3b160c01b61313e565b600082118015610c8c5750600081115b610ccb576040517f08c379a0000000000000000000000000000000000000000000000000000000008152600401610cc290613d0f565b60405180910390fd5b610cdf67586a5ba48ea123fe60c01b61313e565b610cf367e7cf746190f4f27460c01b61313e565b610d07673976a56bb1bfc73a60c01b61313e565b6000610d148f8484610267565b9050610d2a676cd1c4d9fc4094e060c01b61313e565b610d3e67fe550fdc6536a0e160c01b61313e565b610d52678e53a4b896a8b2cd60c01b61313e565b8d811015610d95576040517f08c379a0000000000000000000000000000000000000000000000000000000008152600401610d8c90613d7b565b60405180910390fd5b610da967a9669a89dcc7fcc360c01b61313e565b610dbd67db9193619ce016f760c01b61313e565b610dd167c5b383047eebf21f60c01b61313e565b8315610e3c57610deb67e45ee3acfb1201a560c01b61313e565b610dff67f3d5bf254d4df1b260c01b61313e565b8e83610e0b9190613997565b600381905550610e25670bb658bfc9edabee60c01b61313e565b8082610e319190613d9b565b600481905550610e9d565b610e5067ab68649daef484f560c01b61313e565b610e6467dea62fadeb5a081460c01b61313e565b8e83610e709190613997565b600481905550610e8a673413028180c3991e60c01b61313e565b8082610e969190613d9b565b6003819055505b610eb16750c49667865ba16e60c01b61313e565b610ec567797c1fcd810969f760c01b61313e565b8473ffffffffffffffffffffffffffffffffffffffff1663a9059cbb8c836040518363ffffffff1660e01b8152600401610f00929190613dcf565b6020604051808303816000875af1158015610f1f573d6000803e3d6000fd5b505050506040513d601f19601f82011682018060405250810190610f439190613c96565b50610f5867f76c75eff281e6fc60c01b61313e565b610f6c670dffa406ab0516aa60c01b61313e565b8473ffffffffffffffffffffffffffffffffffffffff168673ffffffffffffffffffffffffffffffffffffffff163373ffffffffffffffffffffffffffffffffffffffff167f8d305eb0dd4191c0e7e56004355dbcb1312a9d8c9b2f8ec942a31c9c3e443e9d42604051610fe0919061341f565b60405180910390a4610ffc67f495f5de9123617060c01b61313e565b600267ffffffffffffffff81111561101757611016613df8565b5b6040519080825280602002602001820160405280156110455781602001602082028036833780820191505090505b50985061105c674e895bd640311b8960c01b61313e565b8e8960008151811061107157611070613b8c565b5b60200260200101818152505061109167a849cbf9fb8e692e60c01b61313e565b80896001815181106110a6576110a5613b8c565b5b60200260200101818152505050505050505050506110c2613199565b9695505050505050565b60035481565b60045481565b60066020528060005260406000206000915090505481565b600061110667fced321876328c7c60c01b61313e565b61111a676be1d019458592fe60c01b61313e565b61112e678eccca758e7b8e9160c01b61313e565b611142672730e011cffa37cd60c01b61313e565b600073ffffffffffffffffffffffffffffffffffffffff168373ffffffffffffffffffffffffffffffffffffffff16141580156111ac5750600073ffffffffffffffffffffffffffffffffffffffff168273ffffffffffffffffffffffffffffffffffffffff1614155b6111eb576040517f08c379a00000000000000000000000000000000000000000000000000000000081526004016111e290613e73565b60405180910390fd5b6111ff67c4c8c92ab21ea54960c01b61313e565b6112136792b2bde78c012e6e60c01b61313e565b61122767ea2836d36c0319e660c01b61313e565b61123b67872831a9af6e774260c01b61313e565b600160009054906101000a900473ffffffffffffffffffffffffffffffffffffffff1673ffffffffffffffffffffffffffffffffffffffff168373ffffffffffffffffffffffffffffffffffffffff161480156112e55750600260009054906101000a900473ffffffffffffffffffffffffffffffffffffffff1673ffffffffffffffffffffffffffffffffffffffff168273ffffffffffffffffffffffffffffffffffffffff16145b80156113015750611300677aff136fbfc8cf9d60c01b613187565b5b806113ce5750600260009054906101000a900473ffffffffffffffffffffffffffffffffffffffff1673ffffffffffffffffffffffffffffffffffffffff168373ffffffffffffffffffffffffffffffffffffffff161480156113b15750600160009054906101000a900473ffffffffffffffffffffffffffffffffffffffff1673ffffffffffffffffffffffffffffffffffffffff168273ffffffffffffffffffffffffffffffffffffffff16145b80156113cd57506113cc67ff4f69e636d0112460c01b613187565b5b5b61140d576040517f08c379a000000000000000000000000000000000000000000000000000000000815260040161140490613c07565b60405180910390fd5b611421671cd58b3d78e1887360c01b61313e565b61143567bf3b5613f7009d0c60c01b61313e565b61144967069166b24063ea6b60c01b61313e565b600060035414801561146b575061146a675994e10c186d75d660c01b613187565b5b80611494575060006004541480156114935750611492679f0375e5aba2d3c760c01b613187565b5b5b156114ca576114ad67b34bea9972a7761e60c01b61313e565b6114c1671807a82bc68fc12860c01b61313e565b60009050611690565b6114de677a80c4ab30b8b0a360c01b61313e565b6114f2677dc6a8e2fe9c8fe460c01b61313e565b611506671421bb1f35646ad060c01b61313e565b6000600160009054906101000a900473ffffffffffffffffffffffffffffffffffffffff1673ffffffffffffffffffffffffffffffffffffffff168473ffffffffffffffffffffffffffffffffffffffff1614905061156f6773026caeb0154eb060c01b61313e565b611583677171c157c9fad8f360c01b61313e565b600081806115a157506115a067679a514106b2f70c60c01b613192565b5b80156115bd57506115bc675d4874f5e504d27960c01b613187565b5b6115c9576004546115cd565b6003545b90506115e367ec8fb3cccb99e08660c01b61313e565b6115f7678db7b1a17ba90cb860c01b61313e565b600082806116155750611614675b6496759dd97dc260c01b613192565b5b8015611631575061163067ff013118787da19460c01b613187565b5b61163d57600354611641565b6004545b9050611657677214042bd5d3e65060c01b61313e565b61166b67b9a6c0dec00c80b260c01b61313e565b81670de0b6b3a76400008261168091906138f5565b61168a9190613966565b93505050505b92915050565b6000806116ad671d4564180f465bf460c01b61313e565b6116b5613141565b6116c967fc39d81eb31ffaf560c01b61313e565b6116dd67e185d87d6866fd6e60c01b61313e565b826116f267e283b568588d440460c01b61313e565b6117066776cf1b3fbec898c760c01b61313e565b61171a670e4d2c66caa7580c60c01b61313e565b61172e67d5c3866c28c80d8860c01b61313e565b80421115611771576040517f08c379a000000000000000000000000000000000000000000000000000000000815260040161176890613a28565b60405180910390fd5b61178567cdd570e15fcebf7460c01b61313e565b61179967c4ca57030108dad160c01b61313e565b6117ad6750c2e62cb242be3860c01b61313e565b6117c1675f75a666b7968c5760c01b61313e565b6117d567f133dcc1b9e60f2360c01b61313e565b6117e96776a84f830ef73a9960c01b61313e565b60006040518060a00160405280600160009054906101000a900473ffffffffffffffffffffffffffffffffffffffff1673ffffffffffffffffffffffffffffffffffffffff168152602001600260009054906101000a900473ffffffffffffffffffffffffffffffffffffffff1673ffffffffffffffffffffffffffffffffffffffff16815260200160035481526020016004548152602001600554815250905061189e67bb10bb71adc8719560c01b61313e565b6118b267f5f45fb07dd1a24660c01b61313e565b6118c667f70d7bdddc77092360c01b61313e565b806000015173ffffffffffffffffffffffffffffffffffffffff168b73ffffffffffffffffffffffffffffffffffffffff161480156119345750806020015173ffffffffffffffffffffffffffffffffffffffff168a73ffffffffffffffffffffffffffffffffffffffff16145b8015611950575061194f672d0aa1f4b60f707e60c01b613187565b5b806119e15750806020015173ffffffffffffffffffffffffffffffffffffffff168b73ffffffffffffffffffffffffffffffffffffffff161480156119c45750806000015173ffffffffffffffffffffffffffffffffffffffff168a73ffffffffffffffffffffffffffffffffffffffff16145b80156119e057506119df6786a53e7af3bfce2c60c01b613187565b5b5b611a20576040517f08c379a0000000000000000000000000000000000000000000000000000000008152600401611a1790613c07565b60405180910390fd5b611a3467099b68f2750e2fa860c01b61313e565b611a4867a972498fb5fdd0c360c01b61313e565b611a5c67cee5f3651e1e1bc560c01b61313e565b611a706788f1db1ef6b22c9960c01b61313e565b600073ffffffffffffffffffffffffffffffffffffffff168673ffffffffffffffffffffffffffffffffffffffff1603611adf576040517f08c379a0000000000000000000000000000000000000000000000000000000008152600401611ad690613b00565b60405180910390fd5b611af367e5e39a89e2b2ce5460c01b61313e565b611b076734f8a27ba33d647860c01b61313e565b611b1b677c81f92fd69651f960c01b61313e565b611b2f67022e5ace88bfd5ab60c01b61313e565b60008911611b72576040517f08c379a0000000000000000000000000000000000000000000000000000000008152600401611b6990613edf565b60405180910390fd5b611b86671d2f99367d4507aa60c01b61313e565b611b9a67ad33773d4a9df5f860c01b61313e565b611bad667c74f4a8767a7860c01b61313e565b6000816000015173ffffffffffffffffffffffffffffffffffffffff168c73ffffffffffffffffffffffffffffffffffffffff16149050611bf867a76fbd57d09c017d60c01b61313e565b611c0c67664d086f9c8750c060c01b61313e565b60008180611c2a5750611c29676869e28900119c2860c01b613192565b5b8015611c465750611c4567da7bbb6a414c12af60c01b613187565b5b611c54578260600151611c5a565b82604001515b9050611c706778be5cf52b320c1160c01b61313e565b611c8467e469f8f4c33c596a60c01b61313e565b60008280611ca25750611ca1674f2bb6ad324f908260c01b613192565b5b8015611cbe5750611cbd679fac2426aa89c91a60c01b613187565b5b611ccc578360400151611cd2565b83606001515b9050611ce86784a28e4f44eb270560c01b61313e565b611cfc672f649be3c9edff1160c01b61313e565b6000600660003373ffffffffffffffffffffffffffffffffffffffff1673ffffffffffffffffffffffffffffffffffffffff168152602001908152602001600020549050611d54678447d0e90652abbe60c01b61313e565b611d6867653807e7b14614eb60c01b61313e565b611d7c67804b69df6265ae1760c01b61313e565b8c811015611dbf576040517f08c379a0000000000000000000000000000000000000000000000000000000008152600401611db690613f4b565b60405180910390fd5b611dd367b45593f2e78b335b60c01b61313e565b611de7672113815f4394ea7f60c01b61313e565b8460800151838e611df891906138f5565b611e029190613966565b9750611e18672e54aefafd0fed3760c01b61313e565b8460800151828e611e2991906138f5565b611e339190613966565b9650611e4967d9ae356c89a03f1e60c01b61313e565b611e5d6771cd5634e242cc6c60c01b61313e565b611e71675362be929d77ea6260c01b61313e565b8b881015611eb4576040517f08c379a0000000000000000000000000000000000000000000000000000000008152600401611eab90613fb7565b60405180910390fd5b611ec867e539ec2b43bcad5c60c01b61313e565b611edc67174690bf2a6906cc60c01b61313e565b611ef0671af41c9639f04e4b60c01b61313e565b611f0467263cc5ba8bca8d2b60c01b61313e565b8a871015611f47576040517f08c379a0000000000000000000000000000000000000000000000000000000008152600401611f3e90614023565b60405180910390fd5b611f5b6796ba9bc2bbabe65360c01b61313e565b611f6f67af2981cde235babf60c01b61313e565b8c60056000828254611f819190613d9b565b92505081905550611f9c6723a399a42175752760c01b61313e565b8c81611fa89190613d9b565b600660003373ffffffffffffffffffffffffffffffffffffffff1673ffffffffffffffffffffffffffffffffffffffff16815260200190815260200160002081905550611fff673ee0b3af069b2e2560c01b61313e565b612013677639132d649da87960c01b61313e565b831561208c5761202d677c716d1d1fcdae0d60c01b61313e565b61204167b57b45013a9eda9360c01b61313e565b87600360008282546120539190613d9b565b9250508190555061206e675cd2173fbf6de92c60c01b61313e565b86600460008282546120809190613d9b565b925050819055506120fb565b6120a06772030f6c0a51989060c01b61313e565b6120b467fa6acd02da7a906760c01b61313e565b86600360008282546120c69190613d9b565b925050819055506120e167cdfd0d0a49a620a160c01b61313e565b87600460008282546120f39190613d9b565b925050819055505b61210f67fbb010cc8f46d98e60c01b61313e565b61212367c84b6751e9d681ff60c01b61313e565b8e73ffffffffffffffffffffffffffffffffffffffff1663a9059cbb8b8a6040518363ffffffff1660e01b815260040161215e929190613dcf565b6020604051808303816000875af115801561217d573d6000803e3d6000fd5b505050506040513d601f19601f820116820180604052508101906121a19190613c96565b506121b6678cebff49ed26b3da60c01b61313e565b6121ca677ac199779ebe852860c01b61313e565b8d73ffffffffffffffffffffffffffffffffffffffff1663a9059cbb8b896040518363ffffffff1660e01b8152600401612205929190613dcf565b6020604051808303816000875af1158015612224573d6000803e3d6000fd5b505050506040513d601f19601f820116820180604052508101906122489190613c96565b5061225d67adc9267637a51fc660c01b61313e565b6122716787f37191982a3b5e60c01b61313e565b3373ffffffffffffffffffffffffffffffffffffffff167f1dc8bb69df2b8e91fbdcbfcf93d951b3f0000f085a95fe3f7946d6161439245d8989426040516122bb9392919061388f565b60405180910390a25050505050506122d1613199565b97509795505050505050565b600260009054906101000a900473ffffffffffffffffffffffffffffffffffffffff1681565b600080600061231c6750a4a134d2e230a960c01b61313e565b612324613141565b6123386707362a9c9d06162360c01b61313e565b61234c672bf30a00ea75853460c01b61313e565b8361236167e283b568588d440460c01b61313e565b6123756776cf1b3fbec898c760c01b61313e565b612389670e4d2c66caa7580c60c01b61313e565b61239d67d5c3866c28c80d8860c01b61313e565b804211156123e0576040517f08c379a00000000000000000000000000000000000000000000000000000000081526004016123d790613a28565b60405180910390fd5b6123f467cdd570e15fcebf7460c01b61313e565b61240867c4ca57030108dad160c01b61313e565b61241c6783fa9f35879c259560c01b61313e565b612430676c6b43bb9bb77a7060c01b61313e565b612444670dbf0cde99141c2760c01b61313e565b612458671f811ef4edfc506960c01b61313e565b60006040518060a00160405280600160009054906101000a900473ffffffffffffffffffffffffffffffffffffffff1673ffffffffffffffffffffffffffffffffffffffff168152602001600260009054906101000a900473ffffffffffffffffffffffffffffffffffffffff1673ffffffffffffffffffffffffffffffffffffffff16815260200160035481526020016004548152602001600554815250905061250d67c138260182b6bb9460c01b61313e565b612521671641729e4174eca760c01b61313e565b61253567a414debd75e6360a60c01b61313e565b806000015173ffffffffffffffffffffffffffffffffffffffff168d73ffffffffffffffffffffffffffffffffffffffff161480156125a35750806020015173ffffffffffffffffffffffffffffffffffffffff168c73ffffffffffffffffffffffffffffffffffffffff16145b80156125bf57506125be673dde8bb33fa239d060c01b613187565b5b806126505750806020015173ffffffffffffffffffffffffffffffffffffffff168d73ffffffffffffffffffffffffffffffffffffffff161480156126335750806000015173ffffffffffffffffffffffffffffffffffffffff168c73ffffffffffffffffffffffffffffffffffffffff16145b801561264f575061264e6762e9fada601b3e5a60c01b613187565b5b5b61268f576040517f08c379a000000000000000000000000000000000000000000000000000000000815260040161268690613c07565b60405180910390fd5b6126a36762e90195a60fa7ae60c01b61313e565b6126b767479010c8739b7c4960c01b61313e565b6126cb67b9c003368a5d21b060c01b61313e565b6126df670a093aa9487ac7f060c01b61313e565b600073ffffffffffffffffffffffffffffffffffffffff168773ffffffffffffffffffffffffffffffffffffffff160361274e576040517f08c379a000000000000000000000000000000000000000000000000000000000815260040161274590613b00565b60405180910390fd5b61276267c4eac41e53d489bb60c01b61313e565b61277667e01577330d886fc460c01b61313e565b61278a6762cb5a909d8245e760c01b61313e565b61279e67511355647c3cac8b60c01b61313e565b60008b1180156127ae575060008a115b6127ed576040517f08c379a00000000000000000000000000000000000000000000000000000000081526004016127e49061408f565b60405180910390fd5b61280167083824463b1254ce60c01b61313e565b612815677b570a0b963cbb7660c01b61313e565b612829671a844d1e8ce21c4960c01b61313e565b6000816000015173ffffffffffffffffffffffffffffffffffffffff168e73ffffffffffffffffffffffffffffffffffffffff1614905061287467560b019d502458de60c01b61313e565b6128886718d0c85d88559c9960c01b61313e565b600081806128a657506128a567d9f3ba4c6d988ba560c01b613192565b5b80156128c257506128c1672c06761a4885d77d60c01b613187565b5b6128d05782606001516128d6565b82604001515b90506128ec6788d4b124b06ae14060c01b61313e565b612900673bae294c456ac81260c01b61313e565b6000828061291e575061291d671e82d34c43faaf0b60c01b613192565b5b801561293a5750612939677c9e60539774936260c01b613187565b5b61294857836040015161294e565b83606001515b905061296467c84804a51d7f029b60c01b61313e565b8d975061297b67abe3b4f94ba2e87560c01b61313e565b8c965061299267e9857450e24cf77760c01b61313e565b6129a667836da5433fe7828c60c01b61313e565b6000846080015103612a88576129c6672f877112ed71303360c01b61313e565b6129da671f322ad5672faeb060c01b61313e565b6129ee87896129e991906138f5565b6131a3565b9550612a046716c30165588c333460c01b61313e565b612a1867451baeed32a3b46d60c01b61313e565b612a2c6794f627ddac7bec8b60c01b61313e565b60008611612a6f576040517f08c379a0000000000000000000000000000000000000000000000000000000008152600401612a66906140fb565b60405180910390fd5b612a83678084c5a7d4df9db560c01b61313e565b612dae565b612a9c67325fc950cb21889e60c01b61313e565b612ab06708e1270d158abb6660c01b61313e565b612ac467a828336309f5d38860c01b61313e565b60008189612ad291906138f5565b9050612ae867970796b3cb1319e860c01b61313e565b612afc67e2fb5992e42b29a660c01b61313e565b60008389612b0a91906138f5565b9050612b2067eb895d13fe8eb65660c01b61313e565b612b346705759fe767d0763160c01b61313e565b612b4867cbe43de3532869f660c01b61313e565b808214612b8a576040517f08c379a0000000000000000000000000000000000000000000000000000000008152600401612b8190614167565b60405180910390fd5b612b9e67253c8868e8ec9af260c01b61313e565b612bb267768a6fdbd68d8f1f60c01b61313e565b612bc667e3978c580e9a924060c01b61313e565b612bda6717a27d438c46ae0360c01b61313e565b8d8a1015612c1d576040517f08c379a0000000000000000000000000000000000000000000000000000000008152600401612c1490613fb7565b60405180910390fd5b612c31671659b1eb22d6292a60c01b61313e565b612c45677664107a515c724460c01b61313e565b612c5967858cb21f9f2aeaf760c01b61313e565b612c6d674d9eba963b007d9560c01b61313e565b8c891015612cb0576040517f08c379a0000000000000000000000000000000000000000000000000000000008152600401612ca790614023565b60405180910390fd5b612cc467fe1f19a2c7fb2a5760c01b61313e565b612cd86743cbe1b10785d0dd60c01b61313e565b612d168487608001518c612cec91906138f5565b612cf69190613966565b8488608001518c612d0791906138f5565b612d119190613966565b613340565b9750612d2c67e0b12b92a5e57ce360c01b61313e565b612d40678e4cc82e289d0ee760c01b61313e565b612d5467a8df01f6761b08f660c01b61313e565b60008811612d97576040517f08c379a0000000000000000000000000000000000000000000000000000000008152600401612d8e906141d3565b60405180910390fd5b612dab67f783c82e5fc10fac60c01b61313e565b50505b612dc267fd8b36883f04dcc760c01b61313e565b612dd667ecd6644b4dd722a660c01b61313e565b8f73ffffffffffffffffffffffffffffffffffffffff166323b872dd33308b6040518463ffffffff1660e01b8152600401612e1393929190613c27565b6020604051808303816000875af1158015612e32573d6000803e3d6000fd5b505050506040513d601f19601f82011682018060405250810190612e569190613c96565b50612e6b671b034afb09c9544760c01b61313e565b612e7f670b6d8cebdf397cfb60c01b61313e565b8e73ffffffffffffffffffffffffffffffffffffffff166323b872dd33308a6040518463ffffffff1660e01b8152600401612ebc93929190613c27565b6020604051808303816000875af1158015612edb573d6000803e3d6000fd5b505050506040513d601f19601f82011682018060405250810190612eff9190613c96565b50612f14672790a38629dbd2d060c01b61313e565b612f2867563e105d0ce11e3d60c01b61313e565b8215612fa157612f42677086d313ebbd1fc060c01b61313e565b612f5667272b942b8e725aed60c01b61313e565b8760036000828254612f689190613997565b92505081905550612f8367462f4396ef6d1aea60c01b61313e565b8660046000828254612f959190613997565b92505081905550613010565b612fb567980c9225539bf76e60c01b61313e565b612fc9674b5f9cb0ddf1543660c01b61313e565b8660036000828254612fdb9190613997565b92505081905550612ff667079131c276680e2d60c01b61313e565b87600460008282546130089190613997565b925050819055505b6130246740b13a833f50a95660c01b61313e565b85600560008282546130369190613997565b92505081905550613051675ba7fb1e0c4ea83460c01b61313e565b85600660008c73ffffffffffffffffffffffffffffffffffffffff1673ffffffffffffffffffffffffffffffffffffffff16815260200190815260200160002060008282546130a09190613997565b925050819055506130bb677e0a388cda3966e660c01b61313e565b6130cf67e6cb3225b2c3c55a60c01b61313e565b3373ffffffffffffffffffffffffffffffffffffffff167f08d7621a09a86934f387f650007fa17f2413759ca5f2ae0681161b371583a5f58989894260405161311b94939291906141f3565b60405180910390a25050505050613130613199565b985098509895505050505050565b50565b60026000540361317d576040517f3ee5aeb500000000000000000000000000000000000000000000000000000000815260040160405180910390fd5b6002600081905550565b600060019050919050565b6000919050565b6001600081905550565b6000600182116131b55781905061333b565b600082905060006001905070010000000000000000000000000000000082106131e757608082901c9150604081901b90505b68010000000000000000821061320657604082901c9150602081901b90505b640100000000821061322157602082901c9150601081901b90505b62010000821061323a57601082901c9150600881901b90505b610100821061325257600882901c9150600481901b90505b6010821061326957600482901c9150600281901b90505b6004821061327957600181901b90505b600181600302901c9050600181858161329557613294613937565b5b048201901c905060018185816132ae576132ad613937565b5b048201901c905060018185816132c7576132c6613937565b5b048201901c905060018185816132e0576132df613937565b5b048201901c905060018185816132f9576132f8613937565b5b048201901c9050600181858161331257613311613937565b5b048201901c905061333481858161332c5761332b613937565b5b048211613357565b8103925050505b919050565b600061334f8284108484613363565b905092915050565b60008115159050919050565b600061336e84613357565b82841802821890509392505050565b600080fd5b600080fd5b6000819050919050565b61339a81613387565b81146133a557600080fd5b50565b6000813590506133b781613391565b92915050565b6000806000606084860312156133d6576133d561337d565b5b60006133e4868287016133a8565b93505060206133f5868287016133a8565b9250506040613406868287016133a8565b9150509250925092565b61341981613387565b82525050565b60006020820190506134346000830184613410565b92915050565b600073ffffffffffffffffffffffffffffffffffffffff82169050919050565b60006134658261343a565b9050919050565b6134758161345a565b82525050565b6000602082019050613490600083018461346c565b92915050565b600080fd5b600080fd5b600080fd5b60008083601f8401126134bb576134ba613496565b5b8235905067ffffffffffffffff8111156134d8576134d761349b565b5b6020830191508360208202830111156134f4576134f36134a0565b5b9250929050565b6135048161345a565b811461350f57600080fd5b50565b600081359050613521816134fb565b92915050565b60008060008060008060a087890312156135445761354361337d565b5b600061355289828a016133a8565b965050602061356389828a016133a8565b955050604087013567ffffffffffffffff81111561358457613583613382565b5b61359089828a016134a5565b945094505060606135a389828a01613512565b92505060806135b489828a016133a8565b9150509295509295509295565b600081519050919050565b600082825260208201905092915050565b6000819050602082019050919050565b6135f681613387565b82525050565b600061360883836135ed565b60208301905092915050565b6000602082019050919050565b600061362c826135c1565b61363681856135cc565b9350613641836135dd565b8060005b8381101561367257815161365988826135fc565b975061366483613614565b925050600181019050613645565b5085935050505092915050565b600060208201905081810360008301526136998184613621565b905092915050565b6000602082840312156136b7576136b661337d565b5b60006136c584828501613512565b91505092915050565b600080604083850312156136e5576136e461337d565b5b60006136f385828601613512565b925050602061370485828601613512565b9150509250929050565b600080600080600080600060e0888a03121561372d5761372c61337d565b5b600061373b8a828b01613512565b975050602061374c8a828b01613512565b965050604061375d8a828b016133a8565b955050606061376e8a828b016133a8565b945050608061377f8a828b016133a8565b93505060a06137908a828b01613512565b92505060c06137a18a828b016133a8565b91505092959891949750929550565b60006040820190506137c56000830185613410565b6137d26020830184613410565b9392505050565b600080600080600080600080610100898b0312156137fa576137f961337d565b5b60006138088b828c01613512565b98505060206138198b828c01613512565b975050604061382a8b828c016133a8565b965050606061383b8b828c016133a8565b955050608061384c8b828c016133a8565b94505060a061385d8b828c016133a8565b93505060c061386e8b828c01613512565b92505060e061387f8b828c016133a8565b9150509295985092959890939650565b60006060820190506138a46000830186613410565b6138b16020830185613410565b6138be6040830184613410565b949350505050565b7f4e487b7100000000000000000000000000000000000000000000000000000000600052601160045260246000fd5b600061390082613387565b915061390b83613387565b925082820261391981613387565b915082820484148315176139305761392f6138c6565b5b5092915050565b7f4e487b7100000000000000000000000000000000000000000000000000000000600052601260045260246000fd5b600061397182613387565b915061397c83613387565b92508261398c5761398b613937565b5b828204905092915050565b60006139a282613387565b91506139ad83613387565b92508282019050808211156139c5576139c46138c6565b5b92915050565b600082825260208201905092915050565b7f5472616e73616374696f6e206578706972656400000000000000000000000000600082015250565b6000613a126013836139cb565b9150613a1d826139dc565b602082019050919050565b60006020820190508181036000830152613a4181613a05565b9050919050565b7f4f6e6c79203120686f7020616c6c6f7765640000000000000000000000000000600082015250565b6000613a7e6012836139cb565b9150613a8982613a48565b602082019050919050565b60006020820190508181036000830152613aad81613a71565b9050919050565b7f496e76616c69642027746f272061646472657373000000000000000000000000600082015250565b6000613aea6014836139cb565b9150613af582613ab4565b602082019050919050565b60006020820190508181036000830152613b1981613add565b9050919050565b7f496e707574206d757374206265203e2030000000000000000000000000000000600082015250565b6000613b566011836139cb565b9150613b6182613b20565b602082019050919050565b60006020820190508181036000830152613b8581613b49565b9050919050565b7f4e487b7100000000000000000000000000000000000000000000000000000000600052603260045260246000fd5b7f496e76616c696420746f6b656e00000000000000000000000000000000000000600082015250565b6000613bf1600d836139cb565b9150613bfc82613bbb565b602082019050919050565b60006020820190508181036000830152613c2081613be4565b9050919050565b6000606082019050613c3c600083018661346c565b613c49602083018561346c565b613c566040830184613410565b949350505050565b60008115159050919050565b613c7381613c5e565b8114613c7e57600080fd5b50565b600081519050613c9081613c6a565b92915050565b600060208284031215613cac57613cab61337d565b5b6000613cba84828501613c81565b91505092915050565b7f496e73756666696369656e742072657365727665730000000000000000000000600082015250565b6000613cf96015836139cb565b9150613d0482613cc3565b602082019050919050565b60006020820190508181036000830152613d2881613cec565b9050919050565b7f45786365737369766520736c6970706167650000000000000000000000000000600082015250565b6000613d656012836139cb565b9150613d7082613d2f565b602082019050919050565b60006020820190508181036000830152613d9481613d58565b9050919050565b6000613da682613387565b9150613db183613387565b9250828203905081811115613dc957613dc86138c6565b5b92915050565b6000604082019050613de4600083018561346c565b613df16020830184613410565b9392505050565b7f4e487b7100000000000000000000000000000000000000000000000000000000600052604160045260246000fd5b7f496e76616c696420746f6b656e73000000000000000000000000000000000000600082015250565b6000613e5d600e836139cb565b9150613e6882613e27565b602082019050919050565b60006020820190508181036000830152613e8c81613e50565b9050919050565b7f5a65726f206c6971756964697479206275726e00000000000000000000000000600082015250565b6000613ec96013836139cb565b9150613ed482613e93565b602082019050919050565b60006020820190508181036000830152613ef881613ebc565b9050919050565b7f496e73756666696369656e74206c697175696469747900000000000000000000600082015250565b6000613f356016836139cb565b9150613f4082613eff565b602082019050919050565b60006020820190508181036000830152613f6481613f28565b9050919050565b7f536c697070616765204120746f6f206869676800000000000000000000000000600082015250565b6000613fa16013836139cb565b9150613fac82613f6b565b602082019050919050565b60006020820190508181036000830152613fd081613f94565b9050919050565b7f536c697070616765204220746f6f206869676800000000000000000000000000600082015250565b600061400d6013836139cb565b915061401882613fd7565b602082019050919050565b6000602082019050818103600083015261403c81614000565b9050919050565b7f5a65726f206c6971756964697479000000000000000000000000000000000000600082015250565b6000614079600e836139cb565b915061408482614043565b602082019050919050565b600060208201905081810360008301526140a88161406c565b9050919050565b7f4c6971756964697479206d757374206265203e20300000000000000000000000600082015250565b60006140e56015836139cb565b91506140f0826140af565b602082019050919050565b60006020820190508181036000830152614114816140d8565b9050919050565b7f496e76616c69642070726f706f7274696f6e7300000000000000000000000000600082015250565b60006141516013836139cb565b915061415c8261411b565b602082019050919050565b6000602082019050818103600083015261418081614144565b9050919050565b7f5a65726f206c6971756964697479206e6f7420616c6c6f776564000000000000600082015250565b60006141bd601a836139cb565b91506141c882614187565b602082019050919050565b600060208201905081810360008301526141ec816141b0565b9050919050565b60006080820190506142086000830187613410565b6142156020830186613410565b6142226040830185613410565b61422f6060830184613410565b9594505050505056fea2646970667358221220a2e9ed933ed509075d6a53de871140d1af703e30ff9efe63b7cc7fbfc73f263964736f6c63430008140033","opcodes":"PUSH1 0x80 PUSH1 0x40 MSTORE CALLVALUE DUP1 ISZERO PUSH3 0x11 JUMPI PUSH1 0x0 DUP1 REVERT JUMPDEST POP PUSH1 0x40 MLOAD PUSH3 0x48A7 CODESIZE SUB DUP1 PUSH3 0x48A7 DUP4 CODECOPY DUP2 DUP2 ADD PUSH1 0x40 MSTORE DUP2 ADD SWAP1 PUSH3 0x37 SWAP2 SWAP1 PUSH3 0x4ED JUMP JUMPDEST PUSH1 0x1 PUSH1 0x0 DUP2 SWAP1 SSTORE POP PUSH3 0x5B PUSH8 0x7D03937F0B2F5D94 PUSH1 0xC0 SHL PUSH3 0x480 PUSH1 0x20 SHL PUSH1 0x20 SHR JUMP JUMPDEST PUSH3 0x77 PUSH8 0x225612842F87E55 PUSH1 0xC0 SHL PUSH3 0x480 PUSH1 0x20 SHL PUSH1 0x20 SHR JUMP JUMPDEST PUSH3 0x93 PUSH8 0xF82BA95219F4DD20 PUSH1 0xC0 SHL PUSH3 0x480 PUSH1 0x20 SHL PUSH1 0x20 SHR JUMP JUMPDEST PUSH3 0xAF PUSH8 0x3C81BD530F06AB02 PUSH1 0xC0 SHL PUSH3 0x480 PUSH1 0x20 SHL PUSH1 0x20 SHR JUMP JUMPDEST PUSH1 0x0 PUSH20 0xFFFFFFFFFFFFFFFFFFFFFFFFFFFFFFFFFFFFFFFF AND DUP3 PUSH20 0xFFFFFFFFFFFFFFFFFFFFFFFFFFFFFFFFFFFFFFFF AND EQ ISZERO DUP1 ISZERO PUSH3 0x11A JUMPI POP PUSH1 0x0 PUSH20 0xFFFFFFFFFFFFFFFFFFFFFFFFFFFFFFFFFFFFFFFF AND DUP2 PUSH20 0xFFFFFFFFFFFFFFFFFFFFFFFFFFFFFFFFFFFFFFFF AND EQ ISZERO JUMPDEST PUSH3 0x15C JUMPI PUSH1 0x40 MLOAD PUSH32 0x8C379A000000000000000000000000000000000000000000000000000000000 DUP2 MSTORE PUSH1 0x4 ADD PUSH3 0x153 SWAP1 PUSH3 0x595 JUMP JUMPDEST PUSH1 0x40 MLOAD DUP1 SWAP2 SUB SWAP1 REVERT JUMPDEST PUSH3 0x178 PUSH8 0xCC21452BBF111CA4 PUSH1 0xC0 SHL PUSH3 0x480 PUSH1 0x20 SHL PUSH1 0x20 SHR JUMP JUMPDEST PUSH3 0x194 PUSH8 0xE192406F40C998ED PUSH1 0xC0 SHL PUSH3 0x480 PUSH1 0x20 SHL PUSH1 0x20 SHR JUMP JUMPDEST PUSH3 0x1B0 PUSH8 0x642058B5AD397376 PUSH1 0xC0 SHL PUSH3 0x480 PUSH1 0x20 SHL PUSH1 0x20 SHR JUMP JUMPDEST PUSH3 0x1CC PUSH8 0xDFB303E5092E7ABD PUSH1 0xC0 SHL PUSH3 0x480 PUSH1 0x20 SHL PUSH1 0x20 SHR JUMP JUMPDEST DUP1 PUSH20 0xFFFFFFFFFFFFFFFFFFFFFFFFFFFFFFFFFFFFFFFF AND DUP3 PUSH20 0xFFFFFFFFFFFFFFFFFFFFFFFFFFFFFFFFFFFFFFFF AND SUB PUSH3 0x23D JUMPI PUSH1 0x40 MLOAD PUSH32 0x8C379A000000000000000000000000000000000000000000000000000000000 DUP2 MSTORE PUSH1 0x4 ADD PUSH3 0x234 SWAP1 PUSH3 0x607 JUMP JUMPDEST PUSH1 0x40 MLOAD DUP1 SWAP2 SUB SWAP1 REVERT JUMPDEST PUSH3 0x259 PUSH8 0x5704F9FD283824A3 PUSH1 0xC0 SHL PUSH3 0x480 PUSH1 0x20 SHL PUSH1 0x20 SHR JUMP JUMPDEST PUSH3 0x275 PUSH8 0x53E566EBC2B2BB26 PUSH1 0xC0 SHL PUSH3 0x480 PUSH1 0x20 SHL PUSH1 0x20 SHR JUMP JUMPDEST PUSH3 0x290 PUSH7 0xAD1B84A5A4A220 PUSH1 0xC0 SHL PUSH3 0x480 PUSH1 0x20 SHL PUSH1 0x20 SHR JUMP JUMPDEST DUP1 PUSH20 0xFFFFFFFFFFFFFFFFFFFFFFFFFFFFFFFFFFFFFFFF AND DUP3 PUSH20 0xFFFFFFFFFFFFFFFFFFFFFFFFFFFFFFFFFFFFFFFF AND LT ISZERO PUSH3 0x3A1 JUMPI PUSH3 0x2E1 PUSH8 0xA240784BD06A779E PUSH1 0xC0 SHL PUSH3 0x480 PUSH1 0x20 SHL PUSH1 0x20 SHR JUMP JUMPDEST PUSH3 0x2FD PUSH8 0xE9AD74229A77043B PUSH1 0xC0 SHL PUSH3 0x480 PUSH1 0x20 SHL PUSH1 0x20 SHR JUMP JUMPDEST DUP2 PUSH1 0x1 PUSH1 0x0 PUSH2 0x100 EXP DUP2 SLOAD DUP2 PUSH20 0xFFFFFFFFFFFFFFFFFFFFFFFFFFFFFFFFFFFFFFFF MUL NOT AND SWAP1 DUP4 PUSH20 0xFFFFFFFFFFFFFFFFFFFFFFFFFFFFFFFFFFFFFFFF AND MUL OR SWAP1 SSTORE POP PUSH3 0x35A PUSH8 0xC9AD82D200931A56 PUSH1 0xC0 SHL PUSH3 0x480 PUSH1 0x20 SHL PUSH1 0x20 SHR JUMP JUMPDEST DUP1 PUSH1 0x2 PUSH1 0x0 PUSH2 0x100 EXP DUP2 SLOAD DUP2 PUSH20 0xFFFFFFFFFFFFFFFFFFFFFFFFFFFFFFFFFFFFFFFF MUL NOT AND SWAP1 DUP4 PUSH20 0xFFFFFFFFFFFFFFFFFFFFFFFFFFFFFFFFFFFFFFFF AND MUL OR SWAP1 SSTORE POP PUSH3 0x478 JUMP JUMPDEST PUSH3 0x3BD PUSH8 0x577DD69B2F7A4A44 PUSH1 0xC0 SHL PUSH3 0x480 PUSH1 0x20 SHL PUSH1 0x20 SHR JUMP JUMPDEST PUSH3 0x3D9 PUSH8 0x8A905B4EB7363EAA PUSH1 0xC0 SHL PUSH3 0x480 PUSH1 0x20 SHL PUSH1 0x20 SHR JUMP JUMPDEST DUP1 PUSH1 0x1 PUSH1 0x0 PUSH2 0x100 EXP DUP2 SLOAD DUP2 PUSH20 0xFFFFFFFFFFFFFFFFFFFFFFFFFFFFFFFFFFFFFFFF MUL NOT AND SWAP1 DUP4 PUSH20 0xFFFFFFFFFFFFFFFFFFFFFFFFFFFFFFFFFFFFFFFF AND MUL OR SWAP1 SSTORE POP PUSH3 0x436 PUSH8 0x39EFDB2E69953E73 PUSH1 0xC0 SHL PUSH3 0x480 PUSH1 0x20 SHL PUSH1 0x20 SHR JUMP JUMPDEST DUP2 PUSH1 0x2 PUSH1 0x0 PUSH2 0x100 EXP DUP2 SLOAD DUP2 PUSH20 0xFFFFFFFFFFFFFFFFFFFFFFFFFFFFFFFFFFFFFFFF MUL NOT AND SWAP1 DUP4 PUSH20 0xFFFFFFFFFFFFFFFFFFFFFFFFFFFFFFFFFFFFFFFF AND MUL OR SWAP1 SSTORE POP JUMPDEST POP POP PUSH3 0x629 JUMP JUMPDEST POP JUMP JUMPDEST PUSH1 0x0 DUP1 REVERT JUMPDEST PUSH1 0x0 PUSH20 0xFFFFFFFFFFFFFFFFFFFFFFFFFFFFFFFFFFFFFFFF DUP3 AND SWAP1 POP SWAP2 SWAP1 POP JUMP JUMPDEST PUSH1 0x0 PUSH3 0x4B5 DUP3 PUSH3 0x488 JUMP JUMPDEST SWAP1 POP SWAP2 SWAP1 POP JUMP JUMPDEST PUSH3 0x4C7 DUP2 PUSH3 0x4A8 JUMP JUMPDEST DUP2 EQ PUSH3 0x4D3 JUMPI PUSH1 0x0 DUP1 REVERT JUMPDEST POP JUMP JUMPDEST PUSH1 0x0 DUP2 MLOAD SWAP1 POP PUSH3 0x4E7 DUP2 PUSH3 0x4BC JUMP JUMPDEST SWAP3 SWAP2 POP POP JUMP JUMPDEST PUSH1 0x0 DUP1 PUSH1 0x40 DUP4 DUP6 SUB SLT ISZERO PUSH3 0x507 JUMPI PUSH3 0x506 PUSH3 0x483 JUMP JUMPDEST JUMPDEST PUSH1 0x0 PUSH3 0x517 DUP6 DUP3 DUP7 ADD PUSH3 0x4D6 JUMP JUMPDEST SWAP3 POP POP PUSH1 0x20 PUSH3 0x52A DUP6 DUP3 DUP7 ADD PUSH3 0x4D6 JUMP JUMPDEST SWAP2 POP POP SWAP3 POP SWAP3 SWAP1 POP JUMP JUMPDEST PUSH1 0x0 DUP3 DUP3 MSTORE PUSH1 0x20 DUP3 ADD SWAP1 POP SWAP3 SWAP2 POP POP JUMP JUMPDEST PUSH32 0x496E76616C696420746F6B656E20616464726573730000000000000000000000 PUSH1 0x0 DUP3 ADD MSTORE POP JUMP JUMPDEST PUSH1 0x0 PUSH3 0x57D PUSH1 0x15 DUP4 PUSH3 0x534 JUMP JUMPDEST SWAP2 POP PUSH3 0x58A DUP3 PUSH3 0x545 JUMP JUMPDEST PUSH1 0x20 DUP3 ADD SWAP1 POP SWAP2 SWAP1 POP JUMP JUMPDEST PUSH1 0x0 PUSH1 0x20 DUP3 ADD SWAP1 POP DUP2 DUP2 SUB PUSH1 0x0 DUP4 ADD MSTORE PUSH3 0x5B0 DUP2 PUSH3 0x56E JUMP JUMPDEST SWAP1 POP SWAP2 SWAP1 POP JUMP JUMPDEST PUSH32 0x546F6B656E73206D75737420626520646966666572656E740000000000000000 PUSH1 0x0 DUP3 ADD MSTORE POP JUMP JUMPDEST PUSH1 0x0 PUSH3 0x5EF PUSH1 0x18 DUP4 PUSH3 0x534 JUMP JUMPDEST SWAP2 POP PUSH3 0x5FC DUP3 PUSH3 0x5B7 JUMP JUMPDEST PUSH1 0x20 DUP3 ADD SWAP1 POP SWAP2 SWAP1 POP JUMP JUMPDEST PUSH1 0x0 PUSH1 0x20 DUP3 ADD SWAP1 POP DUP2 DUP2 SUB PUSH1 0x0 DUP4 ADD MSTORE PUSH3 0x622 DUP2 PUSH3 0x5E0 JUMP JUMPDEST SWAP1 POP SWAP2 SWAP1 POP JUMP JUMPDEST PUSH2 0x426E DUP1 PUSH3 0x639 PUSH1 0x0 CODECOPY PUSH1 0x0 RETURN INVALID PUSH1 0x80 PUSH1 0x40 MSTORE CALLVALUE DUP1 ISZERO PUSH2 0x10 JUMPI PUSH1 0x0 DUP1 REVERT JUMPDEST POP PUSH1 0x4 CALLDATASIZE LT PUSH2 0xA9 JUMPI PUSH1 0x0 CALLDATALOAD PUSH1 0xE0 SHR DUP1 PUSH4 0x5A76F25E GT PUSH2 0x71 JUMPI DUP1 PUSH4 0x5A76F25E EQ PUSH2 0x168 JUMPI DUP1 PUSH4 0x65119F72 EQ PUSH2 0x186 JUMPI DUP1 PUSH4 0xAC41865A EQ PUSH2 0x1B6 JUMPI DUP1 PUSH4 0xBAA2ABDE EQ PUSH2 0x1E6 JUMPI DUP1 PUSH4 0xD21220A7 EQ PUSH2 0x217 JUMPI DUP1 PUSH4 0xE8E33700 EQ PUSH2 0x235 JUMPI PUSH2 0xA9 JUMP JUMPDEST DUP1 PUSH4 0x54D50D4 EQ PUSH2 0xAE JUMPI DUP1 PUSH4 0xDFE1681 EQ PUSH2 0xDE JUMPI DUP1 PUSH4 0x15770F92 EQ PUSH2 0xFC JUMPI DUP1 PUSH4 0x38ED1739 EQ PUSH2 0x11A JUMPI DUP1 PUSH4 0x443CB4BC EQ PUSH2 0x14A JUMPI JUMPDEST PUSH1 0x0 DUP1 REVERT JUMPDEST PUSH2 0xC8 PUSH1 0x4 DUP1 CALLDATASIZE SUB DUP2 ADD SWAP1 PUSH2 0xC3 SWAP2 SWAP1 PUSH2 0x33BD JUMP JUMPDEST PUSH2 0x267 JUMP JUMPDEST PUSH1 0x40 MLOAD PUSH2 0xD5 SWAP2 SWAP1 PUSH2 0x341F JUMP JUMPDEST PUSH1 0x40 MLOAD DUP1 SWAP2 SUB SWAP1 RETURN JUMPDEST PUSH2 0xE6 PUSH2 0x3ED JUMP JUMPDEST PUSH1 0x40 MLOAD PUSH2 0xF3 SWAP2 SWAP1 PUSH2 0x347B JUMP JUMPDEST PUSH1 0x40 MLOAD DUP1 SWAP2 SUB SWAP1 RETURN JUMPDEST PUSH2 0x104 PUSH2 0x413 JUMP JUMPDEST PUSH1 0x40 MLOAD PUSH2 0x111 SWAP2 SWAP1 PUSH2 0x341F JUMP JUMPDEST PUSH1 0x40 MLOAD DUP1 SWAP2 SUB SWAP1 RETURN JUMPDEST PUSH2 0x134 PUSH1 0x4 DUP1 CALLDATASIZE SUB DUP2 ADD SWAP1 PUSH2 0x12F SWAP2 SWAP1 PUSH2 0x3527 JUMP JUMPDEST PUSH2 0x419 JUMP JUMPDEST PUSH1 0x40 MLOAD PUSH2 0x141 SWAP2 SWAP1 PUSH2 0x367F JUMP JUMPDEST PUSH1 0x40 MLOAD DUP1 SWAP2 SUB SWAP1 RETURN JUMPDEST PUSH2 0x152 PUSH2 0x10CC JUMP JUMPDEST PUSH1 0x40 MLOAD PUSH2 0x15F SWAP2 SWAP1 PUSH2 0x341F JUMP JUMPDEST PUSH1 0x40 MLOAD DUP1 SWAP2 SUB SWAP1 RETURN JUMPDEST PUSH2 0x170 PUSH2 0x10D2 JUMP JUMPDEST PUSH1 0x40 MLOAD PUSH2 0x17D SWAP2 SWAP1 PUSH2 0x341F JUMP JUMPDEST PUSH1 0x40 MLOAD DUP1 SWAP2 SUB SWAP1 RETURN JUMPDEST PUSH2 0x1A0 PUSH1 0x4 DUP1 CALLDATASIZE SUB DUP2 ADD SWAP1 PUSH2 0x19B SWAP2 SWAP1 PUSH2 0x36A1 JUMP JUMPDEST PUSH2 0x10D8 JUMP JUMPDEST PUSH1 0x40 MLOAD PUSH2 0x1AD SWAP2 SWAP1 PUSH2 0x341F JUMP JUMPDEST PUSH1 0x40 MLOAD DUP1 SWAP2 SUB SWAP1 RETURN JUMPDEST PUSH2 0x1D0 PUSH1 0x4 DUP1 CALLDATASIZE SUB DUP2 ADD SWAP1 PUSH2 0x1CB SWAP2 SWAP1 PUSH2 0x36CE JUMP JUMPDEST PUSH2 0x10F0 JUMP JUMPDEST PUSH1 0x40 MLOAD PUSH2 0x1DD SWAP2 SWAP1 PUSH2 0x341F JUMP JUMPDEST PUSH1 0x40 MLOAD DUP1 SWAP2 SUB SWAP1 RETURN JUMPDEST PUSH2 0x200 PUSH1 0x4 DUP1 CALLDATASIZE SUB DUP2 ADD SWAP1 PUSH2 0x1FB SWAP2 SWAP1 PUSH2 0x370E JUMP JUMPDEST PUSH2 0x1696 JUMP JUMPDEST PUSH1 0x40 MLOAD PUSH2 0x20E SWAP3 SWAP2 SWAP1 PUSH2 0x37B0 JUMP JUMPDEST PUSH1 0x40 MLOAD DUP1 SWAP2 SUB SWAP1 RETURN JUMPDEST PUSH2 0x21F PUSH2 0x22DD JUMP JUMPDEST PUSH1 0x40 MLOAD PUSH2 0x22C SWAP2 SWAP1 PUSH2 0x347B JUMP JUMPDEST PUSH1 0x40 MLOAD DUP1 SWAP2 SUB SWAP1 RETURN JUMPDEST PUSH2 0x24F PUSH1 0x4 DUP1 CALLDATASIZE SUB DUP2 ADD SWAP1 PUSH2 0x24A SWAP2 SWAP1 PUSH2 0x37D9 JUMP JUMPDEST PUSH2 0x2303 JUMP JUMPDEST PUSH1 0x40 MLOAD PUSH2 0x25E SWAP4 SWAP3 SWAP2 SWAP1 PUSH2 0x388F JUMP JUMPDEST PUSH1 0x40 MLOAD DUP1 SWAP2 SUB SWAP1 RETURN JUMPDEST PUSH1 0x0 PUSH2 0x27D PUSH8 0x95B12941618F916A PUSH1 0xC0 SHL PUSH2 0x313E JUMP JUMPDEST PUSH2 0x291 PUSH8 0x522654161A8849E7 PUSH1 0xC0 SHL PUSH2 0x313E JUMP JUMPDEST PUSH2 0x2A5 PUSH8 0xBCD7B12D562779C2 PUSH1 0xC0 SHL PUSH2 0x313E JUMP JUMPDEST PUSH1 0x0 PUSH2 0x3E8 PUSH2 0x3E5 DUP7 PUSH2 0x2B8 SWAP2 SWAP1 PUSH2 0x38F5 JUMP JUMPDEST PUSH2 0x2C2 SWAP2 SWAP1 PUSH2 0x3966 JUMP JUMPDEST SWAP1 POP PUSH2 0x2D8 PUSH8 0xDC041B774E71A822 PUSH1 0xC0 SHL PUSH2 0x313E JUMP JUMPDEST PUSH2 0x2EC PUSH8 0xA84D9F00BD532912 PUSH1 0xC0 SHL PUSH2 0x313E JUMP JUMPDEST PUSH1 0x0 DUP4 DUP3 PUSH2 0x2FA SWAP2 SWAP1 PUSH2 0x38F5 JUMP JUMPDEST SWAP1 POP PUSH2 0x310 PUSH8 0x95086EAAA6D8C5A1 PUSH1 0xC0 SHL PUSH2 0x313E JUMP JUMPDEST PUSH2 0x324 PUSH8 0xDF0F3598A0B27F4B PUSH1 0xC0 SHL PUSH2 0x313E JUMP JUMPDEST PUSH1 0x0 DUP3 DUP7 PUSH2 0x332 SWAP2 SWAP1 PUSH2 0x3997 JUMP JUMPDEST SWAP1 POP PUSH2 0x348 PUSH8 0xE526C36D0AAFDA34 PUSH1 0xC0 SHL PUSH2 0x313E JUMP JUMPDEST PUSH2 0x35C PUSH8 0x82C53D8B4D8EED9D PUSH1 0xC0 SHL PUSH2 0x313E JUMP JUMPDEST PUSH1 0x0 DUP2 SUB PUSH2 0x398 JUMPI PUSH2 0x378 PUSH8 0xF4DD9768A0257802 PUSH1 0xC0 SHL PUSH2 0x313E JUMP JUMPDEST PUSH2 0x38C PUSH8 0xDCC35C919CFA9101 PUSH1 0xC0 SHL PUSH2 0x313E JUMP JUMPDEST PUSH1 0x0 SWAP4 POP POP POP POP PUSH2 0x3E6 JUMP JUMPDEST PUSH2 0x3AC PUSH8 0xFA93C6F9DA9BFA56 PUSH1 0xC0 SHL PUSH2 0x313E JUMP JUMPDEST PUSH2 0x3C0 PUSH8 0xFE118C07D6FBAEBB PUSH1 0xC0 SHL PUSH2 0x313E JUMP JUMPDEST PUSH2 0x3D4 PUSH8 0x59BC803201A1C6E PUSH1 0xC0 SHL PUSH2 0x313E JUMP JUMPDEST DUP1 DUP3 PUSH2 0x3E0 SWAP2 SWAP1 PUSH2 0x3966 JUMP JUMPDEST SWAP4 POP POP POP POP JUMPDEST SWAP4 SWAP3 POP POP POP JUMP JUMPDEST PUSH1 0x1 PUSH1 0x0 SWAP1 SLOAD SWAP1 PUSH2 0x100 EXP SWAP1 DIV PUSH20 0xFFFFFFFFFFFFFFFFFFFFFFFFFFFFFFFFFFFFFFFF AND DUP2 JUMP JUMPDEST PUSH1 0x5 SLOAD DUP2 JUMP JUMPDEST PUSH1 0x60 PUSH2 0x42F PUSH8 0x3AFE2856B2C7EE7C PUSH1 0xC0 SHL PUSH2 0x313E JUMP JUMPDEST PUSH2 0x437 PUSH2 0x3141 JUMP JUMPDEST PUSH2 0x44B PUSH8 0x3BA56FB9773AC41C PUSH1 0xC0 SHL PUSH2 0x313E JUMP JUMPDEST PUSH2 0x45F PUSH8 0x2EC246413F29E042 PUSH1 0xC0 SHL PUSH2 0x313E JUMP JUMPDEST DUP2 PUSH2 0x474 PUSH8 0xE283B568588D4404 PUSH1 0xC0 SHL PUSH2 0x313E JUMP JUMPDEST PUSH2 0x488 PUSH8 0x76CF1B3FBEC898C7 PUSH1 0xC0 SHL PUSH2 0x313E JUMP JUMPDEST PUSH2 0x49C PUSH8 0xE4D2C66CAA7580C PUSH1 0xC0 SHL PUSH2 0x313E JUMP JUMPDEST PUSH2 0x4B0 PUSH8 0xD5C3866C28C80D88 PUSH1 0xC0 SHL PUSH2 0x313E JUMP JUMPDEST DUP1 TIMESTAMP GT ISZERO PUSH2 0x4F3 JUMPI PUSH1 0x40 MLOAD PUSH32 0x8C379A000000000000000000000000000000000000000000000000000000000 DUP2 MSTORE PUSH1 0x4 ADD PUSH2 0x4EA SWAP1 PUSH2 0x3A28 JUMP JUMPDEST PUSH1 0x40 MLOAD DUP1 SWAP2 SUB SWAP1 REVERT JUMPDEST PUSH2 0x507 PUSH8 0xCDD570E15FCEBF74 PUSH1 0xC0 SHL PUSH2 0x313E JUMP JUMPDEST PUSH2 0x51B PUSH8 0xC4CA57030108DAD1 PUSH1 0xC0 SHL PUSH2 0x313E JUMP JUMPDEST PUSH2 0x52F PUSH8 0xC595DD4A9FBF185B PUSH1 0xC0 SHL PUSH2 0x313E JUMP JUMPDEST PUSH2 0x543 PUSH8 0xDE8AD8691336FB32 PUSH1 0xC0 SHL PUSH2 0x313E JUMP JUMPDEST PUSH2 0x557 PUSH8 0xB8E664B02A3C7BFA PUSH1 0xC0 SHL PUSH2 0x313E JUMP JUMPDEST PUSH2 0x56B PUSH8 0xB62FFE9643E590FC PUSH1 0xC0 SHL PUSH2 0x313E JUMP JUMPDEST PUSH1 0x0 PUSH1 0x40 MLOAD DUP1 PUSH1 0xA0 ADD PUSH1 0x40 MSTORE DUP1 PUSH1 0x1 PUSH1 0x0 SWAP1 SLOAD SWAP1 PUSH2 0x100 EXP SWAP1 DIV PUSH20 0xFFFFFFFFFFFFFFFFFFFFFFFFFFFFFFFFFFFFFFFF AND PUSH20 0xFFFFFFFFFFFFFFFFFFFFFFFFFFFFFFFFFFFFFFFF AND DUP2 MSTORE PUSH1 0x20 ADD PUSH1 0x2 PUSH1 0x0 SWAP1 SLOAD SWAP1 PUSH2 0x100 EXP SWAP1 DIV PUSH20 0xFFFFFFFFFFFFFFFFFFFFFFFFFFFFFFFFFFFFFFFF AND PUSH20 0xFFFFFFFFFFFFFFFFFFFFFFFFFFFFFFFFFFFFFFFF AND DUP2 MSTORE PUSH1 0x20 ADD PUSH1 0x3 SLOAD DUP2 MSTORE PUSH1 0x20 ADD PUSH1 0x4 SLOAD DUP2 MSTORE PUSH1 0x20 ADD PUSH1 0x5 SLOAD DUP2 MSTORE POP SWAP1 POP PUSH2 0x620 PUSH8 0xF4148257126A9C7E PUSH1 0xC0 SHL PUSH2 0x313E JUMP JUMPDEST PUSH2 0x634 PUSH8 0x8E7259F456ABC9A2 PUSH1 0xC0 SHL PUSH2 0x313E JUMP JUMPDEST PUSH2 0x648 PUSH8 0xA5C81F24A42734E2 PUSH1 0xC0 SHL PUSH2 0x313E JUMP JUMPDEST PUSH1 0x2 DUP8 DUP8 SWAP1 POP EQ PUSH2 0x68E JUMPI PUSH1 0x40 MLOAD PUSH32 0x8C379A000000000000000000000000000000000000000000000000000000000 DUP2 MSTORE PUSH1 0x4 ADD PUSH2 0x685 SWAP1 PUSH2 0x3A94 JUMP JUMPDEST PUSH1 0x40 MLOAD DUP1 SWAP2 SUB SWAP1 REVERT JUMPDEST PUSH2 0x6A2 PUSH8 0x18DC63A6777F5520 PUSH1 0xC0 SHL PUSH2 0x313E JUMP JUMPDEST PUSH2 0x6B6 PUSH8 0xE030CABD9450E8A3 PUSH1 0xC0 SHL PUSH2 0x313E JUMP JUMPDEST PUSH2 0x6CA PUSH8 0x6B43C58C253AE759 PUSH1 0xC0 SHL PUSH2 0x313E JUMP JUMPDEST PUSH2 0x6DE PUSH8 0x67D4DACD9EA453F9 PUSH1 0xC0 SHL PUSH2 0x313E JUMP JUMPDEST PUSH1 0x0 PUSH20 0xFFFFFFFFFFFFFFFFFFFFFFFFFFFFFFFFFFFFFFFF AND DUP6 PUSH20 0xFFFFFFFFFFFFFFFFFFFFFFFFFFFFFFFFFFFFFFFF AND SUB PUSH2 0x74D JUMPI PUSH1 0x40 MLOAD PUSH32 0x8C379A000000000000000000000000000000000000000000000000000000000 DUP2 MSTORE PUSH1 0x4 ADD PUSH2 0x744 SWAP1 PUSH2 0x3B00 JUMP JUMPDEST PUSH1 0x40 MLOAD DUP1 SWAP2 SUB SWAP1 REVERT JUMPDEST PUSH2 0x761 PUSH8 0xD54DAAF82E0A19C PUSH1 0xC0 SHL PUSH2 0x313E JUMP JUMPDEST PUSH2 0x775 PUSH8 0xA49BE89C884D501C PUSH1 0xC0 SHL PUSH2 0x313E JUMP JUMPDEST PUSH2 0x789 PUSH8 0x22375F296D2B140C PUSH1 0xC0 SHL PUSH2 0x313E JUMP JUMPDEST PUSH2 0x79D PUSH8 0x7BA98AD4EDEFE331 PUSH1 0xC0 SHL PUSH2 0x313E JUMP JUMPDEST PUSH1 0x0 DUP10 GT PUSH2 0x7E0 JUMPI PUSH1 0x40 MLOAD PUSH32 0x8C379A000000000000000000000000000000000000000000000000000000000 DUP2 MSTORE PUSH1 0x4 ADD PUSH2 0x7D7 SWAP1 PUSH2 0x3B6C JUMP JUMPDEST PUSH1 0x40 MLOAD DUP1 SWAP2 SUB SWAP1 REVERT JUMPDEST PUSH2 0x7F4 PUSH8 0x334A78A50BC3A2DE PUSH1 0xC0 SHL PUSH2 0x313E JUMP JUMPDEST PUSH2 0x808 PUSH8 0xA00B5A303E6779C7 PUSH1 0xC0 SHL PUSH2 0x313E JUMP JUMPDEST PUSH2 0x81C PUSH8 0x8FBAA3B3DC1B8A9C PUSH1 0xC0 SHL PUSH2 0x313E JUMP JUMPDEST PUSH1 0x0 DUP8 DUP8 PUSH1 0x0 DUP2 DUP2 LT PUSH2 0x832 JUMPI PUSH2 0x831 PUSH2 0x3B8C JUMP JUMPDEST JUMPDEST SWAP1 POP PUSH1 0x20 MUL ADD PUSH1 0x20 DUP2 ADD SWAP1 PUSH2 0x847 SWAP2 SWAP1 PUSH2 0x36A1 JUMP JUMPDEST SWAP1 POP PUSH2 0x85D PUSH8 0x8433967253B43941 PUSH1 0xC0 SHL PUSH2 0x313E JUMP JUMPDEST PUSH2 0x871 PUSH8 0x72CADE0C073A287D PUSH1 0xC0 SHL PUSH2 0x313E JUMP JUMPDEST PUSH1 0x0 DUP9 DUP9 PUSH1 0x1 DUP2 DUP2 LT PUSH2 0x887 JUMPI PUSH2 0x886 PUSH2 0x3B8C JUMP JUMPDEST JUMPDEST SWAP1 POP PUSH1 0x20 MUL ADD PUSH1 0x20 DUP2 ADD SWAP1 PUSH2 0x89C SWAP2 SWAP1 PUSH2 0x36A1 JUMP JUMPDEST SWAP1 POP PUSH2 0x8B2 PUSH8 0x77399BD725A48CE9 PUSH1 0xC0 SHL PUSH2 0x313E JUMP JUMPDEST PUSH2 0x8C6 PUSH8 0x8C46D701FE48A326 PUSH1 0xC0 SHL PUSH2 0x313E JUMP JUMPDEST PUSH2 0x8DA PUSH8 0xCA844CF6015019E1 PUSH1 0xC0 SHL PUSH2 0x313E JUMP JUMPDEST DUP3 PUSH1 0x0 ADD MLOAD PUSH20 0xFFFFFFFFFFFFFFFFFFFFFFFFFFFFFFFFFFFFFFFF AND DUP3 PUSH20 0xFFFFFFFFFFFFFFFFFFFFFFFFFFFFFFFFFFFFFFFF AND EQ DUP1 ISZERO PUSH2 0x948 JUMPI POP DUP3 PUSH1 0x20 ADD MLOAD PUSH20 0xFFFFFFFFFFFFFFFFFFFFFFFFFFFFFFFFFFFFFFFF AND DUP2 PUSH20 0xFFFFFFFFFFFFFFFFFFFFFFFFFFFFFFFFFFFFFFFF AND EQ JUMPDEST DUP1 ISZERO PUSH2 0x964 JUMPI POP PUSH2 0x963 PUSH8 0x29005315557D2460 PUSH1 0xC0 SHL PUSH2 0x3187 JUMP JUMPDEST JUMPDEST DUP1 PUSH2 0x9F5 JUMPI POP DUP3 PUSH1 0x20 ADD MLOAD PUSH20 0xFFFFFFFFFFFFFFFFFFFFFFFFFFFFFFFFFFFFFFFF AND DUP3 PUSH20 0xFFFFFFFFFFFFFFFFFFFFFFFFFFFFFFFFFFFFFFFF AND EQ DUP1 ISZERO PUSH2 0x9D8 JUMPI POP DUP3 PUSH1 0x0 ADD MLOAD PUSH20 0xFFFFFFFFFFFFFFFFFFFFFFFFFFFFFFFFFFFFFFFF AND DUP2 PUSH20 0xFFFFFFFFFFFFFFFFFFFFFFFFFFFFFFFFFFFFFFFF AND EQ JUMPDEST DUP1 ISZERO PUSH2 0x9F4 JUMPI POP PUSH2 0x9F3 PUSH8 0x3831FBB186ED94E1 PUSH1 0xC0 SHL PUSH2 0x3187 JUMP JUMPDEST JUMPDEST JUMPDEST PUSH2 0xA34 JUMPI PUSH1 0x40 MLOAD PUSH32 0x8C379A000000000000000000000000000000000000000000000000000000000 DUP2 MSTORE PUSH1 0x4 ADD PUSH2 0xA2B SWAP1 PUSH2 0x3C07 JUMP JUMPDEST PUSH1 0x40 MLOAD DUP1 SWAP2 SUB SWAP1 REVERT JUMPDEST PUSH2 0xA48 PUSH8 0x6F0F0112BE734294 PUSH1 0xC0 SHL PUSH2 0x313E JUMP JUMPDEST PUSH2 0xA5C PUSH8 0x4B2B6248043D8B22 PUSH1 0xC0 SHL PUSH2 0x313E JUMP JUMPDEST PUSH2 0xA70 PUSH8 0x7CCDDECE99BB0AA5 PUSH1 0xC0 SHL PUSH2 0x313E JUMP JUMPDEST DUP2 PUSH20 0xFFFFFFFFFFFFFFFFFFFFFFFFFFFFFFFFFFFFFFFF AND PUSH4 0x23B872DD CALLER ADDRESS DUP15 PUSH1 0x40 MLOAD DUP5 PUSH4 0xFFFFFFFF AND PUSH1 0xE0 SHL DUP2 MSTORE PUSH1 0x4 ADD PUSH2 0xAAD SWAP4 SWAP3 SWAP2 SWAP1 PUSH2 0x3C27 JUMP JUMPDEST PUSH1 0x20 PUSH1 0x40 MLOAD DUP1 DUP4 SUB DUP2 PUSH1 0x0 DUP8 GAS CALL ISZERO DUP1 ISZERO PUSH2 0xACC JUMPI RETURNDATASIZE PUSH1 0x0 DUP1 RETURNDATACOPY RETURNDATASIZE PUSH1 0x0 REVERT JUMPDEST POP POP POP POP PUSH1 0x40 MLOAD RETURNDATASIZE PUSH1 0x1F NOT PUSH1 0x1F DUP3 ADD AND DUP3 ADD DUP1 PUSH1 0x40 MSTORE POP DUP2 ADD SWAP1 PUSH2 0xAF0 SWAP2 SWAP1 PUSH2 0x3C96 JUMP JUMPDEST POP PUSH2 0xB05 PUSH8 0x6EE6AA65EE99BD72 PUSH1 0xC0 SHL PUSH2 0x313E JUMP JUMPDEST PUSH2 0xB19 PUSH8 0x3CCB938A354AA0E4 PUSH1 0xC0 SHL PUSH2 0x313E JUMP JUMPDEST PUSH1 0x0 DUP4 PUSH1 0x0 ADD MLOAD PUSH20 0xFFFFFFFFFFFFFFFFFFFFFFFFFFFFFFFFFFFFFFFF AND DUP4 PUSH20 0xFFFFFFFFFFFFFFFFFFFFFFFFFFFFFFFFFFFFFFFF AND EQ SWAP1 POP PUSH2 0xB64 PUSH8 0x6A17B3C96A36CA91 PUSH1 0xC0 SHL PUSH2 0x313E JUMP JUMPDEST PUSH2 0xB78 PUSH8 0x8C98D620B19F7D93 PUSH1 0xC0 SHL PUSH2 0x313E JUMP JUMPDEST PUSH1 0x0 DUP2 DUP1 PUSH2 0xB96 JUMPI POP PUSH2 0xB95 PUSH8 0xF10EC88F3DB6526D PUSH1 0xC0 SHL PUSH2 0x3192 JUMP JUMPDEST JUMPDEST DUP1 ISZERO PUSH2 0xBB2 JUMPI POP PUSH2 0xBB1 PUSH8 0xBA276B7660D1ADE4 PUSH1 0xC0 SHL PUSH2 0x3187 JUMP JUMPDEST JUMPDEST PUSH2 0xBC0 JUMPI DUP5 PUSH1 0x60 ADD MLOAD PUSH2 0xBC6 JUMP JUMPDEST DUP5 PUSH1 0x40 ADD MLOAD JUMPDEST SWAP1 POP PUSH2 0xBDC PUSH8 0x6DECFFD7D47B1600 PUSH1 0xC0 SHL PUSH2 0x313E JUMP JUMPDEST PUSH2 0xBF0 PUSH8 0xBFF0C93A47FB7D3D PUSH1 0xC0 SHL PUSH2 0x313E JUMP JUMPDEST PUSH1 0x0 DUP3 DUP1 PUSH2 0xC0E JUMPI POP PUSH2 0xC0D PUSH8 0x95897F4AD73C5BD7 PUSH1 0xC0 SHL PUSH2 0x3192 JUMP JUMPDEST JUMPDEST DUP1 ISZERO PUSH2 0xC2A JUMPI POP PUSH2 0xC29 PUSH8 0xE4B7377AD58860A2 PUSH1 0xC0 SHL PUSH2 0x3187 JUMP JUMPDEST JUMPDEST PUSH2 0xC38 JUMPI DUP6 PUSH1 0x40 ADD MLOAD PUSH2 0xC3E JUMP JUMPDEST DUP6 PUSH1 0x60 ADD MLOAD JUMPDEST SWAP1 POP PUSH2 0xC54 PUSH8 0xB1F609D159FA0B1E PUSH1 0xC0 SHL PUSH2 0x313E JUMP JUMPDEST PUSH2 0xC68 PUSH8 0x721FC7FF07084965 PUSH1 0xC0 SHL PUSH2 0x313E JUMP JUMPDEST PUSH2 0xC7C PUSH8 0xAD4FDC27E5BEC3B1 PUSH1 0xC0 SHL PUSH2 0x313E JUMP JUMPDEST PUSH1 0x0 DUP3 GT DUP1 ISZERO PUSH2 0xC8C JUMPI POP PUSH1 0x0 DUP2 GT JUMPDEST PUSH2 0xCCB JUMPI PUSH1 0x40 MLOAD PUSH32 0x8C379A000000000000000000000000000000000000000000000000000000000 DUP2 MSTORE PUSH1 0x4 ADD PUSH2 0xCC2 SWAP1 PUSH2 0x3D0F JUMP JUMPDEST PUSH1 0x40 MLOAD DUP1 SWAP2 SUB SWAP1 REVERT JUMPDEST PUSH2 0xCDF PUSH8 0x586A5BA48EA123FE PUSH1 0xC0 SHL PUSH2 0x313E JUMP JUMPDEST PUSH2 0xCF3 PUSH8 0xE7CF746190F4F274 PUSH1 0xC0 SHL PUSH2 0x313E JUMP JUMPDEST PUSH2 0xD07 PUSH8 0x3976A56BB1BFC73A PUSH1 0xC0 SHL PUSH2 0x313E JUMP JUMPDEST PUSH1 0x0 PUSH2 0xD14 DUP16 DUP5 DUP5 PUSH2 0x267 JUMP JUMPDEST SWAP1 POP PUSH2 0xD2A PUSH8 0x6CD1C4D9FC4094E0 PUSH1 0xC0 SHL PUSH2 0x313E JUMP JUMPDEST PUSH2 0xD3E PUSH8 0xFE550FDC6536A0E1 PUSH1 0xC0 SHL PUSH2 0x313E JUMP JUMPDEST PUSH2 0xD52 PUSH8 0x8E53A4B896A8B2CD PUSH1 0xC0 SHL PUSH2 0x313E JUMP JUMPDEST DUP14 DUP2 LT ISZERO PUSH2 0xD95 JUMPI PUSH1 0x40 MLOAD PUSH32 0x8C379A000000000000000000000000000000000000000000000000000000000 DUP2 MSTORE PUSH1 0x4 ADD PUSH2 0xD8C SWAP1 PUSH2 0x3D7B JUMP JUMPDEST PUSH1 0x40 MLOAD DUP1 SWAP2 SUB SWAP1 REVERT JUMPDEST PUSH2 0xDA9 PUSH8 0xA9669A89DCC7FCC3 PUSH1 0xC0 SHL PUSH2 0x313E JUMP JUMPDEST PUSH2 0xDBD PUSH8 0xDB9193619CE016F7 PUSH1 0xC0 SHL PUSH2 0x313E JUMP JUMPDEST PUSH2 0xDD1 PUSH8 0xC5B383047EEBF21F PUSH1 0xC0 SHL PUSH2 0x313E JUMP JUMPDEST DUP4 ISZERO PUSH2 0xE3C JUMPI PUSH2 0xDEB PUSH8 0xE45EE3ACFB1201A5 PUSH1 0xC0 SHL PUSH2 0x313E JUMP JUMPDEST PUSH2 0xDFF PUSH8 0xF3D5BF254D4DF1B2 PUSH1 0xC0 SHL PUSH2 0x313E JUMP JUMPDEST DUP15 DUP4 PUSH2 0xE0B SWAP2 SWAP1 PUSH2 0x3997 JUMP JUMPDEST PUSH1 0x3 DUP2 SWAP1 SSTORE POP PUSH2 0xE25 PUSH8 0xBB658BFC9EDABEE PUSH1 0xC0 SHL PUSH2 0x313E JUMP JUMPDEST DUP1 DUP3 PUSH2 0xE31 SWAP2 SWAP1 PUSH2 0x3D9B JUMP JUMPDEST PUSH1 0x4 DUP2 SWAP1 SSTORE POP PUSH2 0xE9D JUMP JUMPDEST PUSH2 0xE50 PUSH8 0xAB68649DAEF484F5 PUSH1 0xC0 SHL PUSH2 0x313E JUMP JUMPDEST PUSH2 0xE64 PUSH8 0xDEA62FADEB5A0814 PUSH1 0xC0 SHL PUSH2 0x313E JUMP JUMPDEST DUP15 DUP4 PUSH2 0xE70 SWAP2 SWAP1 PUSH2 0x3997 JUMP JUMPDEST PUSH1 0x4 DUP2 SWAP1 SSTORE POP PUSH2 0xE8A PUSH8 0x3413028180C3991E PUSH1 0xC0 SHL PUSH2 0x313E JUMP JUMPDEST DUP1 DUP3 PUSH2 0xE96 SWAP2 SWAP1 PUSH2 0x3D9B JUMP JUMPDEST PUSH1 0x3 DUP2 SWAP1 SSTORE POP JUMPDEST PUSH2 0xEB1 PUSH8 0x50C49667865BA16E PUSH1 0xC0 SHL PUSH2 0x313E JUMP JUMPDEST PUSH2 0xEC5 PUSH8 0x797C1FCD810969F7 PUSH1 0xC0 SHL PUSH2 0x313E JUMP JUMPDEST DUP5 PUSH20 0xFFFFFFFFFFFFFFFFFFFFFFFFFFFFFFFFFFFFFFFF AND PUSH4 0xA9059CBB DUP13 DUP4 PUSH1 0x40 MLOAD DUP4 PUSH4 0xFFFFFFFF AND PUSH1 0xE0 SHL DUP2 MSTORE PUSH1 0x4 ADD PUSH2 0xF00 SWAP3 SWAP2 SWAP1 PUSH2 0x3DCF JUMP JUMPDEST PUSH1 0x20 PUSH1 0x40 MLOAD DUP1 DUP4 SUB DUP2 PUSH1 0x0 DUP8 GAS CALL ISZERO DUP1 ISZERO PUSH2 0xF1F JUMPI RETURNDATASIZE PUSH1 0x0 DUP1 RETURNDATACOPY RETURNDATASIZE PUSH1 0x0 REVERT JUMPDEST POP POP POP POP PUSH1 0x40 MLOAD RETURNDATASIZE PUSH1 0x1F NOT PUSH1 0x1F DUP3 ADD AND DUP3 ADD DUP1 PUSH1 0x40 MSTORE POP DUP2 ADD SWAP1 PUSH2 0xF43 SWAP2 SWAP1 PUSH2 0x3C96 JUMP JUMPDEST POP PUSH2 0xF58 PUSH8 0xF76C75EFF281E6FC PUSH1 0xC0 SHL PUSH2 0x313E JUMP JUMPDEST PUSH2 0xF6C PUSH8 0xDFFA406AB0516AA PUSH1 0xC0 SHL PUSH2 0x313E JUMP JUMPDEST DUP5 PUSH20 0xFFFFFFFFFFFFFFFFFFFFFFFFFFFFFFFFFFFFFFFF AND DUP7 PUSH20 0xFFFFFFFFFFFFFFFFFFFFFFFFFFFFFFFFFFFFFFFF AND CALLER PUSH20 0xFFFFFFFFFFFFFFFFFFFFFFFFFFFFFFFFFFFFFFFF AND PUSH32 0x8D305EB0DD4191C0E7E56004355DBCB1312A9D8C9B2F8EC942A31C9C3E443E9D TIMESTAMP PUSH1 0x40 MLOAD PUSH2 0xFE0 SWAP2 SWAP1 PUSH2 0x341F JUMP JUMPDEST PUSH1 0x40 MLOAD DUP1 SWAP2 SUB SWAP1 LOG4 PUSH2 0xFFC PUSH8 0xF495F5DE91236170 PUSH1 0xC0 SHL PUSH2 0x313E JUMP JUMPDEST PUSH1 0x2 PUSH8 0xFFFFFFFFFFFFFFFF DUP2 GT ISZERO PUSH2 0x1017 JUMPI PUSH2 0x1016 PUSH2 0x3DF8 JUMP JUMPDEST JUMPDEST PUSH1 0x40 MLOAD SWAP1 DUP1 DUP3 MSTORE DUP1 PUSH1 0x20 MUL PUSH1 0x20 ADD DUP3 ADD PUSH1 0x40 MSTORE DUP1 ISZERO PUSH2 0x1045 JUMPI DUP2 PUSH1 0x20 ADD PUSH1 0x20 DUP3 MUL DUP1 CALLDATASIZE DUP4 CALLDATACOPY DUP1 DUP3 ADD SWAP2 POP POP SWAP1 POP JUMPDEST POP SWAP9 POP PUSH2 0x105C PUSH8 0x4E895BD640311B89 PUSH1 0xC0 SHL PUSH2 0x313E JUMP JUMPDEST DUP15 DUP10 PUSH1 0x0 DUP2 MLOAD DUP2 LT PUSH2 0x1071 JUMPI PUSH2 0x1070 PUSH2 0x3B8C JUMP JUMPDEST JUMPDEST PUSH1 0x20 MUL PUSH1 0x20 ADD ADD DUP2 DUP2 MSTORE POP POP PUSH2 0x1091 PUSH8 0xA849CBF9FB8E692E PUSH1 0xC0 SHL PUSH2 0x313E JUMP JUMPDEST DUP1 DUP10 PUSH1 0x1 DUP2 MLOAD DUP2 LT PUSH2 0x10A6 JUMPI PUSH2 0x10A5 PUSH2 0x3B8C JUMP JUMPDEST JUMPDEST PUSH1 0x20 MUL PUSH1 0x20 ADD ADD DUP2 DUP2 MSTORE POP POP POP POP POP POP POP POP POP POP PUSH2 0x10C2 PUSH2 0x3199 JUMP JUMPDEST SWAP7 SWAP6 POP POP POP POP POP POP JUMP JUMPDEST PUSH1 0x3 SLOAD DUP2 JUMP JUMPDEST PUSH1 0x4 SLOAD DUP2 JUMP JUMPDEST PUSH1 0x6 PUSH1 0x20 MSTORE DUP1 PUSH1 0x0 MSTORE PUSH1 0x40 PUSH1 0x0 KECCAK256 PUSH1 0x0 SWAP2 POP SWAP1 POP SLOAD DUP2 JUMP JUMPDEST PUSH1 0x0 PUSH2 0x1106 PUSH8 0xFCED321876328C7C PUSH1 0xC0 SHL PUSH2 0x313E JUMP JUMPDEST PUSH2 0x111A PUSH8 0x6BE1D019458592FE PUSH1 0xC0 SHL PUSH2 0x313E JUMP JUMPDEST PUSH2 0x112E PUSH8 0x8ECCCA758E7B8E91 PUSH1 0xC0 SHL PUSH2 0x313E JUMP JUMPDEST PUSH2 0x1142 PUSH8 0x2730E011CFFA37CD PUSH1 0xC0 SHL PUSH2 0x313E JUMP JUMPDEST PUSH1 0x0 PUSH20 0xFFFFFFFFFFFFFFFFFFFFFFFFFFFFFFFFFFFFFFFF AND DUP4 PUSH20 0xFFFFFFFFFFFFFFFFFFFFFFFFFFFFFFFFFFFFFFFF AND EQ ISZERO DUP1 ISZERO PUSH2 0x11AC JUMPI POP PUSH1 0x0 PUSH20 0xFFFFFFFFFFFFFFFFFFFFFFFFFFFFFFFFFFFFFFFF AND DUP3 PUSH20 0xFFFFFFFFFFFFFFFFFFFFFFFFFFFFFFFFFFFFFFFF AND EQ ISZERO JUMPDEST PUSH2 0x11EB JUMPI PUSH1 0x40 MLOAD PUSH32 0x8C379A000000000000000000000000000000000000000000000000000000000 DUP2 MSTORE PUSH1 0x4 ADD PUSH2 0x11E2 SWAP1 PUSH2 0x3E73 JUMP JUMPDEST PUSH1 0x40 MLOAD DUP1 SWAP2 SUB SWAP1 REVERT JUMPDEST PUSH2 0x11FF PUSH8 0xC4C8C92AB21EA549 PUSH1 0xC0 SHL PUSH2 0x313E JUMP JUMPDEST PUSH2 0x1213 PUSH8 0x92B2BDE78C012E6E PUSH1 0xC0 SHL PUSH2 0x313E JUMP JUMPDEST PUSH2 0x1227 PUSH8 0xEA2836D36C0319E6 PUSH1 0xC0 SHL PUSH2 0x313E JUMP JUMPDEST PUSH2 0x123B PUSH8 0x872831A9AF6E7742 PUSH1 0xC0 SHL PUSH2 0x313E JUMP JUMPDEST PUSH1 0x1 PUSH1 0x0 SWAP1 SLOAD SWAP1 PUSH2 0x100 EXP SWAP1 DIV PUSH20 0xFFFFFFFFFFFFFFFFFFFFFFFFFFFFFFFFFFFFFFFF AND PUSH20 0xFFFFFFFFFFFFFFFFFFFFFFFFFFFFFFFFFFFFFFFF AND DUP4 PUSH20 0xFFFFFFFFFFFFFFFFFFFFFFFFFFFFFFFFFFFFFFFF AND EQ DUP1 ISZERO PUSH2 0x12E5 JUMPI POP PUSH1 0x2 PUSH1 0x0 SWAP1 SLOAD SWAP1 PUSH2 0x100 EXP SWAP1 DIV PUSH20 0xFFFFFFFFFFFFFFFFFFFFFFFFFFFFFFFFFFFFFFFF AND PUSH20 0xFFFFFFFFFFFFFFFFFFFFFFFFFFFFFFFFFFFFFFFF AND DUP3 PUSH20 0xFFFFFFFFFFFFFFFFFFFFFFFFFFFFFFFFFFFFFFFF AND EQ JUMPDEST DUP1 ISZERO PUSH2 0x1301 JUMPI POP PUSH2 0x1300 PUSH8 0x7AFF136FBFC8CF9D PUSH1 0xC0 SHL PUSH2 0x3187 JUMP JUMPDEST JUMPDEST DUP1 PUSH2 0x13CE JUMPI POP PUSH1 0x2 PUSH1 0x0 SWAP1 SLOAD SWAP1 PUSH2 0x100 EXP SWAP1 DIV PUSH20 0xFFFFFFFFFFFFFFFFFFFFFFFFFFFFFFFFFFFFFFFF AND PUSH20 0xFFFFFFFFFFFFFFFFFFFFFFFFFFFFFFFFFFFFFFFF AND DUP4 PUSH20 0xFFFFFFFFFFFFFFFFFFFFFFFFFFFFFFFFFFFFFFFF AND EQ DUP1 ISZERO PUSH2 0x13B1 JUMPI POP PUSH1 0x1 PUSH1 0x0 SWAP1 SLOAD SWAP1 PUSH2 0x100 EXP SWAP1 DIV PUSH20 0xFFFFFFFFFFFFFFFFFFFFFFFFFFFFFFFFFFFFFFFF AND PUSH20 0xFFFFFFFFFFFFFFFFFFFFFFFFFFFFFFFFFFFFFFFF AND DUP3 PUSH20 0xFFFFFFFFFFFFFFFFFFFFFFFFFFFFFFFFFFFFFFFF AND EQ JUMPDEST DUP1 ISZERO PUSH2 0x13CD JUMPI POP PUSH2 0x13CC PUSH8 0xFF4F69E636D01124 PUSH1 0xC0 SHL PUSH2 0x3187 JUMP JUMPDEST JUMPDEST JUMPDEST PUSH2 0x140D JUMPI PUSH1 0x40 MLOAD PUSH32 0x8C379A000000000000000000000000000000000000000000000000000000000 DUP2 MSTORE PUSH1 0x4 ADD PUSH2 0x1404 SWAP1 PUSH2 0x3C07 JUMP JUMPDEST PUSH1 0x40 MLOAD DUP1 SWAP2 SUB SWAP1 REVERT JUMPDEST PUSH2 0x1421 PUSH8 0x1CD58B3D78E18873 PUSH1 0xC0 SHL PUSH2 0x313E JUMP JUMPDEST PUSH2 0x1435 PUSH8 0xBF3B5613F7009D0C PUSH1 0xC0 SHL PUSH2 0x313E JUMP JUMPDEST PUSH2 0x1449 PUSH8 0x69166B24063EA6B PUSH1 0xC0 SHL PUSH2 0x313E JUMP JUMPDEST PUSH1 0x0 PUSH1 0x3 SLOAD EQ DUP1 ISZERO PUSH2 0x146B JUMPI POP PUSH2 0x146A PUSH8 0x5994E10C186D75D6 PUSH1 0xC0 SHL PUSH2 0x3187 JUMP JUMPDEST JUMPDEST DUP1 PUSH2 0x1494 JUMPI POP PUSH1 0x0 PUSH1 0x4 SLOAD EQ DUP1 ISZERO PUSH2 0x1493 JUMPI POP PUSH2 0x1492 PUSH8 0x9F0375E5ABA2D3C7 PUSH1 0xC0 SHL PUSH2 0x3187 JUMP JUMPDEST JUMPDEST JUMPDEST ISZERO PUSH2 0x14CA JUMPI PUSH2 0x14AD PUSH8 0xB34BEA9972A7761E PUSH1 0xC0 SHL PUSH2 0x313E JUMP JUMPDEST PUSH2 0x14C1 PUSH8 0x1807A82BC68FC128 PUSH1 0xC0 SHL PUSH2 0x313E JUMP JUMPDEST PUSH1 0x0 SWAP1 POP PUSH2 0x1690 JUMP JUMPDEST PUSH2 0x14DE PUSH8 0x7A80C4AB30B8B0A3 PUSH1 0xC0 SHL PUSH2 0x313E JUMP JUMPDEST PUSH2 0x14F2 PUSH8 0x7DC6A8E2FE9C8FE4 PUSH1 0xC0 SHL PUSH2 0x313E JUMP JUMPDEST PUSH2 0x1506 PUSH8 0x1421BB1F35646AD0 PUSH1 0xC0 SHL PUSH2 0x313E JUMP JUMPDEST PUSH1 0x0 PUSH1 0x1 PUSH1 0x0 SWAP1 SLOAD SWAP1 PUSH2 0x100 EXP SWAP1 DIV PUSH20 0xFFFFFFFFFFFFFFFFFFFFFFFFFFFFFFFFFFFFFFFF AND PUSH20 0xFFFFFFFFFFFFFFFFFFFFFFFFFFFFFFFFFFFFFFFF AND DUP5 PUSH20 0xFFFFFFFFFFFFFFFFFFFFFFFFFFFFFFFFFFFFFFFF AND EQ SWAP1 POP PUSH2 0x156F PUSH8 0x73026CAEB0154EB0 PUSH1 0xC0 SHL PUSH2 0x313E JUMP JUMPDEST PUSH2 0x1583 PUSH8 0x7171C157C9FAD8F3 PUSH1 0xC0 SHL PUSH2 0x313E JUMP JUMPDEST PUSH1 0x0 DUP2 DUP1 PUSH2 0x15A1 JUMPI POP PUSH2 0x15A0 PUSH8 0x679A514106B2F70C PUSH1 0xC0 SHL PUSH2 0x3192 JUMP JUMPDEST JUMPDEST DUP1 ISZERO PUSH2 0x15BD JUMPI POP PUSH2 0x15BC PUSH8 0x5D4874F5E504D279 PUSH1 0xC0 SHL PUSH2 0x3187 JUMP JUMPDEST JUMPDEST PUSH2 0x15C9 JUMPI PUSH1 0x4 SLOAD PUSH2 0x15CD JUMP JUMPDEST PUSH1 0x3 SLOAD JUMPDEST SWAP1 POP PUSH2 0x15E3 PUSH8 0xEC8FB3CCCB99E086 PUSH1 0xC0 SHL PUSH2 0x313E JUMP JUMPDEST PUSH2 0x15F7 PUSH8 0x8DB7B1A17BA90CB8 PUSH1 0xC0 SHL PUSH2 0x313E JUMP JUMPDEST PUSH1 0x0 DUP3 DUP1 PUSH2 0x1615 JUMPI POP PUSH2 0x1614 PUSH8 0x5B6496759DD97DC2 PUSH1 0xC0 SHL PUSH2 0x3192 JUMP JUMPDEST JUMPDEST DUP1 ISZERO PUSH2 0x1631 JUMPI POP PUSH2 0x1630 PUSH8 0xFF013118787DA194 PUSH1 0xC0 SHL PUSH2 0x3187 JUMP JUMPDEST JUMPDEST PUSH2 0x163D JUMPI PUSH1 0x3 SLOAD PUSH2 0x1641 JUMP JUMPDEST PUSH1 0x4 SLOAD JUMPDEST SWAP1 POP PUSH2 0x1657 PUSH8 0x7214042BD5D3E650 PUSH1 0xC0 SHL PUSH2 0x313E JUMP JUMPDEST PUSH2 0x166B PUSH8 0xB9A6C0DEC00C80B2 PUSH1 0xC0 SHL PUSH2 0x313E JUMP JUMPDEST DUP2 PUSH8 0xDE0B6B3A7640000 DUP3 PUSH2 0x1680 SWAP2 SWAP1 PUSH2 0x38F5 JUMP JUMPDEST PUSH2 0x168A SWAP2 SWAP1 PUSH2 0x3966 JUMP JUMPDEST SWAP4 POP POP POP POP JUMPDEST SWAP3 SWAP2 POP POP JUMP JUMPDEST PUSH1 0x0 DUP1 PUSH2 0x16AD PUSH8 0x1D4564180F465BF4 PUSH1 0xC0 SHL PUSH2 0x313E JUMP JUMPDEST PUSH2 0x16B5 PUSH2 0x3141 JUMP JUMPDEST PUSH2 0x16C9 PUSH8 0xFC39D81EB31FFAF5 PUSH1 0xC0 SHL PUSH2 0x313E JUMP JUMPDEST PUSH2 0x16DD PUSH8 0xE185D87D6866FD6E PUSH1 0xC0 SHL PUSH2 0x313E JUMP JUMPDEST DUP3 PUSH2 0x16F2 PUSH8 0xE283B568588D4404 PUSH1 0xC0 SHL PUSH2 0x313E JUMP JUMPDEST PUSH2 0x1706 PUSH8 0x76CF1B3FBEC898C7 PUSH1 0xC0 SHL PUSH2 0x313E JUMP JUMPDEST PUSH2 0x171A PUSH8 0xE4D2C66CAA7580C PUSH1 0xC0 SHL PUSH2 0x313E JUMP JUMPDEST PUSH2 0x172E PUSH8 0xD5C3866C28C80D88 PUSH1 0xC0 SHL PUSH2 0x313E JUMP JUMPDEST DUP1 TIMESTAMP GT ISZERO PUSH2 0x1771 JUMPI PUSH1 0x40 MLOAD PUSH32 0x8C379A000000000000000000000000000000000000000000000000000000000 DUP2 MSTORE PUSH1 0x4 ADD PUSH2 0x1768 SWAP1 PUSH2 0x3A28 JUMP JUMPDEST PUSH1 0x40 MLOAD DUP1 SWAP2 SUB SWAP1 REVERT JUMPDEST PUSH2 0x1785 PUSH8 0xCDD570E15FCEBF74 PUSH1 0xC0 SHL PUSH2 0x313E JUMP JUMPDEST PUSH2 0x1799 PUSH8 0xC4CA57030108DAD1 PUSH1 0xC0 SHL PUSH2 0x313E JUMP JUMPDEST PUSH2 0x17AD PUSH8 0x50C2E62CB242BE38 PUSH1 0xC0 SHL PUSH2 0x313E JUMP JUMPDEST PUSH2 0x17C1 PUSH8 0x5F75A666B7968C57 PUSH1 0xC0 SHL PUSH2 0x313E JUMP JUMPDEST PUSH2 0x17D5 PUSH8 0xF133DCC1B9E60F23 PUSH1 0xC0 SHL PUSH2 0x313E JUMP JUMPDEST PUSH2 0x17E9 PUSH8 0x76A84F830EF73A99 PUSH1 0xC0 SHL PUSH2 0x313E JUMP JUMPDEST PUSH1 0x0 PUSH1 0x40 MLOAD DUP1 PUSH1 0xA0 ADD PUSH1 0x40 MSTORE DUP1 PUSH1 0x1 PUSH1 0x0 SWAP1 SLOAD SWAP1 PUSH2 0x100 EXP SWAP1 DIV PUSH20 0xFFFFFFFFFFFFFFFFFFFFFFFFFFFFFFFFFFFFFFFF AND PUSH20 0xFFFFFFFFFFFFFFFFFFFFFFFFFFFFFFFFFFFFFFFF AND DUP2 MSTORE PUSH1 0x20 ADD PUSH1 0x2 PUSH1 0x0 SWAP1 SLOAD SWAP1 PUSH2 0x100 EXP SWAP1 DIV PUSH20 0xFFFFFFFFFFFFFFFFFFFFFFFFFFFFFFFFFFFFFFFF AND PUSH20 0xFFFFFFFFFFFFFFFFFFFFFFFFFFFFFFFFFFFFFFFF AND DUP2 MSTORE PUSH1 0x20 ADD PUSH1 0x3 SLOAD DUP2 MSTORE PUSH1 0x20 ADD PUSH1 0x4 SLOAD DUP2 MSTORE PUSH1 0x20 ADD PUSH1 0x5 SLOAD DUP2 MSTORE POP SWAP1 POP PUSH2 0x189E PUSH8 0xBB10BB71ADC87195 PUSH1 0xC0 SHL PUSH2 0x313E JUMP JUMPDEST PUSH2 0x18B2 PUSH8 0xF5F45FB07DD1A246 PUSH1 0xC0 SHL PUSH2 0x313E JUMP JUMPDEST PUSH2 0x18C6 PUSH8 0xF70D7BDDDC770923 PUSH1 0xC0 SHL PUSH2 0x313E JUMP JUMPDEST DUP1 PUSH1 0x0 ADD MLOAD PUSH20 0xFFFFFFFFFFFFFFFFFFFFFFFFFFFFFFFFFFFFFFFF AND DUP12 PUSH20 0xFFFFFFFFFFFFFFFFFFFFFFFFFFFFFFFFFFFFFFFF AND EQ DUP1 ISZERO PUSH2 0x1934 JUMPI POP DUP1 PUSH1 0x20 ADD MLOAD PUSH20 0xFFFFFFFFFFFFFFFFFFFFFFFFFFFFFFFFFFFFFFFF AND DUP11 PUSH20 0xFFFFFFFFFFFFFFFFFFFFFFFFFFFFFFFFFFFFFFFF AND EQ JUMPDEST DUP1 ISZERO PUSH2 0x1950 JUMPI POP PUSH2 0x194F PUSH8 0x2D0AA1F4B60F707E PUSH1 0xC0 SHL PUSH2 0x3187 JUMP JUMPDEST JUMPDEST DUP1 PUSH2 0x19E1 JUMPI POP DUP1 PUSH1 0x20 ADD MLOAD PUSH20 0xFFFFFFFFFFFFFFFFFFFFFFFFFFFFFFFFFFFFFFFF AND DUP12 PUSH20 0xFFFFFFFFFFFFFFFFFFFFFFFFFFFFFFFFFFFFFFFF AND EQ DUP1 ISZERO PUSH2 0x19C4 JUMPI POP DUP1 PUSH1 0x0 ADD MLOAD PUSH20 0xFFFFFFFFFFFFFFFFFFFFFFFFFFFFFFFFFFFFFFFF AND DUP11 PUSH20 0xFFFFFFFFFFFFFFFFFFFFFFFFFFFFFFFFFFFFFFFF AND EQ JUMPDEST DUP1 ISZERO PUSH2 0x19E0 JUMPI POP PUSH2 0x19DF PUSH8 0x86A53E7AF3BFCE2C PUSH1 0xC0 SHL PUSH2 0x3187 JUMP JUMPDEST JUMPDEST JUMPDEST PUSH2 0x1A20 JUMPI PUSH1 0x40 MLOAD PUSH32 0x8C379A000000000000000000000000000000000000000000000000000000000 DUP2 MSTORE PUSH1 0x4 ADD PUSH2 0x1A17 SWAP1 PUSH2 0x3C07 JUMP JUMPDEST PUSH1 0x40 MLOAD DUP1 SWAP2 SUB SWAP1 REVERT JUMPDEST PUSH2 0x1A34 PUSH8 0x99B68F2750E2FA8 PUSH1 0xC0 SHL PUSH2 0x313E JUMP JUMPDEST PUSH2 0x1A48 PUSH8 0xA972498FB5FDD0C3 PUSH1 0xC0 SHL PUSH2 0x313E JUMP JUMPDEST PUSH2 0x1A5C PUSH8 0xCEE5F3651E1E1BC5 PUSH1 0xC0 SHL PUSH2 0x313E JUMP JUMPDEST PUSH2 0x1A70 PUSH8 0x88F1DB1EF6B22C99 PUSH1 0xC0 SHL PUSH2 0x313E JUMP JUMPDEST PUSH1 0x0 PUSH20 0xFFFFFFFFFFFFFFFFFFFFFFFFFFFFFFFFFFFFFFFF AND DUP7 PUSH20 0xFFFFFFFFFFFFFFFFFFFFFFFFFFFFFFFFFFFFFFFF AND SUB PUSH2 0x1ADF JUMPI PUSH1 0x40 MLOAD PUSH32 0x8C379A000000000000000000000000000000000000000000000000000000000 DUP2 MSTORE PUSH1 0x4 ADD PUSH2 0x1AD6 SWAP1 PUSH2 0x3B00 JUMP JUMPDEST PUSH1 0x40 MLOAD DUP1 SWAP2 SUB SWAP1 REVERT JUMPDEST PUSH2 0x1AF3 PUSH8 0xE5E39A89E2B2CE54 PUSH1 0xC0 SHL PUSH2 0x313E JUMP JUMPDEST PUSH2 0x1B07 PUSH8 0x34F8A27BA33D6478 PUSH1 0xC0 SHL PUSH2 0x313E JUMP JUMPDEST PUSH2 0x1B1B PUSH8 0x7C81F92FD69651F9 PUSH1 0xC0 SHL PUSH2 0x313E JUMP JUMPDEST PUSH2 0x1B2F PUSH8 0x22E5ACE88BFD5AB PUSH1 0xC0 SHL PUSH2 0x313E JUMP JUMPDEST PUSH1 0x0 DUP10 GT PUSH2 0x1B72 JUMPI PUSH1 0x40 MLOAD PUSH32 0x8C379A000000000000000000000000000000000000000000000000000000000 DUP2 MSTORE PUSH1 0x4 ADD PUSH2 0x1B69 SWAP1 PUSH2 0x3EDF JUMP JUMPDEST PUSH1 0x40 MLOAD DUP1 SWAP2 SUB SWAP1 REVERT JUMPDEST PUSH2 0x1B86 PUSH8 0x1D2F99367D4507AA PUSH1 0xC0 SHL PUSH2 0x313E JUMP JUMPDEST PUSH2 0x1B9A PUSH8 0xAD33773D4A9DF5F8 PUSH1 0xC0 SHL PUSH2 0x313E JUMP JUMPDEST PUSH2 0x1BAD PUSH7 0x7C74F4A8767A78 PUSH1 0xC0 SHL PUSH2 0x313E JUMP JUMPDEST PUSH1 0x0 DUP2 PUSH1 0x0 ADD MLOAD PUSH20 0xFFFFFFFFFFFFFFFFFFFFFFFFFFFFFFFFFFFFFFFF AND DUP13 PUSH20 0xFFFFFFFFFFFFFFFFFFFFFFFFFFFFFFFFFFFFFFFF AND EQ SWAP1 POP PUSH2 0x1BF8 PUSH8 0xA76FBD57D09C017D PUSH1 0xC0 SHL PUSH2 0x313E JUMP JUMPDEST PUSH2 0x1C0C PUSH8 0x664D086F9C8750C0 PUSH1 0xC0 SHL PUSH2 0x313E JUMP JUMPDEST PUSH1 0x0 DUP2 DUP1 PUSH2 0x1C2A JUMPI POP PUSH2 0x1C29 PUSH8 0x6869E28900119C28 PUSH1 0xC0 SHL PUSH2 0x3192 JUMP JUMPDEST JUMPDEST DUP1 ISZERO PUSH2 0x1C46 JUMPI POP PUSH2 0x1C45 PUSH8 0xDA7BBB6A414C12AF PUSH1 0xC0 SHL PUSH2 0x3187 JUMP JUMPDEST JUMPDEST PUSH2 0x1C54 JUMPI DUP3 PUSH1 0x60 ADD MLOAD PUSH2 0x1C5A JUMP JUMPDEST DUP3 PUSH1 0x40 ADD MLOAD JUMPDEST SWAP1 POP PUSH2 0x1C70 PUSH8 0x78BE5CF52B320C11 PUSH1 0xC0 SHL PUSH2 0x313E JUMP JUMPDEST PUSH2 0x1C84 PUSH8 0xE469F8F4C33C596A PUSH1 0xC0 SHL PUSH2 0x313E JUMP JUMPDEST PUSH1 0x0 DUP3 DUP1 PUSH2 0x1CA2 JUMPI POP PUSH2 0x1CA1 PUSH8 0x4F2BB6AD324F9082 PUSH1 0xC0 SHL PUSH2 0x3192 JUMP JUMPDEST JUMPDEST DUP1 ISZERO PUSH2 0x1CBE JUMPI POP PUSH2 0x1CBD PUSH8 0x9FAC2426AA89C91A PUSH1 0xC0 SHL PUSH2 0x3187 JUMP JUMPDEST JUMPDEST PUSH2 0x1CCC JUMPI DUP4 PUSH1 0x40 ADD MLOAD PUSH2 0x1CD2 JUMP JUMPDEST DUP4 PUSH1 0x60 ADD MLOAD JUMPDEST SWAP1 POP PUSH2 0x1CE8 PUSH8 0x84A28E4F44EB2705 PUSH1 0xC0 SHL PUSH2 0x313E JUMP JUMPDEST PUSH2 0x1CFC PUSH8 0x2F649BE3C9EDFF11 PUSH1 0xC0 SHL PUSH2 0x313E JUMP JUMPDEST PUSH1 0x0 PUSH1 0x6 PUSH1 0x0 CALLER PUSH20 0xFFFFFFFFFFFFFFFFFFFFFFFFFFFFFFFFFFFFFFFF AND PUSH20 0xFFFFFFFFFFFFFFFFFFFFFFFFFFFFFFFFFFFFFFFF AND DUP2 MSTORE PUSH1 0x20 ADD SWAP1 DUP2 MSTORE PUSH1 0x20 ADD PUSH1 0x0 KECCAK256 SLOAD SWAP1 POP PUSH2 0x1D54 PUSH8 0x8447D0E90652ABBE PUSH1 0xC0 SHL PUSH2 0x313E JUMP JUMPDEST PUSH2 0x1D68 PUSH8 0x653807E7B14614EB PUSH1 0xC0 SHL PUSH2 0x313E JUMP JUMPDEST PUSH2 0x1D7C PUSH8 0x804B69DF6265AE17 PUSH1 0xC0 SHL PUSH2 0x313E JUMP JUMPDEST DUP13 DUP2 LT ISZERO PUSH2 0x1DBF JUMPI PUSH1 0x40 MLOAD PUSH32 0x8C379A000000000000000000000000000000000000000000000000000000000 DUP2 MSTORE PUSH1 0x4 ADD PUSH2 0x1DB6 SWAP1 PUSH2 0x3F4B JUMP JUMPDEST PUSH1 0x40 MLOAD DUP1 SWAP2 SUB SWAP1 REVERT JUMPDEST PUSH2 0x1DD3 PUSH8 0xB45593F2E78B335B PUSH1 0xC0 SHL PUSH2 0x313E JUMP JUMPDEST PUSH2 0x1DE7 PUSH8 0x2113815F4394EA7F PUSH1 0xC0 SHL PUSH2 0x313E JUMP JUMPDEST DUP5 PUSH1 0x80 ADD MLOAD DUP4 DUP15 PUSH2 0x1DF8 SWAP2 SWAP1 PUSH2 0x38F5 JUMP JUMPDEST PUSH2 0x1E02 SWAP2 SWAP1 PUSH2 0x3966 JUMP JUMPDEST SWAP8 POP PUSH2 0x1E18 PUSH8 0x2E54AEFAFD0FED37 PUSH1 0xC0 SHL PUSH2 0x313E JUMP JUMPDEST DUP5 PUSH1 0x80 ADD MLOAD DUP3 DUP15 PUSH2 0x1E29 SWAP2 SWAP1 PUSH2 0x38F5 JUMP JUMPDEST PUSH2 0x1E33 SWAP2 SWAP1 PUSH2 0x3966 JUMP JUMPDEST SWAP7 POP PUSH2 0x1E49 PUSH8 0xD9AE356C89A03F1E PUSH1 0xC0 SHL PUSH2 0x313E JUMP JUMPDEST PUSH2 0x1E5D PUSH8 0x71CD5634E242CC6C PUSH1 0xC0 SHL PUSH2 0x313E JUMP JUMPDEST PUSH2 0x1E71 PUSH8 0x5362BE929D77EA62 PUSH1 0xC0 SHL PUSH2 0x313E JUMP JUMPDEST DUP12 DUP9 LT ISZERO PUSH2 0x1EB4 JUMPI PUSH1 0x40 MLOAD PUSH32 0x8C379A000000000000000000000000000000000000000000000000000000000 DUP2 MSTORE PUSH1 0x4 ADD PUSH2 0x1EAB SWAP1 PUSH2 0x3FB7 JUMP JUMPDEST PUSH1 0x40 MLOAD DUP1 SWAP2 SUB SWAP1 REVERT JUMPDEST PUSH2 0x1EC8 PUSH8 0xE539EC2B43BCAD5C PUSH1 0xC0 SHL PUSH2 0x313E JUMP JUMPDEST PUSH2 0x1EDC PUSH8 0x174690BF2A6906CC PUSH1 0xC0 SHL PUSH2 0x313E JUMP JUMPDEST PUSH2 0x1EF0 PUSH8 0x1AF41C9639F04E4B PUSH1 0xC0 SHL PUSH2 0x313E JUMP JUMPDEST PUSH2 0x1F04 PUSH8 0x263CC5BA8BCA8D2B PUSH1 0xC0 SHL PUSH2 0x313E JUMP JUMPDEST DUP11 DUP8 LT ISZERO PUSH2 0x1F47 JUMPI PUSH1 0x40 MLOAD PUSH32 0x8C379A000000000000000000000000000000000000000000000000000000000 DUP2 MSTORE PUSH1 0x4 ADD PUSH2 0x1F3E SWAP1 PUSH2 0x4023 JUMP JUMPDEST PUSH1 0x40 MLOAD DUP1 SWAP2 SUB SWAP1 REVERT JUMPDEST PUSH2 0x1F5B PUSH8 0x96BA9BC2BBABE653 PUSH1 0xC0 SHL PUSH2 0x313E JUMP JUMPDEST PUSH2 0x1F6F PUSH8 0xAF2981CDE235BABF PUSH1 0xC0 SHL PUSH2 0x313E JUMP JUMPDEST DUP13 PUSH1 0x5 PUSH1 0x0 DUP3 DUP3 SLOAD PUSH2 0x1F81 SWAP2 SWAP1 PUSH2 0x3D9B JUMP JUMPDEST SWAP3 POP POP DUP2 SWAP1 SSTORE POP PUSH2 0x1F9C PUSH8 0x23A399A421757527 PUSH1 0xC0 SHL PUSH2 0x313E JUMP JUMPDEST DUP13 DUP2 PUSH2 0x1FA8 SWAP2 SWAP1 PUSH2 0x3D9B JUMP JUMPDEST PUSH1 0x6 PUSH1 0x0 CALLER PUSH20 0xFFFFFFFFFFFFFFFFFFFFFFFFFFFFFFFFFFFFFFFF AND PUSH20 0xFFFFFFFFFFFFFFFFFFFFFFFFFFFFFFFFFFFFFFFF AND DUP2 MSTORE PUSH1 0x20 ADD SWAP1 DUP2 MSTORE PUSH1 0x20 ADD PUSH1 0x0 KECCAK256 DUP2 SWAP1 SSTORE POP PUSH2 0x1FFF PUSH8 0x3EE0B3AF069B2E25 PUSH1 0xC0 SHL PUSH2 0x313E JUMP JUMPDEST PUSH2 0x2013 PUSH8 0x7639132D649DA879 PUSH1 0xC0 SHL PUSH2 0x313E JUMP JUMPDEST DUP4 ISZERO PUSH2 0x208C JUMPI PUSH2 0x202D PUSH8 0x7C716D1D1FCDAE0D PUSH1 0xC0 SHL PUSH2 0x313E JUMP JUMPDEST PUSH2 0x2041 PUSH8 0xB57B45013A9EDA93 PUSH1 0xC0 SHL PUSH2 0x313E JUMP JUMPDEST DUP8 PUSH1 0x3 PUSH1 0x0 DUP3 DUP3 SLOAD PUSH2 0x2053 SWAP2 SWAP1 PUSH2 0x3D9B JUMP JUMPDEST SWAP3 POP POP DUP2 SWAP1 SSTORE POP PUSH2 0x206E PUSH8 0x5CD2173FBF6DE92C PUSH1 0xC0 SHL PUSH2 0x313E JUMP JUMPDEST DUP7 PUSH1 0x4 PUSH1 0x0 DUP3 DUP3 SLOAD PUSH2 0x2080 SWAP2 SWAP1 PUSH2 0x3D9B JUMP JUMPDEST SWAP3 POP POP DUP2 SWAP1 SSTORE POP PUSH2 0x20FB JUMP JUMPDEST PUSH2 0x20A0 PUSH8 0x72030F6C0A519890 PUSH1 0xC0 SHL PUSH2 0x313E JUMP JUMPDEST PUSH2 0x20B4 PUSH8 0xFA6ACD02DA7A9067 PUSH1 0xC0 SHL PUSH2 0x313E JUMP JUMPDEST DUP7 PUSH1 0x3 PUSH1 0x0 DUP3 DUP3 SLOAD PUSH2 0x20C6 SWAP2 SWAP1 PUSH2 0x3D9B JUMP JUMPDEST SWAP3 POP POP DUP2 SWAP1 SSTORE POP PUSH2 0x20E1 PUSH8 0xCDFD0D0A49A620A1 PUSH1 0xC0 SHL PUSH2 0x313E JUMP JUMPDEST DUP8 PUSH1 0x4 PUSH1 0x0 DUP3 DUP3 SLOAD PUSH2 0x20F3 SWAP2 SWAP1 PUSH2 0x3D9B JUMP JUMPDEST SWAP3 POP POP DUP2 SWAP1 SSTORE POP JUMPDEST PUSH2 0x210F PUSH8 0xFBB010CC8F46D98E PUSH1 0xC0 SHL PUSH2 0x313E JUMP JUMPDEST PUSH2 0x2123 PUSH8 0xC84B6751E9D681FF PUSH1 0xC0 SHL PUSH2 0x313E JUMP JUMPDEST DUP15 PUSH20 0xFFFFFFFFFFFFFFFFFFFFFFFFFFFFFFFFFFFFFFFF AND PUSH4 0xA9059CBB DUP12 DUP11 PUSH1 0x40 MLOAD DUP4 PUSH4 0xFFFFFFFF AND PUSH1 0xE0 SHL DUP2 MSTORE PUSH1 0x4 ADD PUSH2 0x215E SWAP3 SWAP2 SWAP1 PUSH2 0x3DCF JUMP JUMPDEST PUSH1 0x20 PUSH1 0x40 MLOAD DUP1 DUP4 SUB DUP2 PUSH1 0x0 DUP8 GAS CALL ISZERO DUP1 ISZERO PUSH2 0x217D JUMPI RETURNDATASIZE PUSH1 0x0 DUP1 RETURNDATACOPY RETURNDATASIZE PUSH1 0x0 REVERT JUMPDEST POP POP POP POP PUSH1 0x40 MLOAD RETURNDATASIZE PUSH1 0x1F NOT PUSH1 0x1F DUP3 ADD AND DUP3 ADD DUP1 PUSH1 0x40 MSTORE POP DUP2 ADD SWAP1 PUSH2 0x21A1 SWAP2 SWAP1 PUSH2 0x3C96 JUMP JUMPDEST POP PUSH2 0x21B6 PUSH8 0x8CEBFF49ED26B3DA PUSH1 0xC0 SHL PUSH2 0x313E JUMP JUMPDEST PUSH2 0x21CA PUSH8 0x7AC199779EBE8528 PUSH1 0xC0 SHL PUSH2 0x313E JUMP JUMPDEST DUP14 PUSH20 0xFFFFFFFFFFFFFFFFFFFFFFFFFFFFFFFFFFFFFFFF AND PUSH4 0xA9059CBB DUP12 DUP10 PUSH1 0x40 MLOAD DUP4 PUSH4 0xFFFFFFFF AND PUSH1 0xE0 SHL DUP2 MSTORE PUSH1 0x4 ADD PUSH2 0x2205 SWAP3 SWAP2 SWAP1 PUSH2 0x3DCF JUMP JUMPDEST PUSH1 0x20 PUSH1 0x40 MLOAD DUP1 DUP4 SUB DUP2 PUSH1 0x0 DUP8 GAS CALL ISZERO DUP1 ISZERO PUSH2 0x2224 JUMPI RETURNDATASIZE PUSH1 0x0 DUP1 RETURNDATACOPY RETURNDATASIZE PUSH1 0x0 REVERT JUMPDEST POP POP POP POP PUSH1 0x40 MLOAD RETURNDATASIZE PUSH1 0x1F NOT PUSH1 0x1F DUP3 ADD AND DUP3 ADD DUP1 PUSH1 0x40 MSTORE POP DUP2 ADD SWAP1 PUSH2 0x2248 SWAP2 SWAP1 PUSH2 0x3C96 JUMP JUMPDEST POP PUSH2 0x225D PUSH8 0xADC9267637A51FC6 PUSH1 0xC0 SHL PUSH2 0x313E JUMP JUMPDEST PUSH2 0x2271 PUSH8 0x87F37191982A3B5E PUSH1 0xC0 SHL PUSH2 0x313E JUMP JUMPDEST CALLER PUSH20 0xFFFFFFFFFFFFFFFFFFFFFFFFFFFFFFFFFFFFFFFF AND PUSH32 0x1DC8BB69DF2B8E91FBDCBFCF93D951B3F0000F085A95FE3F7946D6161439245D DUP10 DUP10 TIMESTAMP PUSH1 0x40 MLOAD PUSH2 0x22BB SWAP4 SWAP3 SWAP2 SWAP1 PUSH2 0x388F JUMP JUMPDEST PUSH1 0x40 MLOAD DUP1 SWAP2 SUB SWAP1 LOG2 POP POP POP POP POP POP PUSH2 0x22D1 PUSH2 0x3199 JUMP JUMPDEST SWAP8 POP SWAP8 SWAP6 POP POP POP POP POP POP JUMP JUMPDEST PUSH1 0x2 PUSH1 0x0 SWAP1 SLOAD SWAP1 PUSH2 0x100 EXP SWAP1 DIV PUSH20 0xFFFFFFFFFFFFFFFFFFFFFFFFFFFFFFFFFFFFFFFF AND DUP2 JUMP JUMPDEST PUSH1 0x0 DUP1 PUSH1 0x0 PUSH2 0x231C PUSH8 0x50A4A134D2E230A9 PUSH1 0xC0 SHL PUSH2 0x313E JUMP JUMPDEST PUSH2 0x2324 PUSH2 0x3141 JUMP JUMPDEST PUSH2 0x2338 PUSH8 0x7362A9C9D061623 PUSH1 0xC0 SHL PUSH2 0x313E JUMP JUMPDEST PUSH2 0x234C PUSH8 0x2BF30A00EA758534 PUSH1 0xC0 SHL PUSH2 0x313E JUMP JUMPDEST DUP4 PUSH2 0x2361 PUSH8 0xE283B568588D4404 PUSH1 0xC0 SHL PUSH2 0x313E JUMP JUMPDEST PUSH2 0x2375 PUSH8 0x76CF1B3FBEC898C7 PUSH1 0xC0 SHL PUSH2 0x313E JUMP JUMPDEST PUSH2 0x2389 PUSH8 0xE4D2C66CAA7580C PUSH1 0xC0 SHL PUSH2 0x313E JUMP JUMPDEST PUSH2 0x239D PUSH8 0xD5C3866C28C80D88 PUSH1 0xC0 SHL PUSH2 0x313E JUMP JUMPDEST DUP1 TIMESTAMP GT ISZERO PUSH2 0x23E0 JUMPI PUSH1 0x40 MLOAD PUSH32 0x8C379A000000000000000000000000000000000000000000000000000000000 DUP2 MSTORE PUSH1 0x4 ADD PUSH2 0x23D7 SWAP1 PUSH2 0x3A28 JUMP JUMPDEST PUSH1 0x40 MLOAD DUP1 SWAP2 SUB SWAP1 REVERT JUMPDEST PUSH2 0x23F4 PUSH8 0xCDD570E15FCEBF74 PUSH1 0xC0 SHL PUSH2 0x313E JUMP JUMPDEST PUSH2 0x2408 PUSH8 0xC4CA57030108DAD1 PUSH1 0xC0 SHL PUSH2 0x313E JUMP JUMPDEST PUSH2 0x241C PUSH8 0x83FA9F35879C2595 PUSH1 0xC0 SHL PUSH2 0x313E JUMP JUMPDEST PUSH2 0x2430 PUSH8 0x6C6B43BB9BB77A70 PUSH1 0xC0 SHL PUSH2 0x313E JUMP JUMPDEST PUSH2 0x2444 PUSH8 0xDBF0CDE99141C27 PUSH1 0xC0 SHL PUSH2 0x313E JUMP JUMPDEST PUSH2 0x2458 PUSH8 0x1F811EF4EDFC5069 PUSH1 0xC0 SHL PUSH2 0x313E JUMP JUMPDEST PUSH1 0x0 PUSH1 0x40 MLOAD DUP1 PUSH1 0xA0 ADD PUSH1 0x40 MSTORE DUP1 PUSH1 0x1 PUSH1 0x0 SWAP1 SLOAD SWAP1 PUSH2 0x100 EXP SWAP1 DIV PUSH20 0xFFFFFFFFFFFFFFFFFFFFFFFFFFFFFFFFFFFFFFFF AND PUSH20 0xFFFFFFFFFFFFFFFFFFFFFFFFFFFFFFFFFFFFFFFF AND DUP2 MSTORE PUSH1 0x20 ADD PUSH1 0x2 PUSH1 0x0 SWAP1 SLOAD SWAP1 PUSH2 0x100 EXP SWAP1 DIV PUSH20 0xFFFFFFFFFFFFFFFFFFFFFFFFFFFFFFFFFFFFFFFF AND PUSH20 0xFFFFFFFFFFFFFFFFFFFFFFFFFFFFFFFFFFFFFFFF AND DUP2 MSTORE PUSH1 0x20 ADD PUSH1 0x3 SLOAD DUP2 MSTORE PUSH1 0x20 ADD PUSH1 0x4 SLOAD DUP2 MSTORE PUSH1 0x20 ADD PUSH1 0x5 SLOAD DUP2 MSTORE POP SWAP1 POP PUSH2 0x250D PUSH8 0xC138260182B6BB94 PUSH1 0xC0 SHL PUSH2 0x313E JUMP JUMPDEST PUSH2 0x2521 PUSH8 0x1641729E4174ECA7 PUSH1 0xC0 SHL PUSH2 0x313E JUMP JUMPDEST PUSH2 0x2535 PUSH8 0xA414DEBD75E6360A PUSH1 0xC0 SHL PUSH2 0x313E JUMP JUMPDEST DUP1 PUSH1 0x0 ADD MLOAD PUSH20 0xFFFFFFFFFFFFFFFFFFFFFFFFFFFFFFFFFFFFFFFF AND DUP14 PUSH20 0xFFFFFFFFFFFFFFFFFFFFFFFFFFFFFFFFFFFFFFFF AND EQ DUP1 ISZERO PUSH2 0x25A3 JUMPI POP DUP1 PUSH1 0x20 ADD MLOAD PUSH20 0xFFFFFFFFFFFFFFFFFFFFFFFFFFFFFFFFFFFFFFFF AND DUP13 PUSH20 0xFFFFFFFFFFFFFFFFFFFFFFFFFFFFFFFFFFFFFFFF AND EQ JUMPDEST DUP1 ISZERO PUSH2 0x25BF JUMPI POP PUSH2 0x25BE PUSH8 0x3DDE8BB33FA239D0 PUSH1 0xC0 SHL PUSH2 0x3187 JUMP JUMPDEST JUMPDEST DUP1 PUSH2 0x2650 JUMPI POP DUP1 PUSH1 0x20 ADD MLOAD PUSH20 0xFFFFFFFFFFFFFFFFFFFFFFFFFFFFFFFFFFFFFFFF AND DUP14 PUSH20 0xFFFFFFFFFFFFFFFFFFFFFFFFFFFFFFFFFFFFFFFF AND EQ DUP1 ISZERO PUSH2 0x2633 JUMPI POP DUP1 PUSH1 0x0 ADD MLOAD PUSH20 0xFFFFFFFFFFFFFFFFFFFFFFFFFFFFFFFFFFFFFFFF AND DUP13 PUSH20 0xFFFFFFFFFFFFFFFFFFFFFFFFFFFFFFFFFFFFFFFF AND EQ JUMPDEST DUP1 ISZERO PUSH2 0x264F JUMPI POP PUSH2 0x264E PUSH8 0x62E9FADA601B3E5A PUSH1 0xC0 SHL PUSH2 0x3187 JUMP JUMPDEST JUMPDEST JUMPDEST PUSH2 0x268F JUMPI PUSH1 0x40 MLOAD PUSH32 0x8C379A000000000000000000000000000000000000000000000000000000000 DUP2 MSTORE PUSH1 0x4 ADD PUSH2 0x2686 SWAP1 PUSH2 0x3C07 JUMP JUMPDEST PUSH1 0x40 MLOAD DUP1 SWAP2 SUB SWAP1 REVERT JUMPDEST PUSH2 0x26A3 PUSH8 0x62E90195A60FA7AE PUSH1 0xC0 SHL PUSH2 0x313E JUMP JUMPDEST PUSH2 0x26B7 PUSH8 0x479010C8739B7C49 PUSH1 0xC0 SHL PUSH2 0x313E JUMP JUMPDEST PUSH2 0x26CB PUSH8 0xB9C003368A5D21B0 PUSH1 0xC0 SHL PUSH2 0x313E JUMP JUMPDEST PUSH2 0x26DF PUSH8 0xA093AA9487AC7F0 PUSH1 0xC0 SHL PUSH2 0x313E JUMP JUMPDEST PUSH1 0x0 PUSH20 0xFFFFFFFFFFFFFFFFFFFFFFFFFFFFFFFFFFFFFFFF AND DUP8 PUSH20 0xFFFFFFFFFFFFFFFFFFFFFFFFFFFFFFFFFFFFFFFF AND SUB PUSH2 0x274E JUMPI PUSH1 0x40 MLOAD PUSH32 0x8C379A000000000000000000000000000000000000000000000000000000000 DUP2 MSTORE PUSH1 0x4 ADD PUSH2 0x2745 SWAP1 PUSH2 0x3B00 JUMP JUMPDEST PUSH1 0x40 MLOAD DUP1 SWAP2 SUB SWAP1 REVERT JUMPDEST PUSH2 0x2762 PUSH8 0xC4EAC41E53D489BB PUSH1 0xC0 SHL PUSH2 0x313E JUMP JUMPDEST PUSH2 0x2776 PUSH8 0xE01577330D886FC4 PUSH1 0xC0 SHL PUSH2 0x313E JUMP JUMPDEST PUSH2 0x278A PUSH8 0x62CB5A909D8245E7 PUSH1 0xC0 SHL PUSH2 0x313E JUMP JUMPDEST PUSH2 0x279E PUSH8 0x511355647C3CAC8B PUSH1 0xC0 SHL PUSH2 0x313E JUMP JUMPDEST PUSH1 0x0 DUP12 GT DUP1 ISZERO PUSH2 0x27AE JUMPI POP PUSH1 0x0 DUP11 GT JUMPDEST PUSH2 0x27ED JUMPI PUSH1 0x40 MLOAD PUSH32 0x8C379A000000000000000000000000000000000000000000000000000000000 DUP2 MSTORE PUSH1 0x4 ADD PUSH2 0x27E4 SWAP1 PUSH2 0x408F JUMP JUMPDEST PUSH1 0x40 MLOAD DUP1 SWAP2 SUB SWAP1 REVERT JUMPDEST PUSH2 0x2801 PUSH8 0x83824463B1254CE PUSH1 0xC0 SHL PUSH2 0x313E JUMP JUMPDEST PUSH2 0x2815 PUSH8 0x7B570A0B963CBB76 PUSH1 0xC0 SHL PUSH2 0x313E JUMP JUMPDEST PUSH2 0x2829 PUSH8 0x1A844D1E8CE21C49 PUSH1 0xC0 SHL PUSH2 0x313E JUMP JUMPDEST PUSH1 0x0 DUP2 PUSH1 0x0 ADD MLOAD PUSH20 0xFFFFFFFFFFFFFFFFFFFFFFFFFFFFFFFFFFFFFFFF AND DUP15 PUSH20 0xFFFFFFFFFFFFFFFFFFFFFFFFFFFFFFFFFFFFFFFF AND EQ SWAP1 POP PUSH2 0x2874 PUSH8 0x560B019D502458DE PUSH1 0xC0 SHL PUSH2 0x313E JUMP JUMPDEST PUSH2 0x2888 PUSH8 0x18D0C85D88559C99 PUSH1 0xC0 SHL PUSH2 0x313E JUMP JUMPDEST PUSH1 0x0 DUP2 DUP1 PUSH2 0x28A6 JUMPI POP PUSH2 0x28A5 PUSH8 0xD9F3BA4C6D988BA5 PUSH1 0xC0 SHL PUSH2 0x3192 JUMP JUMPDEST JUMPDEST DUP1 ISZERO PUSH2 0x28C2 JUMPI POP PUSH2 0x28C1 PUSH8 0x2C06761A4885D77D PUSH1 0xC0 SHL PUSH2 0x3187 JUMP JUMPDEST JUMPDEST PUSH2 0x28D0 JUMPI DUP3 PUSH1 0x60 ADD MLOAD PUSH2 0x28D6 JUMP JUMPDEST DUP3 PUSH1 0x40 ADD MLOAD JUMPDEST SWAP1 POP PUSH2 0x28EC PUSH8 0x88D4B124B06AE140 PUSH1 0xC0 SHL PUSH2 0x313E JUMP JUMPDEST PUSH2 0x2900 PUSH8 0x3BAE294C456AC812 PUSH1 0xC0 SHL PUSH2 0x313E JUMP JUMPDEST PUSH1 0x0 DUP3 DUP1 PUSH2 0x291E JUMPI POP PUSH2 0x291D PUSH8 0x1E82D34C43FAAF0B PUSH1 0xC0 SHL PUSH2 0x3192 JUMP JUMPDEST JUMPDEST DUP1 ISZERO PUSH2 0x293A JUMPI POP PUSH2 0x2939 PUSH8 0x7C9E605397749362 PUSH1 0xC0 SHL PUSH2 0x3187 JUMP JUMPDEST JUMPDEST PUSH2 0x2948 JUMPI DUP4 PUSH1 0x40 ADD MLOAD PUSH2 0x294E JUMP JUMPDEST DUP4 PUSH1 0x60 ADD MLOAD JUMPDEST SWAP1 POP PUSH2 0x2964 PUSH8 0xC84804A51D7F029B PUSH1 0xC0 SHL PUSH2 0x313E JUMP JUMPDEST DUP14 SWAP8 POP PUSH2 0x297B PUSH8 0xABE3B4F94BA2E875 PUSH1 0xC0 SHL PUSH2 0x313E JUMP JUMPDEST DUP13 SWAP7 POP PUSH2 0x2992 PUSH8 0xE9857450E24CF777 PUSH1 0xC0 SHL PUSH2 0x313E JUMP JUMPDEST PUSH2 0x29A6 PUSH8 0x836DA5433FE7828C PUSH1 0xC0 SHL PUSH2 0x313E JUMP JUMPDEST PUSH1 0x0 DUP5 PUSH1 0x80 ADD MLOAD SUB PUSH2 0x2A88 JUMPI PUSH2 0x29C6 PUSH8 0x2F877112ED713033 PUSH1 0xC0 SHL PUSH2 0x313E JUMP JUMPDEST PUSH2 0x29DA PUSH8 0x1F322AD5672FAEB0 PUSH1 0xC0 SHL PUSH2 0x313E JUMP JUMPDEST PUSH2 0x29EE DUP8 DUP10 PUSH2 0x29E9 SWAP2 SWAP1 PUSH2 0x38F5 JUMP JUMPDEST PUSH2 0x31A3 JUMP JUMPDEST SWAP6 POP PUSH2 0x2A04 PUSH8 0x16C30165588C3334 PUSH1 0xC0 SHL PUSH2 0x313E JUMP JUMPDEST PUSH2 0x2A18 PUSH8 0x451BAEED32A3B46D PUSH1 0xC0 SHL PUSH2 0x313E JUMP JUMPDEST PUSH2 0x2A2C PUSH8 0x94F627DDAC7BEC8B PUSH1 0xC0 SHL PUSH2 0x313E JUMP JUMPDEST PUSH1 0x0 DUP7 GT PUSH2 0x2A6F JUMPI PUSH1 0x40 MLOAD PUSH32 0x8C379A000000000000000000000000000000000000000000000000000000000 DUP2 MSTORE PUSH1 0x4 ADD PUSH2 0x2A66 SWAP1 PUSH2 0x40FB JUMP JUMPDEST PUSH1 0x40 MLOAD DUP1 SWAP2 SUB SWAP1 REVERT JUMPDEST PUSH2 0x2A83 PUSH8 0x8084C5A7D4DF9DB5 PUSH1 0xC0 SHL PUSH2 0x313E JUMP JUMPDEST PUSH2 0x2DAE JUMP JUMPDEST PUSH2 0x2A9C PUSH8 0x325FC950CB21889E PUSH1 0xC0 SHL PUSH2 0x313E JUMP JUMPDEST PUSH2 0x2AB0 PUSH8 0x8E1270D158ABB66 PUSH1 0xC0 SHL PUSH2 0x313E JUMP JUMPDEST PUSH2 0x2AC4 PUSH8 0xA828336309F5D388 PUSH1 0xC0 SHL PUSH2 0x313E JUMP JUMPDEST PUSH1 0x0 DUP2 DUP10 PUSH2 0x2AD2 SWAP2 SWAP1 PUSH2 0x38F5 JUMP JUMPDEST SWAP1 POP PUSH2 0x2AE8 PUSH8 0x970796B3CB1319E8 PUSH1 0xC0 SHL PUSH2 0x313E JUMP JUMPDEST PUSH2 0x2AFC PUSH8 0xE2FB5992E42B29A6 PUSH1 0xC0 SHL PUSH2 0x313E JUMP JUMPDEST PUSH1 0x0 DUP4 DUP10 PUSH2 0x2B0A SWAP2 SWAP1 PUSH2 0x38F5 JUMP JUMPDEST SWAP1 POP PUSH2 0x2B20 PUSH8 0xEB895D13FE8EB656 PUSH1 0xC0 SHL PUSH2 0x313E JUMP JUMPDEST PUSH2 0x2B34 PUSH8 0x5759FE767D07631 PUSH1 0xC0 SHL PUSH2 0x313E JUMP JUMPDEST PUSH2 0x2B48 PUSH8 0xCBE43DE3532869F6 PUSH1 0xC0 SHL PUSH2 0x313E JUMP JUMPDEST DUP1 DUP3 EQ PUSH2 0x2B8A JUMPI PUSH1 0x40 MLOAD PUSH32 0x8C379A000000000000000000000000000000000000000000000000000000000 DUP2 MSTORE PUSH1 0x4 ADD PUSH2 0x2B81 SWAP1 PUSH2 0x4167 JUMP JUMPDEST PUSH1 0x40 MLOAD DUP1 SWAP2 SUB SWAP1 REVERT JUMPDEST PUSH2 0x2B9E PUSH8 0x253C8868E8EC9AF2 PUSH1 0xC0 SHL PUSH2 0x313E JUMP JUMPDEST PUSH2 0x2BB2 PUSH8 0x768A6FDBD68D8F1F PUSH1 0xC0 SHL PUSH2 0x313E JUMP JUMPDEST PUSH2 0x2BC6 PUSH8 0xE3978C580E9A9240 PUSH1 0xC0 SHL PUSH2 0x313E JUMP JUMPDEST PUSH2 0x2BDA PUSH8 0x17A27D438C46AE03 PUSH1 0xC0 SHL PUSH2 0x313E JUMP JUMPDEST DUP14 DUP11 LT ISZERO PUSH2 0x2C1D JUMPI PUSH1 0x40 MLOAD PUSH32 0x8C379A000000000000000000000000000000000000000000000000000000000 DUP2 MSTORE PUSH1 0x4 ADD PUSH2 0x2C14 SWAP1 PUSH2 0x3FB7 JUMP JUMPDEST PUSH1 0x40 MLOAD DUP1 SWAP2 SUB SWAP1 REVERT JUMPDEST PUSH2 0x2C31 PUSH8 0x1659B1EB22D6292A PUSH1 0xC0 SHL PUSH2 0x313E JUMP JUMPDEST PUSH2 0x2C45 PUSH8 0x7664107A515C7244 PUSH1 0xC0 SHL PUSH2 0x313E JUMP JUMPDEST PUSH2 0x2C59 PUSH8 0x858CB21F9F2AEAF7 PUSH1 0xC0 SHL PUSH2 0x313E JUMP JUMPDEST PUSH2 0x2C6D PUSH8 0x4D9EBA963B007D95 PUSH1 0xC0 SHL PUSH2 0x313E JUMP JUMPDEST DUP13 DUP10 LT ISZERO PUSH2 0x2CB0 JUMPI PUSH1 0x40 MLOAD PUSH32 0x8C379A000000000000000000000000000000000000000000000000000000000 DUP2 MSTORE PUSH1 0x4 ADD PUSH2 0x2CA7 SWAP1 PUSH2 0x4023 JUMP JUMPDEST PUSH1 0x40 MLOAD DUP1 SWAP2 SUB SWAP1 REVERT JUMPDEST PUSH2 0x2CC4 PUSH8 0xFE1F19A2C7FB2A57 PUSH1 0xC0 SHL PUSH2 0x313E JUMP JUMPDEST PUSH2 0x2CD8 PUSH8 0x43CBE1B10785D0DD PUSH1 0xC0 SHL PUSH2 0x313E JUMP JUMPDEST PUSH2 0x2D16 DUP5 DUP8 PUSH1 0x80 ADD MLOAD DUP13 PUSH2 0x2CEC SWAP2 SWAP1 PUSH2 0x38F5 JUMP JUMPDEST PUSH2 0x2CF6 SWAP2 SWAP1 PUSH2 0x3966 JUMP JUMPDEST DUP5 DUP9 PUSH1 0x80 ADD MLOAD DUP13 PUSH2 0x2D07 SWAP2 SWAP1 PUSH2 0x38F5 JUMP JUMPDEST PUSH2 0x2D11 SWAP2 SWAP1 PUSH2 0x3966 JUMP JUMPDEST PUSH2 0x3340 JUMP JUMPDEST SWAP8 POP PUSH2 0x2D2C PUSH8 0xE0B12B92A5E57CE3 PUSH1 0xC0 SHL PUSH2 0x313E JUMP JUMPDEST PUSH2 0x2D40 PUSH8 0x8E4CC82E289D0EE7 PUSH1 0xC0 SHL PUSH2 0x313E JUMP JUMPDEST PUSH2 0x2D54 PUSH8 0xA8DF01F6761B08F6 PUSH1 0xC0 SHL PUSH2 0x313E JUMP JUMPDEST PUSH1 0x0 DUP9 GT PUSH2 0x2D97 JUMPI PUSH1 0x40 MLOAD PUSH32 0x8C379A000000000000000000000000000000000000000000000000000000000 DUP2 MSTORE PUSH1 0x4 ADD PUSH2 0x2D8E SWAP1 PUSH2 0x41D3 JUMP JUMPDEST PUSH1 0x40 MLOAD DUP1 SWAP2 SUB SWAP1 REVERT JUMPDEST PUSH2 0x2DAB PUSH8 0xF783C82E5FC10FAC PUSH1 0xC0 SHL PUSH2 0x313E JUMP JUMPDEST POP POP JUMPDEST PUSH2 0x2DC2 PUSH8 0xFD8B36883F04DCC7 PUSH1 0xC0 SHL PUSH2 0x313E JUMP JUMPDEST PUSH2 0x2DD6 PUSH8 0xECD6644B4DD722A6 PUSH1 0xC0 SHL PUSH2 0x313E JUMP JUMPDEST DUP16 PUSH20 0xFFFFFFFFFFFFFFFFFFFFFFFFFFFFFFFFFFFFFFFF AND PUSH4 0x23B872DD CALLER ADDRESS DUP12 PUSH1 0x40 MLOAD DUP5 PUSH4 0xFFFFFFFF AND PUSH1 0xE0 SHL DUP2 MSTORE PUSH1 0x4 ADD PUSH2 0x2E13 SWAP4 SWAP3 SWAP2 SWAP1 PUSH2 0x3C27 JUMP JUMPDEST PUSH1 0x20 PUSH1 0x40 MLOAD DUP1 DUP4 SUB DUP2 PUSH1 0x0 DUP8 GAS CALL ISZERO DUP1 ISZERO PUSH2 0x2E32 JUMPI RETURNDATASIZE PUSH1 0x0 DUP1 RETURNDATACOPY RETURNDATASIZE PUSH1 0x0 REVERT JUMPDEST POP POP POP POP PUSH1 0x40 MLOAD RETURNDATASIZE PUSH1 0x1F NOT PUSH1 0x1F DUP3 ADD AND DUP3 ADD DUP1 PUSH1 0x40 MSTORE POP DUP2 ADD SWAP1 PUSH2 0x2E56 SWAP2 SWAP1 PUSH2 0x3C96 JUMP JUMPDEST POP PUSH2 0x2E6B PUSH8 0x1B034AFB09C95447 PUSH1 0xC0 SHL PUSH2 0x313E JUMP JUMPDEST PUSH2 0x2E7F PUSH8 0xB6D8CEBDF397CFB PUSH1 0xC0 SHL PUSH2 0x313E JUMP JUMPDEST DUP15 PUSH20 0xFFFFFFFFFFFFFFFFFFFFFFFFFFFFFFFFFFFFFFFF AND PUSH4 0x23B872DD CALLER ADDRESS DUP11 PUSH1 0x40 MLOAD DUP5 PUSH4 0xFFFFFFFF AND PUSH1 0xE0 SHL DUP2 MSTORE PUSH1 0x4 ADD PUSH2 0x2EBC SWAP4 SWAP3 SWAP2 SWAP1 PUSH2 0x3C27 JUMP JUMPDEST PUSH1 0x20 PUSH1 0x40 MLOAD DUP1 DUP4 SUB DUP2 PUSH1 0x0 DUP8 GAS CALL ISZERO DUP1 ISZERO PUSH2 0x2EDB JUMPI RETURNDATASIZE PUSH1 0x0 DUP1 RETURNDATACOPY RETURNDATASIZE PUSH1 0x0 REVERT JUMPDEST POP POP POP POP PUSH1 0x40 MLOAD RETURNDATASIZE PUSH1 0x1F NOT PUSH1 0x1F DUP3 ADD AND DUP3 ADD DUP1 PUSH1 0x40 MSTORE POP DUP2 ADD SWAP1 PUSH2 0x2EFF SWAP2 SWAP1 PUSH2 0x3C96 JUMP JUMPDEST POP PUSH2 0x2F14 PUSH8 0x2790A38629DBD2D0 PUSH1 0xC0 SHL PUSH2 0x313E JUMP JUMPDEST PUSH2 0x2F28 PUSH8 0x563E105D0CE11E3D PUSH1 0xC0 SHL PUSH2 0x313E JUMP JUMPDEST DUP3 ISZERO PUSH2 0x2FA1 JUMPI PUSH2 0x2F42 PUSH8 0x7086D313EBBD1FC0 PUSH1 0xC0 SHL PUSH2 0x313E JUMP JUMPDEST PUSH2 0x2F56 PUSH8 0x272B942B8E725AED PUSH1 0xC0 SHL PUSH2 0x313E JUMP JUMPDEST DUP8 PUSH1 0x3 PUSH1 0x0 DUP3 DUP3 SLOAD PUSH2 0x2F68 SWAP2 SWAP1 PUSH2 0x3997 JUMP JUMPDEST SWAP3 POP POP DUP2 SWAP1 SSTORE POP PUSH2 0x2F83 PUSH8 0x462F4396EF6D1AEA PUSH1 0xC0 SHL PUSH2 0x313E JUMP JUMPDEST DUP7 PUSH1 0x4 PUSH1 0x0 DUP3 DUP3 SLOAD PUSH2 0x2F95 SWAP2 SWAP1 PUSH2 0x3997 JUMP JUMPDEST SWAP3 POP POP DUP2 SWAP1 SSTORE POP PUSH2 0x3010 JUMP JUMPDEST PUSH2 0x2FB5 PUSH8 0x980C9225539BF76E PUSH1 0xC0 SHL PUSH2 0x313E JUMP JUMPDEST PUSH2 0x2FC9 PUSH8 0x4B5F9CB0DDF15436 PUSH1 0xC0 SHL PUSH2 0x313E JUMP JUMPDEST DUP7 PUSH1 0x3 PUSH1 0x0 DUP3 DUP3 SLOAD PUSH2 0x2FDB SWAP2 SWAP1 PUSH2 0x3997 JUMP JUMPDEST SWAP3 POP POP DUP2 SWAP1 SSTORE POP PUSH2 0x2FF6 PUSH8 0x79131C276680E2D PUSH1 0xC0 SHL PUSH2 0x313E JUMP JUMPDEST DUP8 PUSH1 0x4 PUSH1 0x0 DUP3 DUP3 SLOAD PUSH2 0x3008 SWAP2 SWAP1 PUSH2 0x3997 JUMP JUMPDEST SWAP3 POP POP DUP2 SWAP1 SSTORE POP JUMPDEST PUSH2 0x3024 PUSH8 0x40B13A833F50A956 PUSH1 0xC0 SHL PUSH2 0x313E JUMP JUMPDEST DUP6 PUSH1 0x5 PUSH1 0x0 DUP3 DUP3 SLOAD PUSH2 0x3036 SWAP2 SWAP1 PUSH2 0x3997 JUMP JUMPDEST SWAP3 POP POP DUP2 SWAP1 SSTORE POP PUSH2 0x3051 PUSH8 0x5BA7FB1E0C4EA834 PUSH1 0xC0 SHL PUSH2 0x313E JUMP JUMPDEST DUP6 PUSH1 0x6 PUSH1 0x0 DUP13 PUSH20 0xFFFFFFFFFFFFFFFFFFFFFFFFFFFFFFFFFFFFFFFF AND PUSH20 0xFFFFFFFFFFFFFFFFFFFFFFFFFFFFFFFFFFFFFFFF AND DUP2 MSTORE PUSH1 0x20 ADD SWAP1 DUP2 MSTORE PUSH1 0x20 ADD PUSH1 0x0 KECCAK256 PUSH1 0x0 DUP3 DUP3 SLOAD PUSH2 0x30A0 SWAP2 SWAP1 PUSH2 0x3997 JUMP JUMPDEST SWAP3 POP POP DUP2 SWAP1 SSTORE POP PUSH2 0x30BB PUSH8 0x7E0A388CDA3966E6 PUSH1 0xC0 SHL PUSH2 0x313E JUMP JUMPDEST PUSH2 0x30CF PUSH8 0xE6CB3225B2C3C55A PUSH1 0xC0 SHL PUSH2 0x313E JUMP JUMPDEST CALLER PUSH20 0xFFFFFFFFFFFFFFFFFFFFFFFFFFFFFFFFFFFFFFFF AND PUSH32 0x8D7621A09A86934F387F650007FA17F2413759CA5F2AE0681161B371583A5F5 DUP10 DUP10 DUP10 TIMESTAMP PUSH1 0x40 MLOAD PUSH2 0x311B SWAP5 SWAP4 SWAP3 SWAP2 SWAP1 PUSH2 0x41F3 JUMP JUMPDEST PUSH1 0x40 MLOAD DUP1 SWAP2 SUB SWAP1 LOG2 POP POP POP POP POP PUSH2 0x3130 PUSH2 0x3199 JUMP JUMPDEST SWAP9 POP SWAP9 POP SWAP9 SWAP6 POP POP POP POP POP POP JUMP JUMPDEST POP JUMP JUMPDEST PUSH1 0x2 PUSH1 0x0 SLOAD SUB PUSH2 0x317D JUMPI PUSH1 0x40 MLOAD PUSH32 0x3EE5AEB500000000000000000000000000000000000000000000000000000000 DUP2 MSTORE PUSH1 0x4 ADD PUSH1 0x40 MLOAD DUP1 SWAP2 SUB SWAP1 REVERT JUMPDEST PUSH1 0x2 PUSH1 0x0 DUP2 SWAP1 SSTORE POP JUMP JUMPDEST PUSH1 0x0 PUSH1 0x1 SWAP1 POP SWAP2 SWAP1 POP JUMP JUMPDEST PUSH1 0x0 SWAP2 SWAP1 POP JUMP JUMPDEST PUSH1 0x1 PUSH1 0x0 DUP2 SWAP1 SSTORE POP JUMP JUMPDEST PUSH1 0x0 PUSH1 0x1 DUP3 GT PUSH2 0x31B5 JUMPI DUP2 SWAP1 POP PUSH2 0x333B JUMP JUMPDEST PUSH1 0x0 DUP3 SWAP1 POP PUSH1 0x0 PUSH1 0x1 SWAP1 POP PUSH17 0x100000000000000000000000000000000 DUP3 LT PUSH2 0x31E7 JUMPI PUSH1 0x80 DUP3 SWAP1 SHR SWAP2 POP PUSH1 0x40 DUP2 SWAP1 SHL SWAP1 POP JUMPDEST PUSH9 0x10000000000000000 DUP3 LT PUSH2 0x3206 JUMPI PUSH1 0x40 DUP3 SWAP1 SHR SWAP2 POP PUSH1 0x20 DUP2 SWAP1 SHL SWAP1 POP JUMPDEST PUSH5 0x100000000 DUP3 LT PUSH2 0x3221 JUMPI PUSH1 0x20 DUP3 SWAP1 SHR SWAP2 POP PUSH1 0x10 DUP2 SWAP1 SHL SWAP1 POP JUMPDEST PUSH3 0x10000 DUP3 LT PUSH2 0x323A JUMPI PUSH1 0x10 DUP3 SWAP1 SHR SWAP2 POP PUSH1 0x8 DUP2 SWAP1 SHL SWAP1 POP JUMPDEST PUSH2 0x100 DUP3 LT PUSH2 0x3252 JUMPI PUSH1 0x8 DUP3 SWAP1 SHR SWAP2 POP PUSH1 0x4 DUP2 SWAP1 SHL SWAP1 POP JUMPDEST PUSH1 0x10 DUP3 LT PUSH2 0x3269 JUMPI PUSH1 0x4 DUP3 SWAP1 SHR SWAP2 POP PUSH1 0x2 DUP2 SWAP1 SHL SWAP1 POP JUMPDEST PUSH1 0x4 DUP3 LT PUSH2 0x3279 JUMPI PUSH1 0x1 DUP2 SWAP1 SHL SWAP1 POP JUMPDEST PUSH1 0x1 DUP2 PUSH1 0x3 MUL SWAP1 SHR SWAP1 POP PUSH1 0x1 DUP2 DUP6 DUP2 PUSH2 0x3295 JUMPI PUSH2 0x3294 PUSH2 0x3937 JUMP JUMPDEST JUMPDEST DIV DUP3 ADD SWAP1 SHR SWAP1 POP PUSH1 0x1 DUP2 DUP6 DUP2 PUSH2 0x32AE JUMPI PUSH2 0x32AD PUSH2 0x3937 JUMP JUMPDEST JUMPDEST DIV DUP3 ADD SWAP1 SHR SWAP1 POP PUSH1 0x1 DUP2 DUP6 DUP2 PUSH2 0x32C7 JUMPI PUSH2 0x32C6 PUSH2 0x3937 JUMP JUMPDEST JUMPDEST DIV DUP3 ADD SWAP1 SHR SWAP1 POP PUSH1 0x1 DUP2 DUP6 DUP2 PUSH2 0x32E0 JUMPI PUSH2 0x32DF PUSH2 0x3937 JUMP JUMPDEST JUMPDEST DIV DUP3 ADD SWAP1 SHR SWAP1 POP PUSH1 0x1 DUP2 DUP6 DUP2 PUSH2 0x32F9 JUMPI PUSH2 0x32F8 PUSH2 0x3937 JUMP JUMPDEST JUMPDEST DIV DUP3 ADD SWAP1 SHR SWAP1 POP PUSH1 0x1 DUP2 DUP6 DUP2 PUSH2 0x3312 JUMPI PUSH2 0x3311 PUSH2 0x3937 JUMP JUMPDEST JUMPDEST DIV DUP3 ADD SWAP1 SHR SWAP1 POP PUSH2 0x3334 DUP2 DUP6 DUP2 PUSH2 0x332C JUMPI PUSH2 0x332B PUSH2 0x3937 JUMP JUMPDEST JUMPDEST DIV DUP3 GT PUSH2 0x3357 JUMP JUMPDEST DUP2 SUB SWAP3 POP POP POP JUMPDEST SWAP2 SWAP1 POP JUMP JUMPDEST PUSH1 0x0 PUSH2 0x334F DUP3 DUP5 LT DUP5 DUP5 PUSH2 0x3363 JUMP JUMPDEST SWAP1 POP SWAP3 SWAP2 POP POP JUMP JUMPDEST PUSH1 0x0 DUP2 ISZERO ISZERO SWAP1 POP SWAP2 SWAP1 POP JUMP JUMPDEST PUSH1 0x0 PUSH2 0x336E DUP5 PUSH2 0x3357 JUMP JUMPDEST DUP3 DUP5 XOR MUL DUP3 XOR SWAP1 POP SWAP4 SWAP3 POP POP POP JUMP JUMPDEST PUSH1 0x0 DUP1 REVERT JUMPDEST PUSH1 0x0 DUP1 REVERT JUMPDEST PUSH1 0x0 DUP2 SWAP1 POP SWAP2 SWAP1 POP JUMP JUMPDEST PUSH2 0x339A DUP2 PUSH2 0x3387 JUMP JUMPDEST DUP2 EQ PUSH2 0x33A5 JUMPI PUSH1 0x0 DUP1 REVERT JUMPDEST POP JUMP JUMPDEST PUSH1 0x0 DUP2 CALLDATALOAD SWAP1 POP PUSH2 0x33B7 DUP2 PUSH2 0x3391 JUMP JUMPDEST SWAP3 SWAP2 POP POP JUMP JUMPDEST PUSH1 0x0 DUP1 PUSH1 0x0 PUSH1 0x60 DUP5 DUP7 SUB SLT ISZERO PUSH2 0x33D6 JUMPI PUSH2 0x33D5 PUSH2 0x337D JUMP JUMPDEST JUMPDEST PUSH1 0x0 PUSH2 0x33E4 DUP7 DUP3 DUP8 ADD PUSH2 0x33A8 JUMP JUMPDEST SWAP4 POP POP PUSH1 0x20 PUSH2 0x33F5 DUP7 DUP3 DUP8 ADD PUSH2 0x33A8 JUMP JUMPDEST SWAP3 POP POP PUSH1 0x40 PUSH2 0x3406 DUP7 DUP3 DUP8 ADD PUSH2 0x33A8 JUMP JUMPDEST SWAP2 POP POP SWAP3 POP SWAP3 POP SWAP3 JUMP JUMPDEST PUSH2 0x3419 DUP2 PUSH2 0x3387 JUMP JUMPDEST DUP3 MSTORE POP POP JUMP JUMPDEST PUSH1 0x0 PUSH1 0x20 DUP3 ADD SWAP1 POP PUSH2 0x3434 PUSH1 0x0 DUP4 ADD DUP5 PUSH2 0x3410 JUMP JUMPDEST SWAP3 SWAP2 POP POP JUMP JUMPDEST PUSH1 0x0 PUSH20 0xFFFFFFFFFFFFFFFFFFFFFFFFFFFFFFFFFFFFFFFF DUP3 AND SWAP1 POP SWAP2 SWAP1 POP JUMP JUMPDEST PUSH1 0x0 PUSH2 0x3465 DUP3 PUSH2 0x343A JUMP JUMPDEST SWAP1 POP SWAP2 SWAP1 POP JUMP JUMPDEST PUSH2 0x3475 DUP2 PUSH2 0x345A JUMP JUMPDEST DUP3 MSTORE POP POP JUMP JUMPDEST PUSH1 0x0 PUSH1 0x20 DUP3 ADD SWAP1 POP PUSH2 0x3490 PUSH1 0x0 DUP4 ADD DUP5 PUSH2 0x346C JUMP JUMPDEST SWAP3 SWAP2 POP POP JUMP JUMPDEST PUSH1 0x0 DUP1 REVERT JUMPDEST PUSH1 0x0 DUP1 REVERT JUMPDEST PUSH1 0x0 DUP1 REVERT JUMPDEST PUSH1 0x0 DUP1 DUP4 PUSH1 0x1F DUP5 ADD SLT PUSH2 0x34BB JUMPI PUSH2 0x34BA PUSH2 0x3496 JUMP JUMPDEST JUMPDEST DUP3 CALLDATALOAD SWAP1 POP PUSH8 0xFFFFFFFFFFFFFFFF DUP2 GT ISZERO PUSH2 0x34D8 JUMPI PUSH2 0x34D7 PUSH2 0x349B JUMP JUMPDEST JUMPDEST PUSH1 0x20 DUP4 ADD SWAP2 POP DUP4 PUSH1 0x20 DUP3 MUL DUP4 ADD GT ISZERO PUSH2 0x34F4 JUMPI PUSH2 0x34F3 PUSH2 0x34A0 JUMP JUMPDEST JUMPDEST SWAP3 POP SWAP3 SWAP1 POP JUMP JUMPDEST PUSH2 0x3504 DUP2 PUSH2 0x345A JUMP JUMPDEST DUP2 EQ PUSH2 0x350F JUMPI PUSH1 0x0 DUP1 REVERT JUMPDEST POP JUMP JUMPDEST PUSH1 0x0 DUP2 CALLDATALOAD SWAP1 POP PUSH2 0x3521 DUP2 PUSH2 0x34FB JUMP JUMPDEST SWAP3 SWAP2 POP POP JUMP JUMPDEST PUSH1 0x0 DUP1 PUSH1 0x0 DUP1 PUSH1 0x0 DUP1 PUSH1 0xA0 DUP8 DUP10 SUB SLT ISZERO PUSH2 0x3544 JUMPI PUSH2 0x3543 PUSH2 0x337D JUMP JUMPDEST JUMPDEST PUSH1 0x0 PUSH2 0x3552 DUP10 DUP3 DUP11 ADD PUSH2 0x33A8 JUMP JUMPDEST SWAP7 POP POP PUSH1 0x20 PUSH2 0x3563 DUP10 DUP3 DUP11 ADD PUSH2 0x33A8 JUMP JUMPDEST SWAP6 POP POP PUSH1 0x40 DUP8 ADD CALLDATALOAD PUSH8 0xFFFFFFFFFFFFFFFF DUP2 GT ISZERO PUSH2 0x3584 JUMPI PUSH2 0x3583 PUSH2 0x3382 JUMP JUMPDEST JUMPDEST PUSH2 0x3590 DUP10 DUP3 DUP11 ADD PUSH2 0x34A5 JUMP JUMPDEST SWAP5 POP SWAP5 POP POP PUSH1 0x60 PUSH2 0x35A3 DUP10 DUP3 DUP11 ADD PUSH2 0x3512 JUMP JUMPDEST SWAP3 POP POP PUSH1 0x80 PUSH2 0x35B4 DUP10 DUP3 DUP11 ADD PUSH2 0x33A8 JUMP JUMPDEST SWAP2 POP POP SWAP3 SWAP6 POP SWAP3 SWAP6 POP SWAP3 SWAP6 JUMP JUMPDEST PUSH1 0x0 DUP2 MLOAD SWAP1 POP SWAP2 SWAP1 POP JUMP JUMPDEST PUSH1 0x0 DUP3 DUP3 MSTORE PUSH1 0x20 DUP3 ADD SWAP1 POP SWAP3 SWAP2 POP POP JUMP JUMPDEST PUSH1 0x0 DUP2 SWAP1 POP PUSH1 0x20 DUP3 ADD SWAP1 POP SWAP2 SWAP1 POP JUMP JUMPDEST PUSH2 0x35F6 DUP2 PUSH2 0x3387 JUMP JUMPDEST DUP3 MSTORE POP POP JUMP JUMPDEST PUSH1 0x0 PUSH2 0x3608 DUP4 DUP4 PUSH2 0x35ED JUMP JUMPDEST PUSH1 0x20 DUP4 ADD SWAP1 POP SWAP3 SWAP2 POP POP JUMP JUMPDEST PUSH1 0x0 PUSH1 0x20 DUP3 ADD SWAP1 POP SWAP2 SWAP1 POP JUMP JUMPDEST PUSH1 0x0 PUSH2 0x362C DUP3 PUSH2 0x35C1 JUMP JUMPDEST PUSH2 0x3636 DUP2 DUP6 PUSH2 0x35CC JUMP JUMPDEST SWAP4 POP PUSH2 0x3641 DUP4 PUSH2 0x35DD JUMP JUMPDEST DUP1 PUSH1 0x0 JUMPDEST DUP4 DUP2 LT ISZERO PUSH2 0x3672 JUMPI DUP2 MLOAD PUSH2 0x3659 DUP9 DUP3 PUSH2 0x35FC JUMP JUMPDEST SWAP8 POP PUSH2 0x3664 DUP4 PUSH2 0x3614 JUMP JUMPDEST SWAP3 POP POP PUSH1 0x1 DUP2 ADD SWAP1 POP PUSH2 0x3645 JUMP JUMPDEST POP DUP6 SWAP4 POP POP POP POP SWAP3 SWAP2 POP POP JUMP JUMPDEST PUSH1 0x0 PUSH1 0x20 DUP3 ADD SWAP1 POP DUP2 DUP2 SUB PUSH1 0x0 DUP4 ADD MSTORE PUSH2 0x3699 DUP2 DUP5 PUSH2 0x3621 JUMP JUMPDEST SWAP1 POP SWAP3 SWAP2 POP POP JUMP JUMPDEST PUSH1 0x0 PUSH1 0x20 DUP3 DUP5 SUB SLT ISZERO PUSH2 0x36B7 JUMPI PUSH2 0x36B6 PUSH2 0x337D JUMP JUMPDEST JUMPDEST PUSH1 0x0 PUSH2 0x36C5 DUP5 DUP3 DUP6 ADD PUSH2 0x3512 JUMP JUMPDEST SWAP2 POP POP SWAP3 SWAP2 POP POP JUMP JUMPDEST PUSH1 0x0 DUP1 PUSH1 0x40 DUP4 DUP6 SUB SLT ISZERO PUSH2 0x36E5 JUMPI PUSH2 0x36E4 PUSH2 0x337D JUMP JUMPDEST JUMPDEST PUSH1 0x0 PUSH2 0x36F3 DUP6 DUP3 DUP7 ADD PUSH2 0x3512 JUMP JUMPDEST SWAP3 POP POP PUSH1 0x20 PUSH2 0x3704 DUP6 DUP3 DUP7 ADD PUSH2 0x3512 JUMP JUMPDEST SWAP2 POP POP SWAP3 POP SWAP3 SWAP1 POP JUMP JUMPDEST PUSH1 0x0 DUP1 PUSH1 0x0 DUP1 PUSH1 0x0 DUP1 PUSH1 0x0 PUSH1 0xE0 DUP9 DUP11 SUB SLT ISZERO PUSH2 0x372D JUMPI PUSH2 0x372C PUSH2 0x337D JUMP JUMPDEST JUMPDEST PUSH1 0x0 PUSH2 0x373B DUP11 DUP3 DUP12 ADD PUSH2 0x3512 JUMP JUMPDEST SWAP8 POP POP PUSH1 0x20 PUSH2 0x374C DUP11 DUP3 DUP12 ADD PUSH2 0x3512 JUMP JUMPDEST SWAP7 POP POP PUSH1 0x40 PUSH2 0x375D DUP11 DUP3 DUP12 ADD PUSH2 0x33A8 JUMP JUMPDEST SWAP6 POP POP PUSH1 0x60 PUSH2 0x376E DUP11 DUP3 DUP12 ADD PUSH2 0x33A8 JUMP JUMPDEST SWAP5 POP POP PUSH1 0x80 PUSH2 0x377F DUP11 DUP3 DUP12 ADD PUSH2 0x33A8 JUMP JUMPDEST SWAP4 POP POP PUSH1 0xA0 PUSH2 0x3790 DUP11 DUP3 DUP12 ADD PUSH2 0x3512 JUMP JUMPDEST SWAP3 POP POP PUSH1 0xC0 PUSH2 0x37A1 DUP11 DUP3 DUP12 ADD PUSH2 0x33A8 JUMP JUMPDEST SWAP2 POP POP SWAP3 SWAP6 SWAP9 SWAP2 SWAP5 SWAP8 POP SWAP3 SWAP6 POP JUMP JUMPDEST PUSH1 0x0 PUSH1 0x40 DUP3 ADD SWAP1 POP PUSH2 0x37C5 PUSH1 0x0 DUP4 ADD DUP6 PUSH2 0x3410 JUMP JUMPDEST PUSH2 0x37D2 PUSH1 0x20 DUP4 ADD DUP5 PUSH2 0x3410 JUMP JUMPDEST SWAP4 SWAP3 POP POP POP JUMP JUMPDEST PUSH1 0x0 DUP1 PUSH1 0x0 DUP1 PUSH1 0x0 DUP1 PUSH1 0x0 DUP1 PUSH2 0x100 DUP10 DUP12 SUB SLT ISZERO PUSH2 0x37FA JUMPI PUSH2 0x37F9 PUSH2 0x337D JUMP JUMPDEST JUMPDEST PUSH1 0x0 PUSH2 0x3808 DUP12 DUP3 DUP13 ADD PUSH2 0x3512 JUMP JUMPDEST SWAP9 POP POP PUSH1 0x20 PUSH2 0x3819 DUP12 DUP3 DUP13 ADD PUSH2 0x3512 JUMP JUMPDEST SWAP8 POP POP PUSH1 0x40 PUSH2 0x382A DUP12 DUP3 DUP13 ADD PUSH2 0x33A8 JUMP JUMPDEST SWAP7 POP POP PUSH1 0x60 PUSH2 0x383B DUP12 DUP3 DUP13 ADD PUSH2 0x33A8 JUMP JUMPDEST SWAP6 POP POP PUSH1 0x80 PUSH2 0x384C DUP12 DUP3 DUP13 ADD PUSH2 0x33A8 JUMP JUMPDEST SWAP5 POP POP PUSH1 0xA0 PUSH2 0x385D DUP12 DUP3 DUP13 ADD PUSH2 0x33A8 JUMP JUMPDEST SWAP4 POP POP PUSH1 0xC0 PUSH2 0x386E DUP12 DUP3 DUP13 ADD PUSH2 0x3512 JUMP JUMPDEST SWAP3 POP POP PUSH1 0xE0 PUSH2 0x387F DUP12 DUP3 DUP13 ADD PUSH2 0x33A8 JUMP JUMPDEST SWAP2 POP POP SWAP3 SWAP6 SWAP9 POP SWAP3 SWAP6 SWAP9 SWAP1 SWAP4 SWAP7 POP JUMP JUMPDEST PUSH1 0x0 PUSH1 0x60 DUP3 ADD SWAP1 POP PUSH2 0x38A4 PUSH1 0x0 DUP4 ADD DUP7 PUSH2 0x3410 JUMP JUMPDEST PUSH2 0x38B1 PUSH1 0x20 DUP4 ADD DUP6 PUSH2 0x3410 JUMP JUMPDEST PUSH2 0x38BE PUSH1 0x40 DUP4 ADD DUP5 PUSH2 0x3410 JUMP JUMPDEST SWAP5 SWAP4 POP POP POP POP JUMP JUMPDEST PUSH32 0x4E487B7100000000000000000000000000000000000000000000000000000000 PUSH1 0x0 MSTORE PUSH1 0x11 PUSH1 0x4 MSTORE PUSH1 0x24 PUSH1 0x0 REVERT JUMPDEST PUSH1 0x0 PUSH2 0x3900 DUP3 PUSH2 0x3387 JUMP JUMPDEST SWAP2 POP PUSH2 0x390B DUP4 PUSH2 0x3387 JUMP JUMPDEST SWAP3 POP DUP3 DUP3 MUL PUSH2 0x3919 DUP2 PUSH2 0x3387 JUMP JUMPDEST SWAP2 POP DUP3 DUP3 DIV DUP5 EQ DUP4 ISZERO OR PUSH2 0x3930 JUMPI PUSH2 0x392F PUSH2 0x38C6 JUMP JUMPDEST JUMPDEST POP SWAP3 SWAP2 POP POP JUMP JUMPDEST PUSH32 0x4E487B7100000000000000000000000000000000000000000000000000000000 PUSH1 0x0 MSTORE PUSH1 0x12 PUSH1 0x4 MSTORE PUSH1 0x24 PUSH1 0x0 REVERT JUMPDEST PUSH1 0x0 PUSH2 0x3971 DUP3 PUSH2 0x3387 JUMP JUMPDEST SWAP2 POP PUSH2 0x397C DUP4 PUSH2 0x3387 JUMP JUMPDEST SWAP3 POP DUP3 PUSH2 0x398C JUMPI PUSH2 0x398B PUSH2 0x3937 JUMP JUMPDEST JUMPDEST DUP3 DUP3 DIV SWAP1 POP SWAP3 SWAP2 POP POP JUMP JUMPDEST PUSH1 0x0 PUSH2 0x39A2 DUP3 PUSH2 0x3387 JUMP JUMPDEST SWAP2 POP PUSH2 0x39AD DUP4 PUSH2 0x3387 JUMP JUMPDEST SWAP3 POP DUP3 DUP3 ADD SWAP1 POP DUP1 DUP3 GT ISZERO PUSH2 0x39C5 JUMPI PUSH2 0x39C4 PUSH2 0x38C6 JUMP JUMPDEST JUMPDEST SWAP3 SWAP2 POP POP JUMP JUMPDEST PUSH1 0x0 DUP3 DUP3 MSTORE PUSH1 0x20 DUP3 ADD SWAP1 POP SWAP3 SWAP2 POP POP JUMP JUMPDEST PUSH32 0x5472616E73616374696F6E206578706972656400000000000000000000000000 PUSH1 0x0 DUP3 ADD MSTORE POP JUMP JUMPDEST PUSH1 0x0 PUSH2 0x3A12 PUSH1 0x13 DUP4 PUSH2 0x39CB JUMP JUMPDEST SWAP2 POP PUSH2 0x3A1D DUP3 PUSH2 0x39DC JUMP JUMPDEST PUSH1 0x20 DUP3 ADD SWAP1 POP SWAP2 SWAP1 POP JUMP JUMPDEST PUSH1 0x0 PUSH1 0x20 DUP3 ADD SWAP1 POP DUP2 DUP2 SUB PUSH1 0x0 DUP4 ADD MSTORE PUSH2 0x3A41 DUP2 PUSH2 0x3A05 JUMP JUMPDEST SWAP1 POP SWAP2 SWAP1 POP JUMP JUMPDEST PUSH32 0x4F6E6C79203120686F7020616C6C6F7765640000000000000000000000000000 PUSH1 0x0 DUP3 ADD MSTORE POP JUMP JUMPDEST PUSH1 0x0 PUSH2 0x3A7E PUSH1 0x12 DUP4 PUSH2 0x39CB JUMP JUMPDEST SWAP2 POP PUSH2 0x3A89 DUP3 PUSH2 0x3A48 JUMP JUMPDEST PUSH1 0x20 DUP3 ADD SWAP1 POP SWAP2 SWAP1 POP JUMP JUMPDEST PUSH1 0x0 PUSH1 0x20 DUP3 ADD SWAP1 POP DUP2 DUP2 SUB PUSH1 0x0 DUP4 ADD MSTORE PUSH2 0x3AAD DUP2 PUSH2 0x3A71 JUMP JUMPDEST SWAP1 POP SWAP2 SWAP1 POP JUMP JUMPDEST PUSH32 0x496E76616C69642027746F272061646472657373000000000000000000000000 PUSH1 0x0 DUP3 ADD MSTORE POP JUMP JUMPDEST PUSH1 0x0 PUSH2 0x3AEA PUSH1 0x14 DUP4 PUSH2 0x39CB JUMP JUMPDEST SWAP2 POP PUSH2 0x3AF5 DUP3 PUSH2 0x3AB4 JUMP JUMPDEST PUSH1 0x20 DUP3 ADD SWAP1 POP SWAP2 SWAP1 POP JUMP JUMPDEST PUSH1 0x0 PUSH1 0x20 DUP3 ADD SWAP1 POP DUP2 DUP2 SUB PUSH1 0x0 DUP4 ADD MSTORE PUSH2 0x3B19 DUP2 PUSH2 0x3ADD JUMP JUMPDEST SWAP1 POP SWAP2 SWAP1 POP JUMP JUMPDEST PUSH32 0x496E707574206D757374206265203E2030000000000000000000000000000000 PUSH1 0x0 DUP3 ADD MSTORE POP JUMP JUMPDEST PUSH1 0x0 PUSH2 0x3B56 PUSH1 0x11 DUP4 PUSH2 0x39CB JUMP JUMPDEST SWAP2 POP PUSH2 0x3B61 DUP3 PUSH2 0x3B20 JUMP JUMPDEST PUSH1 0x20 DUP3 ADD SWAP1 POP SWAP2 SWAP1 POP JUMP JUMPDEST PUSH1 0x0 PUSH1 0x20 DUP3 ADD SWAP1 POP DUP2 DUP2 SUB PUSH1 0x0 DUP4 ADD MSTORE PUSH2 0x3B85 DUP2 PUSH2 0x3B49 JUMP JUMPDEST SWAP1 POP SWAP2 SWAP1 POP JUMP JUMPDEST PUSH32 0x4E487B7100000000000000000000000000000000000000000000000000000000 PUSH1 0x0 MSTORE PUSH1 0x32 PUSH1 0x4 MSTORE PUSH1 0x24 PUSH1 0x0 REVERT JUMPDEST PUSH32 0x496E76616C696420746F6B656E00000000000000000000000000000000000000 PUSH1 0x0 DUP3 ADD MSTORE POP JUMP JUMPDEST PUSH1 0x0 PUSH2 0x3BF1 PUSH1 0xD DUP4 PUSH2 0x39CB JUMP JUMPDEST SWAP2 POP PUSH2 0x3BFC DUP3 PUSH2 0x3BBB JUMP JUMPDEST PUSH1 0x20 DUP3 ADD SWAP1 POP SWAP2 SWAP1 POP JUMP JUMPDEST PUSH1 0x0 PUSH1 0x20 DUP3 ADD SWAP1 POP DUP2 DUP2 SUB PUSH1 0x0 DUP4 ADD MSTORE PUSH2 0x3C20 DUP2 PUSH2 0x3BE4 JUMP JUMPDEST SWAP1 POP SWAP2 SWAP1 POP JUMP JUMPDEST PUSH1 0x0 PUSH1 0x60 DUP3 ADD SWAP1 POP PUSH2 0x3C3C PUSH1 0x0 DUP4 ADD DUP7 PUSH2 0x346C JUMP JUMPDEST PUSH2 0x3C49 PUSH1 0x20 DUP4 ADD DUP6 PUSH2 0x346C JUMP JUMPDEST PUSH2 0x3C56 PUSH1 0x40 DUP4 ADD DUP5 PUSH2 0x3410 JUMP JUMPDEST SWAP5 SWAP4 POP POP POP POP JUMP JUMPDEST PUSH1 0x0 DUP2 ISZERO ISZERO SWAP1 POP SWAP2 SWAP1 POP JUMP JUMPDEST PUSH2 0x3C73 DUP2 PUSH2 0x3C5E JUMP JUMPDEST DUP2 EQ PUSH2 0x3C7E JUMPI PUSH1 0x0 DUP1 REVERT JUMPDEST POP JUMP JUMPDEST PUSH1 0x0 DUP2 MLOAD SWAP1 POP PUSH2 0x3C90 DUP2 PUSH2 0x3C6A JUMP JUMPDEST SWAP3 SWAP2 POP POP JUMP JUMPDEST PUSH1 0x0 PUSH1 0x20 DUP3 DUP5 SUB SLT ISZERO PUSH2 0x3CAC JUMPI PUSH2 0x3CAB PUSH2 0x337D JUMP JUMPDEST JUMPDEST PUSH1 0x0 PUSH2 0x3CBA DUP5 DUP3 DUP6 ADD PUSH2 0x3C81 JUMP JUMPDEST SWAP2 POP POP SWAP3 SWAP2 POP POP JUMP JUMPDEST PUSH32 0x496E73756666696369656E742072657365727665730000000000000000000000 PUSH1 0x0 DUP3 ADD MSTORE POP JUMP JUMPDEST PUSH1 0x0 PUSH2 0x3CF9 PUSH1 0x15 DUP4 PUSH2 0x39CB JUMP JUMPDEST SWAP2 POP PUSH2 0x3D04 DUP3 PUSH2 0x3CC3 JUMP JUMPDEST PUSH1 0x20 DUP3 ADD SWAP1 POP SWAP2 SWAP1 POP JUMP JUMPDEST PUSH1 0x0 PUSH1 0x20 DUP3 ADD SWAP1 POP DUP2 DUP2 SUB PUSH1 0x0 DUP4 ADD MSTORE PUSH2 0x3D28 DUP2 PUSH2 0x3CEC JUMP JUMPDEST SWAP1 POP SWAP2 SWAP1 POP JUMP JUMPDEST PUSH32 0x45786365737369766520736C6970706167650000000000000000000000000000 PUSH1 0x0 DUP3 ADD MSTORE POP JUMP JUMPDEST PUSH1 0x0 PUSH2 0x3D65 PUSH1 0x12 DUP4 PUSH2 0x39CB JUMP JUMPDEST SWAP2 POP PUSH2 0x3D70 DUP3 PUSH2 0x3D2F JUMP JUMPDEST PUSH1 0x20 DUP3 ADD SWAP1 POP SWAP2 SWAP1 POP JUMP JUMPDEST PUSH1 0x0 PUSH1 0x20 DUP3 ADD SWAP1 POP DUP2 DUP2 SUB PUSH1 0x0 DUP4 ADD MSTORE PUSH2 0x3D94 DUP2 PUSH2 0x3D58 JUMP JUMPDEST SWAP1 POP SWAP2 SWAP1 POP JUMP JUMPDEST PUSH1 0x0 PUSH2 0x3DA6 DUP3 PUSH2 0x3387 JUMP JUMPDEST SWAP2 POP PUSH2 0x3DB1 DUP4 PUSH2 0x3387 JUMP JUMPDEST SWAP3 POP DUP3 DUP3 SUB SWAP1 POP DUP2 DUP2 GT ISZERO PUSH2 0x3DC9 JUMPI PUSH2 0x3DC8 PUSH2 0x38C6 JUMP JUMPDEST JUMPDEST SWAP3 SWAP2 POP POP JUMP JUMPDEST PUSH1 0x0 PUSH1 0x40 DUP3 ADD SWAP1 POP PUSH2 0x3DE4 PUSH1 0x0 DUP4 ADD DUP6 PUSH2 0x346C JUMP JUMPDEST PUSH2 0x3DF1 PUSH1 0x20 DUP4 ADD DUP5 PUSH2 0x3410 JUMP JUMPDEST SWAP4 SWAP3 POP POP POP JUMP JUMPDEST PUSH32 0x4E487B7100000000000000000000000000000000000000000000000000000000 PUSH1 0x0 MSTORE PUSH1 0x41 PUSH1 0x4 MSTORE PUSH1 0x24 PUSH1 0x0 REVERT JUMPDEST PUSH32 0x496E76616C696420746F6B656E73000000000000000000000000000000000000 PUSH1 0x0 DUP3 ADD MSTORE POP JUMP JUMPDEST PUSH1 0x0 PUSH2 0x3E5D PUSH1 0xE DUP4 PUSH2 0x39CB JUMP JUMPDEST SWAP2 POP PUSH2 0x3E68 DUP3 PUSH2 0x3E27 JUMP JUMPDEST PUSH1 0x20 DUP3 ADD SWAP1 POP SWAP2 SWAP1 POP JUMP JUMPDEST PUSH1 0x0 PUSH1 0x20 DUP3 ADD SWAP1 POP DUP2 DUP2 SUB PUSH1 0x0 DUP4 ADD MSTORE PUSH2 0x3E8C DUP2 PUSH2 0x3E50 JUMP JUMPDEST SWAP1 POP SWAP2 SWAP1 POP JUMP JUMPDEST PUSH32 0x5A65726F206C6971756964697479206275726E00000000000000000000000000 PUSH1 0x0 DUP3 ADD MSTORE POP JUMP JUMPDEST PUSH1 0x0 PUSH2 0x3EC9 PUSH1 0x13 DUP4 PUSH2 0x39CB JUMP JUMPDEST SWAP2 POP PUSH2 0x3ED4 DUP3 PUSH2 0x3E93 JUMP JUMPDEST PUSH1 0x20 DUP3 ADD SWAP1 POP SWAP2 SWAP1 POP JUMP JUMPDEST PUSH1 0x0 PUSH1 0x20 DUP3 ADD SWAP1 POP DUP2 DUP2 SUB PUSH1 0x0 DUP4 ADD MSTORE PUSH2 0x3EF8 DUP2 PUSH2 0x3EBC JUMP JUMPDEST SWAP1 POP SWAP2 SWAP1 POP JUMP JUMPDEST PUSH32 0x496E73756666696369656E74206C697175696469747900000000000000000000 PUSH1 0x0 DUP3 ADD MSTORE POP JUMP JUMPDEST PUSH1 0x0 PUSH2 0x3F35 PUSH1 0x16 DUP4 PUSH2 0x39CB JUMP JUMPDEST SWAP2 POP PUSH2 0x3F40 DUP3 PUSH2 0x3EFF JUMP JUMPDEST PUSH1 0x20 DUP3 ADD SWAP1 POP SWAP2 SWAP1 POP JUMP JUMPDEST PUSH1 0x0 PUSH1 0x20 DUP3 ADD SWAP1 POP DUP2 DUP2 SUB PUSH1 0x0 DUP4 ADD MSTORE PUSH2 0x3F64 DUP2 PUSH2 0x3F28 JUMP JUMPDEST SWAP1 POP SWAP2 SWAP1 POP JUMP JUMPDEST PUSH32 0x536C697070616765204120746F6F206869676800000000000000000000000000 PUSH1 0x0 DUP3 ADD MSTORE POP JUMP JUMPDEST PUSH1 0x0 PUSH2 0x3FA1 PUSH1 0x13 DUP4 PUSH2 0x39CB JUMP JUMPDEST SWAP2 POP PUSH2 0x3FAC DUP3 PUSH2 0x3F6B JUMP JUMPDEST PUSH1 0x20 DUP3 ADD SWAP1 POP SWAP2 SWAP1 POP JUMP JUMPDEST PUSH1 0x0 PUSH1 0x20 DUP3 ADD SWAP1 POP DUP2 DUP2 SUB PUSH1 0x0 DUP4 ADD MSTORE PUSH2 0x3FD0 DUP2 PUSH2 0x3F94 JUMP JUMPDEST SWAP1 POP SWAP2 SWAP1 POP JUMP JUMPDEST PUSH32 0x536C697070616765204220746F6F206869676800000000000000000000000000 PUSH1 0x0 DUP3 ADD MSTORE POP JUMP JUMPDEST PUSH1 0x0 PUSH2 0x400D PUSH1 0x13 DUP4 PUSH2 0x39CB JUMP JUMPDEST SWAP2 POP PUSH2 0x4018 DUP3 PUSH2 0x3FD7 JUMP JUMPDEST PUSH1 0x20 DUP3 ADD SWAP1 POP SWAP2 SWAP1 POP JUMP JUMPDEST PUSH1 0x0 PUSH1 0x20 DUP3 ADD SWAP1 POP DUP2 DUP2 SUB PUSH1 0x0 DUP4 ADD MSTORE PUSH2 0x403C DUP2 PUSH2 0x4000 JUMP JUMPDEST SWAP1 POP SWAP2 SWAP1 POP JUMP JUMPDEST PUSH32 0x5A65726F206C6971756964697479000000000000000000000000000000000000 PUSH1 0x0 DUP3 ADD MSTORE POP JUMP JUMPDEST PUSH1 0x0 PUSH2 0x4079 PUSH1 0xE DUP4 PUSH2 0x39CB JUMP JUMPDEST SWAP2 POP PUSH2 0x4084 DUP3 PUSH2 0x4043 JUMP JUMPDEST PUSH1 0x20 DUP3 ADD SWAP1 POP SWAP2 SWAP1 POP JUMP JUMPDEST PUSH1 0x0 PUSH1 0x20 DUP3 ADD SWAP1 POP DUP2 DUP2 SUB PUSH1 0x0 DUP4 ADD MSTORE PUSH2 0x40A8 DUP2 PUSH2 0x406C JUMP JUMPDEST SWAP1 POP SWAP2 SWAP1 POP JUMP JUMPDEST PUSH32 0x4C6971756964697479206D757374206265203E20300000000000000000000000 PUSH1 0x0 DUP3 ADD MSTORE POP JUMP JUMPDEST PUSH1 0x0 PUSH2 0x40E5 PUSH1 0x15 DUP4 PUSH2 0x39CB JUMP JUMPDEST SWAP2 POP PUSH2 0x40F0 DUP3 PUSH2 0x40AF JUMP JUMPDEST PUSH1 0x20 DUP3 ADD SWAP1 POP SWAP2 SWAP1 POP JUMP JUMPDEST PUSH1 0x0 PUSH1 0x20 DUP3 ADD SWAP1 POP DUP2 DUP2 SUB PUSH1 0x0 DUP4 ADD MSTORE PUSH2 0x4114 DUP2 PUSH2 0x40D8 JUMP JUMPDEST SWAP1 POP SWAP2 SWAP1 POP JUMP JUMPDEST PUSH32 0x496E76616C69642070726F706F7274696F6E7300000000000000000000000000 PUSH1 0x0 DUP3 ADD MSTORE POP JUMP JUMPDEST PUSH1 0x0 PUSH2 0x4151 PUSH1 0x13 DUP4 PUSH2 0x39CB JUMP JUMPDEST SWAP2 POP PUSH2 0x415C DUP3 PUSH2 0x411B JUMP JUMPDEST PUSH1 0x20 DUP3 ADD SWAP1 POP SWAP2 SWAP1 POP JUMP JUMPDEST PUSH1 0x0 PUSH1 0x20 DUP3 ADD SWAP1 POP DUP2 DUP2 SUB PUSH1 0x0 DUP4 ADD MSTORE PUSH2 0x4180 DUP2 PUSH2 0x4144 JUMP JUMPDEST SWAP1 POP SWAP2 SWAP1 POP JUMP JUMPDEST PUSH32 0x5A65726F206C6971756964697479206E6F7420616C6C6F776564000000000000 PUSH1 0x0 DUP3 ADD MSTORE POP JUMP JUMPDEST PUSH1 0x0 PUSH2 0x41BD PUSH1 0x1A DUP4 PUSH2 0x39CB JUMP JUMPDEST SWAP2 POP PUSH2 0x41C8 DUP3 PUSH2 0x4187 JUMP JUMPDEST PUSH1 0x20 DUP3 ADD SWAP1 POP SWAP2 SWAP1 POP JUMP JUMPDEST PUSH1 0x0 PUSH1 0x20 DUP3 ADD SWAP1 POP DUP2 DUP2 SUB PUSH1 0x0 DUP4 ADD MSTORE PUSH2 0x41EC DUP2 PUSH2 0x41B0 JUMP JUMPDEST SWAP1 POP SWAP2 SWAP1 POP JUMP JUMPDEST PUSH1 0x0 PUSH1 0x80 DUP3 ADD SWAP1 POP PUSH2 0x4208 PUSH1 0x0 DUP4 ADD DUP8 PUSH2 0x3410 JUMP JUMPDEST PUSH2 0x4215 PUSH1 0x20 DUP4 ADD DUP7 PUSH2 0x3410 JUMP JUMPDEST PUSH2 0x4222 PUSH1 0x40 DUP4 ADD DUP6 PUSH2 0x3410 JUMP JUMPDEST PUSH2 0x422F PUSH1 0x60 DUP4 ADD DUP5 PUSH2 0x3410 JUMP JUMPDEST SWAP6 SWAP5 POP POP POP POP POP JUMP INVALID LOG2 PUSH5 0x6970667358 0x22 SLT KECCAK256 LOG2 0xE9 0xED SWAP4 RETURNDATACOPY 0xD5 MULMOD SMOD 0x5D PUSH11 0x53DE871140D1AF703E30FF SWAP15 INVALID PUSH4 0xB7CC7FBF 0xC7 EXTCODEHASH 0x26 CODECOPY PUSH5 0x736F6C6343 STOP ADDMOD EQ STOP CALLER "},"methodIdentifiers":{"addLiquidity(address,address,uint256,uint256,uint256,uint256,address,uint256)":"e8e33700","getAmountOut(uint256,uint256,uint256)":"054d50d4","getPrice(address,address)":"ac41865a","liquidityProvided(address)":"65119f72","removeLiquidity(address,address,uint256,uint256,uint256,address,uint256)":"baa2abde","reserve0()":"443cb4bc","reserve1()":"5a76f25e","swapExactTokensForTokens(uint256,uint256,address[],address,uint256)":"38ed1739","token0()":"0dfe1681","token1()":"d21220a7","totalLiquidity()":"15770f92"}}}}}