{
  "_format": "hh-sol-artifact-1",
  "contractName": "SimpleSwap",
  "sourceName": "contracts/SimpleSwap.sol",
  "abi": [
    {
      "inputs": [
        {
          "internalType": "address",
          "name": "_tokenA",
          "type": "address"
        },
        {
          "internalType": "address",
          "name": "_tokenB",
          "type": "address"
        }
      ],
      "stateMutability": "nonpayable",
      "type": "constructor"
    },
    {
      "inputs": [],
      "name": "ReentrancyGuardReentrantCall",
      "type": "error"
    },
    {
      "anonymous": false,
      "inputs": [
        {
          "indexed": true,
          "internalType": "address",
          "name": "provider",
          "type": "address"
        },
        {
          "indexed": false,
          "internalType": "uint256",
          "name": "amountA",
          "type": "uint256"
        },
        {
          "indexed": false,
          "internalType": "uint256",
          "name": "amountB",
          "type": "uint256"
        },
        {
          "indexed": false,
          "internalType": "uint256",
          "name": "liquidityMinted",
          "type": "uint256"
        },
        {
          "indexed": false,
          "internalType": "uint256",
          "name": "timestamp",
          "type": "uint256"
        }
      ],
      "name": "LiquidityAdded",
      "type": "event"
    },
    {
      "anonymous": false,
      "inputs": [
        {
          "indexed": true,
          "internalType": "address",
          "name": "provider",
          "type": "address"
        },
        {
          "indexed": false,
          "internalType": "uint256",
          "name": "amountA",
          "type": "uint256"
        },
        {
          "indexed": false,
          "internalType": "uint256",
          "name": "amountB",
          "type": "uint256"
        },
        {
          "indexed": false,
          "internalType": "uint256",
          "name": "timestamp",
          "type": "uint256"
        }
      ],
      "name": "LiquidityRemoved",
      "type": "event"
    },
    {
      "anonymous": false,
      "inputs": [
        {
          "indexed": true,
          "internalType": "address",
          "name": "swapper",
          "type": "address"
        },
        {
          "indexed": true,
          "internalType": "address",
          "name": "tokenIn",
          "type": "address"
        },
        {
          "indexed": true,
          "internalType": "address",
          "name": "tokenOut",
          "type": "address"
        },
        {
          "indexed": false,
          "internalType": "uint256",
          "name": "timestamp",
          "type": "uint256"
        }
      ],
      "name": "TokensSwapped",
      "type": "event"
    },
    {
      "inputs": [
        {
          "internalType": "address",
          "name": "_tokenA",
          "type": "address"
        },
        {
          "internalType": "address",
          "name": "_tokenB",
          "type": "address"
        },
        {
          "internalType": "uint256",
          "name": "amountADesired",
          "type": "uint256"
        },
        {
          "internalType": "uint256",
          "name": "amountBDesired",
          "type": "uint256"
        },
        {
          "internalType": "uint256",
          "name": "amountAMin",
          "type": "uint256"
        },
        {
          "internalType": "uint256",
          "name": "amountBMin",
          "type": "uint256"
        },
        {
          "internalType": "address",
          "name": "to",
          "type": "address"
        },
        {
          "internalType": "uint256",
          "name": "deadline",
          "type": "uint256"
        }
      ],
      "name": "addLiquidity",
      "outputs": [
        {
          "internalType": "uint256",
          "name": "actualAmountA",
          "type": "uint256"
        },
        {
          "internalType": "uint256",
          "name": "actualAmountB",
          "type": "uint256"
        },
        {
          "internalType": "uint256",
          "name": "liquidity",
          "type": "uint256"
        }
      ],
      "stateMutability": "nonpayable",
      "type": "function"
    },
    {
      "inputs": [
        {
          "internalType": "uint256",
          "name": "amountIn",
          "type": "uint256"
        },
        {
          "internalType": "uint256",
          "name": "reserveIn",
          "type": "uint256"
        },
        {
          "internalType": "uint256",
          "name": "reserveOut",
          "type": "uint256"
        }
      ],
      "name": "getAmountOut",
      "outputs": [
        {
          "internalType": "uint256",
          "name": "amountOut",
          "type": "uint256"
        }
      ],
      "stateMutability": "pure",
      "type": "function"
    },
    {
      "inputs": [
        {
          "internalType": "address",
          "name": "_tokenA",
          "type": "address"
        },
        {
          "internalType": "address",
          "name": "_tokenB",
          "type": "address"
        }
      ],
      "name": "getPrice",
      "outputs": [
        {
          "internalType": "uint256",
          "name": "price",
          "type": "uint256"
        }
      ],
      "stateMutability": "view",
      "type": "function"
    },
    {
      "inputs": [
        {
          "internalType": "address",
          "name": "",
          "type": "address"
        }
      ],
      "name": "liquidityProvided",
      "outputs": [
        {
          "internalType": "uint256",
          "name": "",
          "type": "uint256"
        }
      ],
      "stateMutability": "view",
      "type": "function"
    },
    {
      "inputs": [
        {
          "internalType": "address",
          "name": "_tokenA",
          "type": "address"
        },
        {
          "internalType": "address",
          "name": "_tokenB",
          "type": "address"
        },
        {
          "internalType": "uint256",
          "name": "liquidityToBurn",
          "type": "uint256"
        },
        {
          "internalType": "uint256",
          "name": "amountAMin",
          "type": "uint256"
        },
        {
          "internalType": "uint256",
          "name": "amountBMin",
          "type": "uint256"
        },
        {
          "internalType": "address",
          "name": "to",
          "type": "address"
        },
        {
          "internalType": "uint256",
          "name": "deadline",
          "type": "uint256"
        }
      ],
      "name": "removeLiquidity",
      "outputs": [
        {
          "internalType": "uint256",
          "name": "amountAWithdrawn",
          "type": "uint256"
        },
        {
          "internalType": "uint256",
          "name": "amountBWithdrawn",
          "type": "uint256"
        }
      ],
      "stateMutability": "nonpayable",
      "type": "function"
    },
    {
      "inputs": [],
      "name": "reserve0",
      "outputs": [
        {
          "internalType": "uint256",
          "name": "",
          "type": "uint256"
        }
      ],
      "stateMutability": "view",
      "type": "function"
    },
    {
      "inputs": [],
      "name": "reserve1",
      "outputs": [
        {
          "internalType": "uint256",
          "name": "",
          "type": "uint256"
        }
      ],
      "stateMutability": "view",
      "type": "function"
    },
    {
      "inputs": [
        {
          "internalType": "uint256",
          "name": "amountIn",
          "type": "uint256"
        },
        {
          "internalType": "uint256",
          "name": "amountOutMin",
          "type": "uint256"
        },
        {
          "internalType": "address[]",
          "name": "path",
          "type": "address[]"
        },
        {
          "internalType": "address",
          "name": "to",
          "type": "address"
        },
        {
          "internalType": "uint256",
          "name": "deadline",
          "type": "uint256"
        }
      ],
      "name": "swapExactTokensForTokens",
      "outputs": [
        {
          "internalType": "uint256[]",
          "name": "amounts",
          "type": "uint256[]"
        }
      ],
      "stateMutability": "nonpayable",
      "type": "function"
    },
    {
      "inputs": [],
      "name": "token0",
      "outputs": [
        {
          "internalType": "address",
          "name": "",
          "type": "address"
        }
      ],
      "stateMutability": "view",
      "type": "function"
    },
    {
      "inputs": [],
      "name": "token1",
      "outputs": [
        {
          "internalType": "address",
          "name": "",
          "type": "address"
        }
      ],
      "stateMutability": "view",
      "type": "function"
    },
    {
      "inputs": [],
      "name": "totalLiquidity",
      "outputs": [
        {
          "internalType": "uint256",
          "name": "",
          "type": "uint256"
        }
      ],
      "stateMutability": "view",
      "type": "function"
    }
  ],
  "bytecode": "0x608060405234801561001057600080fd5b506040516130a93803806130a9833981810160405281019061003291906102f9565b6001600081905550600073ffffffffffffffffffffffffffffffffffffffff168273ffffffffffffffffffffffffffffffffffffffff16141580156100a45750600073ffffffffffffffffffffffffffffffffffffffff168173ffffffffffffffffffffffffffffffffffffffff1614155b6100e3576040517f08c379a00000000000000000000000000000000000000000000000000000000081526004016100da90610396565b60405180910390fd5b8073ffffffffffffffffffffffffffffffffffffffff168273ffffffffffffffffffffffffffffffffffffffff1603610151576040517f08c379a000000000000000000000000000000000000000000000000000000000815260040161014890610402565b60405180910390fd5b8073ffffffffffffffffffffffffffffffffffffffff168273ffffffffffffffffffffffffffffffffffffffff16101561020c5781600160006101000a81548173ffffffffffffffffffffffffffffffffffffffff021916908373ffffffffffffffffffffffffffffffffffffffff16021790555080600260006101000a81548173ffffffffffffffffffffffffffffffffffffffff021916908373ffffffffffffffffffffffffffffffffffffffff16021790555061028f565b80600160006101000a81548173ffffffffffffffffffffffffffffffffffffffff021916908373ffffffffffffffffffffffffffffffffffffffff16021790555081600260006101000a81548173ffffffffffffffffffffffffffffffffffffffff021916908373ffffffffffffffffffffffffffffffffffffffff1602179055505b5050610422565b600080fd5b600073ffffffffffffffffffffffffffffffffffffffff82169050919050565b60006102c68261029b565b9050919050565b6102d6816102bb565b81146102e157600080fd5b50565b6000815190506102f3816102cd565b92915050565b600080604083850312156103105761030f610296565b5b600061031e858286016102e4565b925050602061032f858286016102e4565b9150509250929050565b600082825260208201905092915050565b7f496e76616c696420746f6b656e20616464726573730000000000000000000000600082015250565b6000610380601583610339565b915061038b8261034a565b602082019050919050565b600060208201905081810360008301526103af81610373565b9050919050565b7f546f6b656e73206d75737420626520646966666572656e740000000000000000600082015250565b60006103ec601883610339565b91506103f7826103b6565b602082019050919050565b6000602082019050818103600083015261041b816103df565b9050919050565b612c78806104316000396000f3fe608060405234801561001057600080fd5b50600436106100a95760003560e01c80635a76f25e116100715780635a76f25e1461016857806365119f7214610186578063ac41865a146101b6578063baa2abde146101e6578063d21220a714610217578063e8e3370014610235576100a9565b8063054d50d4146100ae5780630dfe1681146100de57806315770f92146100fc57806338ed17391461011a578063443cb4bc1461014a575b600080fd5b6100c860048036038101906100c39190611dc7565b610267565b6040516100d59190611e29565b60405180910390f35b6100e66102d4565b6040516100f39190611e85565b60405180910390f35b6101046102fa565b6040516101119190611e29565b60405180910390f35b610134600480360381019061012f9190611f31565b610300565b6040516101419190612089565b60405180910390f35b6101526109e5565b60405161015f9190611e29565b60405180910390f35b6101706109eb565b60405161017d9190611e29565b60405180910390f35b6101a0600480360381019061019b91906120ab565b6109f1565b6040516101ad9190611e29565b60405180910390f35b6101d060048036038101906101cb91906120d8565b610a09565b6040516101dd9190611e29565b60405180910390f35b61020060048036038101906101fb9190612118565b610d18565b60405161020e9291906121ba565b60405180910390f35b61021f6113ce565b60405161022c9190611e85565b60405180910390f35b61024f600480360381019061024a91906121e3565b6113f4565b60405161025e93929190612299565b60405180910390f35b6000806103e86103e58661027b91906122ff565b6102859190612370565b90506000838261029591906122ff565b9050600082866102a591906123a1565b9050600081036102bb57600093505050506102cd565b80826102c79190612370565b93505050505b9392505050565b600160009054906101000a900473ffffffffffffffffffffffffffffffffffffffff1681565b60055481565b606061030a611b5d565b818042111561034e576040517f08c379a000000000000000000000000000000000000000000000000000000000815260040161034590612432565b60405180910390fd5b60006040518060a00160405280600160009054906101000a900473ffffffffffffffffffffffffffffffffffffffff1673ffffffffffffffffffffffffffffffffffffffff168152602001600260009054906101000a900473ffffffffffffffffffffffffffffffffffffffff1673ffffffffffffffffffffffffffffffffffffffff16815260200160035481526020016004548152602001600554815250905060028787905014610435576040517f08c379a000000000000000000000000000000000000000000000000000000000815260040161042c9061249e565b60405180910390fd5b600073ffffffffffffffffffffffffffffffffffffffff168573ffffffffffffffffffffffffffffffffffffffff16036104a4576040517f08c379a000000000000000000000000000000000000000000000000000000000815260040161049b9061250a565b60405180910390fd5b600089116104e7576040517f08c379a00000000000000000000000000000000000000000000000000000000081526004016104de90612576565b60405180910390fd5b6000878760008181106104fd576104fc612596565b5b905060200201602081019061051291906120ab565b905060008888600181811061052a57610529612596565b5b905060200201602081019061053f91906120ab565b9050826000015173ffffffffffffffffffffffffffffffffffffffff168273ffffffffffffffffffffffffffffffffffffffff161480156105af5750826020015173ffffffffffffffffffffffffffffffffffffffff168173ffffffffffffffffffffffffffffffffffffffff16145b806106245750826020015173ffffffffffffffffffffffffffffffffffffffff168273ffffffffffffffffffffffffffffffffffffffff161480156106235750826000015173ffffffffffffffffffffffffffffffffffffffff168173ffffffffffffffffffffffffffffffffffffffff16145b5b610663576040517f08c379a000000000000000000000000000000000000000000000000000000000815260040161065a90612611565b60405180910390fd5b8173ffffffffffffffffffffffffffffffffffffffff166323b872dd33308e6040518463ffffffff1660e01b81526004016106a093929190612631565b6020604051808303816000875af11580156106bf573d6000803e3d6000fd5b505050506040513d601f19601f820116820180604052508101906106e391906126a0565b506000836000015173ffffffffffffffffffffffffffffffffffffffff168373ffffffffffffffffffffffffffffffffffffffff1614905060008161072c578460600151610732565b84604001515b905060008261074557856040015161074b565b85606001515b905060008211801561075d5750600081115b61079c576040517f08c379a000000000000000000000000000000000000000000000000000000000815260040161079390612719565b60405180910390fd5b60006107a98f8484610267565b90508d8110156107ee576040517f08c379a00000000000000000000000000000000000000000000000000000000081526004016107e590612785565b60405180910390fd5b831561081d578e8361080091906123a1565b600381905550808261081291906127a5565b600481905550610842565b8e8361082991906123a1565b600481905550808261083b91906127a5565b6003819055505b8473ffffffffffffffffffffffffffffffffffffffff1663a9059cbb8c836040518363ffffffff1660e01b815260040161087d9291906127d9565b6020604051808303816000875af115801561089c573d6000803e3d6000fd5b505050506040513d601f19601f820116820180604052508101906108c091906126a0565b508473ffffffffffffffffffffffffffffffffffffffff168673ffffffffffffffffffffffffffffffffffffffff163373ffffffffffffffffffffffffffffffffffffffff167f8d305eb0dd4191c0e7e56004355dbcb1312a9d8c9b2f8ec942a31c9c3e443e9d426040516109359190611e29565b60405180910390a4600267ffffffffffffffff81111561095857610957612802565b5b6040519080825280602002602001820160405280156109865781602001602082028036833780820191505090505b5098508e8960008151811061099e5761099d612596565b5b60200260200101818152505080896001815181106109bf576109be612596565b5b60200260200101818152505050505050505050506109db611ba3565b9695505050505050565b60035481565b60045481565b60066020528060005260406000206000915090505481565b60008073ffffffffffffffffffffffffffffffffffffffff168373ffffffffffffffffffffffffffffffffffffffff1614158015610a745750600073ffffffffffffffffffffffffffffffffffffffff168273ffffffffffffffffffffffffffffffffffffffff1614155b610ab3576040517f08c379a0000000000000000000000000000000000000000000000000000000008152600401610aaa9061287d565b60405180910390fd5b600160009054906101000a900473ffffffffffffffffffffffffffffffffffffffff1673ffffffffffffffffffffffffffffffffffffffff168373ffffffffffffffffffffffffffffffffffffffff16148015610b5d5750600260009054906101000a900473ffffffffffffffffffffffffffffffffffffffff1673ffffffffffffffffffffffffffffffffffffffff168273ffffffffffffffffffffffffffffffffffffffff16145b80610c0e5750600260009054906101000a900473ffffffffffffffffffffffffffffffffffffffff1673ffffffffffffffffffffffffffffffffffffffff168373ffffffffffffffffffffffffffffffffffffffff16148015610c0d5750600160009054906101000a900473ffffffffffffffffffffffffffffffffffffffff1673ffffffffffffffffffffffffffffffffffffffff168273ffffffffffffffffffffffffffffffffffffffff16145b5b610c4d576040517f08c379a0000000000000000000000000000000000000000000000000000000008152600401610c4490612611565b60405180910390fd5b60006003541480610c6057506000600454145b15610c6e5760009050610d12565b6000600160009054906101000a900473ffffffffffffffffffffffffffffffffffffffff1673ffffffffffffffffffffffffffffffffffffffff168473ffffffffffffffffffffffffffffffffffffffff16149050600081610cd257600454610cd6565b6003545b9050600082610ce757600354610ceb565b6004545b905081670de0b6b3a764000082610d0291906122ff565b610d0c9190612370565b93505050505b92915050565b600080610d23611b5d565b8280421115610d67576040517f08c379a0000000000000000000000000000000000000000000000000000000008152600401610d5e90612432565b60405180910390fd5b60006040518060a00160405280600160009054906101000a900473ffffffffffffffffffffffffffffffffffffffff1673ffffffffffffffffffffffffffffffffffffffff168152602001600260009054906101000a900473ffffffffffffffffffffffffffffffffffffffff1673ffffffffffffffffffffffffffffffffffffffff168152602001600354815260200160045481526020016005548152509050806000015173ffffffffffffffffffffffffffffffffffffffff168b73ffffffffffffffffffffffffffffffffffffffff16148015610e765750806020015173ffffffffffffffffffffffffffffffffffffffff168a73ffffffffffffffffffffffffffffffffffffffff16145b80610eeb5750806020015173ffffffffffffffffffffffffffffffffffffffff168b73ffffffffffffffffffffffffffffffffffffffff16148015610eea5750806000015173ffffffffffffffffffffffffffffffffffffffff168a73ffffffffffffffffffffffffffffffffffffffff16145b5b610f2a576040517f08c379a0000000000000000000000000000000000000000000000000000000008152600401610f2190612611565b60405180910390fd5b600073ffffffffffffffffffffffffffffffffffffffff168673ffffffffffffffffffffffffffffffffffffffff1603610f99576040517f08c379a0000000000000000000000000000000000000000000000000000000008152600401610f909061250a565b60405180910390fd5b60008911610fdc576040517f08c379a0000000000000000000000000000000000000000000000000000000008152600401610fd3906128e9565b60405180910390fd5b6000816000015173ffffffffffffffffffffffffffffffffffffffff168c73ffffffffffffffffffffffffffffffffffffffff1614905060008161102457826060015161102a565b82604001515b905060008261103d578360400151611043565b83606001515b90506000600660003373ffffffffffffffffffffffffffffffffffffffff1673ffffffffffffffffffffffffffffffffffffffff1681526020019081526020016000205490508c8110156110cc576040517f08c379a00000000000000000000000000000000000000000000000000000000081526004016110c390612955565b60405180910390fd5b8460800151838e6110dd91906122ff565b6110e79190612370565b97508460800151828e6110fa91906122ff565b6111049190612370565b96508b881015611149576040517f08c379a0000000000000000000000000000000000000000000000000000000008152600401611140906129c1565b60405180910390fd5b8a87101561118c576040517f08c379a000000000000000000000000000000000000000000000000000000000815260040161118390612a2d565b60405180910390fd5b8c6005600082825461119e91906127a5565b925050819055508c816111b191906127a5565b600660003373ffffffffffffffffffffffffffffffffffffffff1673ffffffffffffffffffffffffffffffffffffffff16815260200190815260200160002081905550831561123157876003600082825461120c91906127a5565b92505081905550866004600082825461122591906127a5565b92505081905550611264565b866003600082825461124391906127a5565b92505081905550876004600082825461125c91906127a5565b925050819055505b8e73ffffffffffffffffffffffffffffffffffffffff1663a9059cbb8b8a6040518363ffffffff1660e01b815260040161129f9291906127d9565b6020604051808303816000875af11580156112be573d6000803e3d6000fd5b505050506040513d601f19601f820116820180604052508101906112e291906126a0565b508d73ffffffffffffffffffffffffffffffffffffffff1663a9059cbb8b896040518363ffffffff1660e01b815260040161131e9291906127d9565b6020604051808303816000875af115801561133d573d6000803e3d6000fd5b505050506040513d601f19601f8201168201806040525081019061136191906126a0565b503373ffffffffffffffffffffffffffffffffffffffff167f1dc8bb69df2b8e91fbdcbfcf93d951b3f0000f085a95fe3f7946d6161439245d8989426040516113ac93929190612299565b60405180910390a25050505050506113c2611ba3565b97509795505050505050565b600260009054906101000a900473ffffffffffffffffffffffffffffffffffffffff1681565b6000806000611401611b5d565b8380421115611445576040517f08c379a000000000000000000000000000000000000000000000000000000000815260040161143c90612432565b60405180910390fd5b60006040518060a00160405280600160009054906101000a900473ffffffffffffffffffffffffffffffffffffffff1673ffffffffffffffffffffffffffffffffffffffff168152602001600260009054906101000a900473ffffffffffffffffffffffffffffffffffffffff1673ffffffffffffffffffffffffffffffffffffffff168152602001600354815260200160045481526020016005548152509050806000015173ffffffffffffffffffffffffffffffffffffffff168d73ffffffffffffffffffffffffffffffffffffffff161480156115545750806020015173ffffffffffffffffffffffffffffffffffffffff168c73ffffffffffffffffffffffffffffffffffffffff16145b806115c95750806020015173ffffffffffffffffffffffffffffffffffffffff168d73ffffffffffffffffffffffffffffffffffffffff161480156115c85750806000015173ffffffffffffffffffffffffffffffffffffffff168c73ffffffffffffffffffffffffffffffffffffffff16145b5b611608576040517f08c379a00000000000000000000000000000000000000000000000000000000081526004016115ff90612611565b60405180910390fd5b600073ffffffffffffffffffffffffffffffffffffffff168773ffffffffffffffffffffffffffffffffffffffff1603611677576040517f08c379a000000000000000000000000000000000000000000000000000000000815260040161166e9061250a565b60405180910390fd5b60008b118015611687575060008a115b6116c6576040517f08c379a00000000000000000000000000000000000000000000000000000000081526004016116bd90612a99565b60405180910390fd5b6000816000015173ffffffffffffffffffffffffffffffffffffffff168e73ffffffffffffffffffffffffffffffffffffffff1614905060008161170e578260600151611714565b82604001515b905060008261172757836040015161172d565b83606001515b90508d97508c9650600084608001510361179f57611755878961175091906122ff565b611bad565b95506000861161179a576040517f08c379a000000000000000000000000000000000000000000000000000000000815260040161179190612b05565b60405180910390fd5b61190d565b600081896117ad91906122ff565b9050600083896117bd91906122ff565b9050808214611801576040517f08c379a00000000000000000000000000000000000000000000000000000000081526004016117f890612b71565b60405180910390fd5b8d8a1015611844576040517f08c379a000000000000000000000000000000000000000000000000000000000815260040161183b906129c1565b60405180910390fd5b8c891015611887576040517f08c379a000000000000000000000000000000000000000000000000000000000815260040161187e90612a2d565b60405180910390fd5b6118c58487608001518c61189b91906122ff565b6118a59190612370565b8488608001518c6118b691906122ff565b6118c09190612370565b611d4a565b97506000881161190a576040517f08c379a000000000000000000000000000000000000000000000000000000000815260040161190190612bdd565b60405180910390fd5b50505b8f73ffffffffffffffffffffffffffffffffffffffff166323b872dd33308b6040518463ffffffff1660e01b815260040161194a93929190612631565b6020604051808303816000875af1158015611969573d6000803e3d6000fd5b505050506040513d601f19601f8201168201806040525081019061198d91906126a0565b508e73ffffffffffffffffffffffffffffffffffffffff166323b872dd33308a6040518463ffffffff1660e01b81526004016119cb93929190612631565b6020604051808303816000875af11580156119ea573d6000803e3d6000fd5b505050506040513d601f19601f82011682018060405250810190611a0e91906126a0565b508215611a4c578760036000828254611a2791906123a1565b925050819055508660046000828254611a4091906123a1565b92505081905550611a7f565b8660036000828254611a5e91906123a1565b925050819055508760046000828254611a7791906123a1565b925050819055505b8560056000828254611a9191906123a1565b9250508190555085600660008c73ffffffffffffffffffffffffffffffffffffffff1673ffffffffffffffffffffffffffffffffffffffff1681526020019081526020016000206000828254611ae791906123a1565b925050819055503373ffffffffffffffffffffffffffffffffffffffff167f08d7621a09a86934f387f650007fa17f2413759ca5f2ae0681161b371583a5f589898942604051611b3a9493929190612bfd565b60405180910390a25050505050611b4f611ba3565b985098509895505050505050565b600260005403611b99576040517f3ee5aeb500000000000000000000000000000000000000000000000000000000815260040160405180910390fd5b6002600081905550565b6001600081905550565b600060018211611bbf57819050611d45565b60008290506000600190507001000000000000000000000000000000008210611bf157608082901c9150604081901b90505b680100000000000000008210611c1057604082901c9150602081901b90505b6401000000008210611c2b57602082901c9150601081901b90505b620100008210611c4457601082901c9150600881901b90505b6101008210611c5c57600882901c9150600481901b90505b60108210611c7357600482901c9150600281901b90505b60048210611c8357600181901b90505b600181600302901c90506001818581611c9f57611c9e612341565b5b048201901c90506001818581611cb857611cb7612341565b5b048201901c90506001818581611cd157611cd0612341565b5b048201901c90506001818581611cea57611ce9612341565b5b048201901c90506001818581611d0357611d02612341565b5b048201901c90506001818581611d1c57611d1b612341565b5b048201901c9050611d3e818581611d3657611d35612341565b5b048211611d61565b8103925050505b919050565b6000611d598284108484611d6d565b905092915050565b60008115159050919050565b6000611d7884611d61565b82841802821890509392505050565b600080fd5b600080fd5b6000819050919050565b611da481611d91565b8114611daf57600080fd5b50565b600081359050611dc181611d9b565b92915050565b600080600060608486031215611de057611ddf611d87565b5b6000611dee86828701611db2565b9350506020611dff86828701611db2565b9250506040611e1086828701611db2565b9150509250925092565b611e2381611d91565b82525050565b6000602082019050611e3e6000830184611e1a565b92915050565b600073ffffffffffffffffffffffffffffffffffffffff82169050919050565b6000611e6f82611e44565b9050919050565b611e7f81611e64565b82525050565b6000602082019050611e9a6000830184611e76565b92915050565b600080fd5b600080fd5b600080fd5b60008083601f840112611ec557611ec4611ea0565b5b8235905067ffffffffffffffff811115611ee257611ee1611ea5565b5b602083019150836020820283011115611efe57611efd611eaa565b5b9250929050565b611f0e81611e64565b8114611f1957600080fd5b50565b600081359050611f2b81611f05565b92915050565b60008060008060008060a08789031215611f4e57611f4d611d87565b5b6000611f5c89828a01611db2565b9650506020611f6d89828a01611db2565b955050604087013567ffffffffffffffff811115611f8e57611f8d611d8c565b5b611f9a89828a01611eaf565b94509450506060611fad89828a01611f1c565b9250506080611fbe89828a01611db2565b9150509295509295509295565b600081519050919050565b600082825260208201905092915050565b6000819050602082019050919050565b61200081611d91565b82525050565b60006120128383611ff7565b60208301905092915050565b6000602082019050919050565b600061203682611fcb565b6120408185611fd6565b935061204b83611fe7565b8060005b8381101561207c5781516120638882612006565b975061206e8361201e565b92505060018101905061204f565b5085935050505092915050565b600060208201905081810360008301526120a3818461202b565b905092915050565b6000602082840312156120c1576120c0611d87565b5b60006120cf84828501611f1c565b91505092915050565b600080604083850312156120ef576120ee611d87565b5b60006120fd85828601611f1c565b925050602061210e85828601611f1c565b9150509250929050565b600080600080600080600060e0888a03121561213757612136611d87565b5b60006121458a828b01611f1c565b97505060206121568a828b01611f1c565b96505060406121678a828b01611db2565b95505060606121788a828b01611db2565b94505060806121898a828b01611db2565b93505060a061219a8a828b01611f1c565b92505060c06121ab8a828b01611db2565b91505092959891949750929550565b60006040820190506121cf6000830185611e1a565b6121dc6020830184611e1a565b9392505050565b600080600080600080600080610100898b03121561220457612203611d87565b5b60006122128b828c01611f1c565b98505060206122238b828c01611f1c565b97505060406122348b828c01611db2565b96505060606122458b828c01611db2565b95505060806122568b828c01611db2565b94505060a06122678b828c01611db2565b93505060c06122788b828c01611f1c565b92505060e06122898b828c01611db2565b9150509295985092959890939650565b60006060820190506122ae6000830186611e1a565b6122bb6020830185611e1a565b6122c86040830184611e1a565b949350505050565b7f4e487b7100000000000000000000000000000000000000000000000000000000600052601160045260246000fd5b600061230a82611d91565b915061231583611d91565b925082820261232381611d91565b9150828204841483151761233a576123396122d0565b5b5092915050565b7f4e487b7100000000000000000000000000000000000000000000000000000000600052601260045260246000fd5b600061237b82611d91565b915061238683611d91565b92508261239657612395612341565b5b828204905092915050565b60006123ac82611d91565b91506123b783611d91565b92508282019050808211156123cf576123ce6122d0565b5b92915050565b600082825260208201905092915050565b7f5472616e73616374696f6e206578706972656400000000000000000000000000600082015250565b600061241c6013836123d5565b9150612427826123e6565b602082019050919050565b6000602082019050818103600083015261244b8161240f565b9050919050565b7f4f6e6c79203120686f7020616c6c6f7765640000000000000000000000000000600082015250565b60006124886012836123d5565b915061249382612452565b602082019050919050565b600060208201905081810360008301526124b78161247b565b9050919050565b7f496e76616c69642027746f272061646472657373000000000000000000000000600082015250565b60006124f46014836123d5565b91506124ff826124be565b602082019050919050565b60006020820190508181036000830152612523816124e7565b9050919050565b7f496e707574206d757374206265203e2030000000000000000000000000000000600082015250565b60006125606011836123d5565b915061256b8261252a565b602082019050919050565b6000602082019050818103600083015261258f81612553565b9050919050565b7f4e487b7100000000000000000000000000000000000000000000000000000000600052603260045260246000fd5b7f496e76616c696420746f6b656e00000000000000000000000000000000000000600082015250565b60006125fb600d836123d5565b9150612606826125c5565b602082019050919050565b6000602082019050818103600083015261262a816125ee565b9050919050565b60006060820190506126466000830186611e76565b6126536020830185611e76565b6126606040830184611e1a565b949350505050565b60008115159050919050565b61267d81612668565b811461268857600080fd5b50565b60008151905061269a81612674565b92915050565b6000602082840312156126b6576126b5611d87565b5b60006126c48482850161268b565b91505092915050565b7f496e73756666696369656e742072657365727665730000000000000000000000600082015250565b60006127036015836123d5565b915061270e826126cd565b602082019050919050565b60006020820190508181036000830152612732816126f6565b9050919050565b7f45786365737369766520736c6970706167650000000000000000000000000000600082015250565b600061276f6012836123d5565b915061277a82612739565b602082019050919050565b6000602082019050818103600083015261279e81612762565b9050919050565b60006127b082611d91565b91506127bb83611d91565b92508282039050818111156127d3576127d26122d0565b5b92915050565b60006040820190506127ee6000830185611e76565b6127fb6020830184611e1a565b9392505050565b7f4e487b7100000000000000000000000000000000000000000000000000000000600052604160045260246000fd5b7f496e76616c696420746f6b656e73000000000000000000000000000000000000600082015250565b6000612867600e836123d5565b915061287282612831565b602082019050919050565b600060208201905081810360008301526128968161285a565b9050919050565b7f5a65726f206c6971756964697479206275726e00000000000000000000000000600082015250565b60006128d36013836123d5565b91506128de8261289d565b602082019050919050565b60006020820190508181036000830152612902816128c6565b9050919050565b7f496e73756666696369656e74206c697175696469747900000000000000000000600082015250565b600061293f6016836123d5565b915061294a82612909565b602082019050919050565b6000602082019050818103600083015261296e81612932565b9050919050565b7f536c697070616765204120746f6f206869676800000000000000000000000000600082015250565b60006129ab6013836123d5565b91506129b682612975565b602082019050919050565b600060208201905081810360008301526129da8161299e565b9050919050565b7f536c697070616765204220746f6f206869676800000000000000000000000000600082015250565b6000612a176013836123d5565b9150612a22826129e1565b602082019050919050565b60006020820190508181036000830152612a4681612a0a565b9050919050565b7f5a65726f206c6971756964697479000000000000000000000000000000000000600082015250565b6000612a83600e836123d5565b9150612a8e82612a4d565b602082019050919050565b60006020820190508181036000830152612ab281612a76565b9050919050565b7f4c6971756964697479206d757374206265203e20300000000000000000000000600082015250565b6000612aef6015836123d5565b9150612afa82612ab9565b602082019050919050565b60006020820190508181036000830152612b1e81612ae2565b9050919050565b7f496e76616c69642070726f706f7274696f6e7300000000000000000000000000600082015250565b6000612b5b6013836123d5565b9150612b6682612b25565b602082019050919050565b60006020820190508181036000830152612b8a81612b4e565b9050919050565b7f5a65726f206c6971756964697479206e6f7420616c6c6f776564000000000000600082015250565b6000612bc7601a836123d5565b9150612bd282612b91565b602082019050919050565b60006020820190508181036000830152612bf681612bba565b9050919050565b6000608082019050612c126000830187611e1a565b612c1f6020830186611e1a565b612c2c6040830185611e1a565b612c396060830184611e1a565b9594505050505056fea2646970667358221220fd5e55e159146931d705519feb270dae7103e60d8b58c26b3e51e2482cd495c164736f6c634300081c0033",
  "linkReferences": {},
  "deployedLinkReferences": {}
}